:020000040800F2
:1000000000500020252D0008752D0008752D0008D2
:10001000752D0008752D0008752D000800000000E2
:10002000000000000000000000000000E1080008DF
:10003000752D000800000000D1090008190A000809
:10004000752D0008752D0008752D0008752D000808
:10005000752D0008752D0008752D0008752D0008F8
:10006000752D0008752D0008752D0008752D0008E8
:10007000752D0008752D0008752D0008752D0008D8
:10008000752D0008752D0008752D0008752D0008C8
:10009000752D0008752D0008752D0008752D0008B8
:1000A000752D0008752D0008752D0008752D0008A8
:1000B000752D0008752D0008752D0008752D000898
:1000C000752D0008752D0008752D0008752D000888
:1000D000752D0008752D0008752D0008752D000878
:1000E000752D0008752D0008752D00080000000012
:1000F0000000000000000000000000000000000000
:0C01000000000000000000005FF808F1A3
:1001100010B5054C237833B9044B13B10448AFF341
:1001200000800123237010BD7C000020000000002F
:100130002038000808B5034B1BB103490348AFF34F
:10014000008008BD0000000080000020203800086A
:10015000034613F8012B002AFBD1181A0138704707
:1001600080B483B000AF7860054A7B6843F0BF631A
:1001700043F40033D36000BF0C37BD4680BC7047EA
:1001800000ED00E080B489B000AF786039600023F2
:10019000FB6100233B610023BB610023FB60002364
:1001A0007B610023BB603B68DB7803F00F03FB61DE
:1001B0003B68DB7803F01003002B05D03B689B788D
:1001C0001A46FB691343FB613B681B88DBB2002BBB
:1001D00044D07B681B687B610023BB6138E001224F
:1001E000BB6902FA03F3FB603B681B881A46FB6895
:1001F00013403B613A69FB689A4226D1BB699B0078
:10020000FB600F22FB6802FA03F3BB60BB68DB43B1
:100210007A6913407B61FA69FB6802FA03F37A6931
:1002200013437B613B68DB78282B05D10122BB6936
:100230009A407B685A6108E03B68DB78482B04D120
:100240000122BB699A407B681A61BB690133BB61BB
:10025000BB69072BC3D97B687A691A603B681B8826
:10026000FF2B46D97B685B687B610023BB613AE06A
:10027000BB690833012202FA03F3FB603B681B8869
:100280001A46FB6813403B613A69FB689A4227D1E2
:10029000BB699B00FB600F22FB6802FA03F3BB60A3
:1002A000BB68DB437A6913407B61FA69FB6802FA39
:1002B00003F37A6913437B613B68DB78282B05D114
:1002C000BB69083301229A407B685A613B68DB783E
:1002D000482B05D1BB69083301229A407B681A611B
:1002E000BB690133BB61BB69072BC1D97B687A69E4
:1002F0005A6000BF2437BD4680BC704780B485B0CB
:1003000000AF78600B467B800023FB737B68DA6864
:100310007B881340002B02D00123FB7301E00023F4
:10032000FB73FB7B18461437BD4680BC704780B416
:1003300083B000AF78600B467B807B68DA687B888F
:100340005A407B68DA6000BF0C37BD4680BC7047FE
:1003500080B487B000AF786000237B6100233B61ED
:100360000023FB600023BB604C4B5B6803F00C0375
:100370007B617B69042B07D0082B09D0002B33D17C
:100380007B68474A1A6033E07B68454A1A602FE071
:10039000424B5B6803F470133B61404B5B6803F4B2
:1003A0008033FB603B699B0C02333B61FB68002B95
:1003B00006D13B693B4A02FB03F27B681A6017E0F7
:1003C000364B5B6803F40033002B06D03B69354A9B
:1003D00002FB03F27B681A600AE03B69304A02FBC9
:1003E00003F27B681A6003E07B682D4A1A6000BF45
:1003F0002A4B5B6803F0F0037B617B691B097B611F
:10040000294A7B6913441B78DBB2BB607B681A689E
:10041000BB68DA407B685A60204B5B6803F4E0639A
:100420007B617B691B0A7B611F4A7B6913441B78D4
:10043000DBB2BB607B685A68BB68DA407B689A6055
:10044000164B5B6803F460537B617B69DB0A7B615D
:10045000154A7B6913441B78DBB2BB607B685A6822
:10046000BB68DA407B68DA600C4B5B6803F440439E
:100470007B617B699B0B7B610C4A7B6913441B7816
:10048000DBB2BB607B68DA68BB68B2FBF3F27B6807
:100490001A6100BF1C37BD4680BC70470010024087
:1004A00000127A0000093D0000000020100000202A
:1004B00080B483B000AF78600B46FB70FB78002BF4
:1004C00006D00949084B9A697B6813438B6106E0A3
:1004D0000549054B9A697B68DB4313408B6100BF7C
:1004E0000C37BD4680BC70470010024080B58CB010
:1004F00000AF786039600023FB620023BB620023F9
:100500007B6200233B620023FB617B68FB617B68AD
:100510001B8A9BB2FB62FA6A4CF6FF731340FB62C4
:100520003B68DB881A46FB6A1343FB62FB6A9AB29C
:100530007B681A827B689B899BB2FB62FA6A4EF6E3
:10054000F3131340FB623B689A883B681B89134393
:100550009AB23B685B8913439BB21A46FB6A13430A
:10056000FB62FB6A9AB27B689A817B689B8A9BB22A
:10057000FB62FA6A4FF6FF431340FB623B689B89BC
:100580001A46FB6A1343FB62FB6A9AB27B689A8243
:1005900007F108031846FFF7DBFEFB692E4A93427A
:1005A00002D17B69BB6201E03B69BB627B689B89CE
:1005B0009BB21BB2002B0CDABA6A13469B001344A1
:1005C0009A001A443B681B685B00B2FBF3F37B6242
:1005D0000BE0BA6A13469B0013449A001A443B6826
:1005E0001B689B00B2FBF3F37B627B6A1B4AA2FB96
:1005F00003235B091B01FB62FB6A1B09642202FBEC
:1006000003F37A6AD31A3B627B689B899BB21BB265
:10061000002B0CDA3B6ADB003233104AA2FB0323C7
:100620005B0903F00703FA6A1343FB620BE03B6AC2
:100630001B013233094AA2FB03235B0903F00F03BA
:10064000FA6A1343FB62FB6A9AB27B681A8100BFA5
:100650003037BD4680BD00BF003801401F85EB51DB
:1006600080B483B000AF78600B46FB70FB78002B42
:1006700008D07B689B899BB243F400539AB27B6895
:100680009A8107E07B689B899BB223F400539AB25E
:100690007B689A8100BF0C37BD4680BC704780B430
:1006A00083B000AF78600B467B807B88C3F3080380
:1006B0009AB27B689A8000BF0C37BD4680BC7047F9
:1006C00080B485B000AF78600B467B800023FB735D
:1006D0007B681B889AB27B8813409BB2002B02D0A8
:1006E0000123FB7301E00023FB73FB7B18461437E7
:1006F000BD4680BC704780B483B000AF78607B6833
:1007000003F108027B685A607B684FF0FF329A6001
:100710007B6803F108027B68DA607B6803F10802FA
:100720007B681A617B6800221A6000BF0C37BD46E7
:1007300080BC704780B483B000AF78607B680022D3
:100740001A6100BF0C37BD4680BC704780B485B0CD
:1007500000AF786039607B685B68FB603B68FA6873
:100760005A60FB689A683B689A60FB689B683A68C5
:100770005A60FB683A689A603B687A681A617B68DD
:100780001B685A1C7B681A6000BF1437BD4680BCCA
:10079000704780B485B000AF786039603B681B68F3
:1007A000BB60BB68B3F1FF3F03D17B681B69FB6093
:1007B0000CE07B680833FB6002E0FB685B68FB6071
:1007C000FB685B681A68BB689A42F6D9FB685A688E
:1007D0003B685A603B685B683A689A603B68FA68B5
:1007E0009A60FB683A685A603B687A681A617B686D
:1007F0001B685A1C7B681A6000BF1437BD4680BC5A
:10080000704780B485B000AF78607B681B69FB607F
:100810007B685B687A6892689A607B689B687A6894
:1008200052685A60FB685A687B689A4203D17B68B9
:100830009A68FB685A607B6800221A61FB681B6833
:100840005A1EFB681A60FB681B6818461437BD46C1
:1008500080BC704780B485B000AFF860B9607A6042
:10086000FB68043BFB60FB684FF080721A60FB681A
:10087000043BFB60BB6823F00102FB681A60FB6865
:10088000043BFB60084AFB681A60FB68143BFB6092
:100890007A68FB681A60FB68203BFB60FB681846BF
:1008A0001437BD4680BC7047AD08000880B483B0E3
:1008B00000AF00233B604FF0BF0383F31188BFF309
:1008C0006F8FBFF34F8F7B6000BF3B68002BFCD066
:1008D00000BF0C37BD4680BC704700000000000020
:1008E000074B19680868B0E8F00F80F30988BFF378
:1008F0006F8F4FF0000080F311884EF00D0E70479F
:10090000B838002000BF00BF06480068006880F3C8
:10091000088862B661B6BFF34F8FBFF36F8F00DFF9
:1009200000BF00BF08ED00E080B500AF0C4A0C4BE3
:100930001B6843F47F031360094A094B1B6843F0AB
:100940007F43136000F090F8064B00221A60FFF717
:10095000DBFF00F039FDFFF7A9FF0023184680BD3B
:1009600020ED00E01400002080B483B000AF4FF011
:10097000BF0383F31188BFF36F8FBFF34F8F7B608B
:10098000044B1B680133034A136000BF0C37BD469C
:1009900080BC70471400002080B483B000AF094BC6
:1009A0001B68013B074A1360064B1B68002B04D1F0
:1009B00000237B607B6883F3118800BF0C37BD4642
:1009C00080BC704714000020000000000000000000
:1009D000EFF30980BFF36F8F0D4B1A6820E9F00F1A
:1009E00010602DE908404FF0BF0080F3118800F03F
:1009F000EBFC4FF0000080F31188BDE80840196857
:100A00000868B0E8F00F80F30988BFF36F8F704774
:100A1000B838002000BF00BF80B582B000AF4FF0F3
:100A2000BF0383F31188BFF36F8FBFF34F8F7B60DA
:100A300001F082FD00F01CFC0346002B06D001F003
:100A4000D9FD084B4FF080521A6001E001F0B6FD6D
:100A500000233B603B6883F3118800BF0837BD4625
:100A600080BD00BF04ED00E080B400AF074B002262
:100A70001A60074B00221A60064B074A1A60034BA4
:100A800007221A6000BFBD4680BC704710E000E03E
:100A900018E000E014E000E03F19010080B586B0E6
:100AA00000AF78600023FB6000F042FB424B1B6804
:100AB000002B01D100F0CCF8404B1A687B68134042
:100AC000002B72D17B68002B0DD008227B68134469
:100AD0007B607B6803F00703002B04D07B6823F066
:100AE000070308337B607B68002B5ED0344B1B68A8
:100AF0007A689A4259D8334B3B61324B1B687B6111
:100B000004E07B693B617B691B687B617B695A6898
:100B10007B689A4203D27B691B68002BF1D1264B7C
:100B20001B687A699A4240D03B691B6808221344CB
:100B3000FB607B691A683B691A607B695A687B684D
:100B4000D21A08235B009A420FD97A697B68134452
:100B5000BB607B695A687B68D21ABB685A607B6944
:100B60007A685A60B86800F0D5F8154B1A687B6946
:100B70005B68D31A124A1360114B1A68124B1B6838
:100B80009A4203D20E4B1B680F4A13607B695A6866
:100B90000A4B1B681A437B695A607B6900221A6002
:100BA0000A4B1B680133094A136000F0CFFAFB6857
:100BB00018461837BD4680BDA0380020B438002044
:100BC000A438002098380020A8380020AC38002035
:100BD00080B584B000AF78607B68FB607B68002BD9
:100BE0002CD008235B42FA681344FB60FB68BB60AF
:100BF000BB685A68134B1B681340002B1ED0BB68A0
:100C00001B68002B1AD1BB685A680E4B1B68DB436C
:100C10001A40BB685A6000F08BFABB685A680A4BEE
:100C20001B681344084A1360B86800F073F8074B58
:100C30001B680133054A136000F088FA00BF1037C3
:100C4000BD4680BDB4380020A4380020B038002054
:100C500080B485B000AF4FF46053BB60274BFB609E
:100C6000FB6803F00703002B0CD0FB680733FB6025
:100C7000FB6823F00703FB60BA68FB68D31A1F4ABE
:100C80001344BB60FB687B601D4A7B6813601C4B90
:100C900000225A607A68BB681344FB600822FB6834
:100CA0009B1AFB60FB6823F00703FB60FB68154A97
:100CB0001360144B1B6800225A60124B1B68002201
:100CC0001A607B683B603B68FA68D21A3B685A60DE
:100CD0000C4B1A683B681A603B685B680A4A1360F1
:100CE0003B685B68094A1360094B4FF000421A6089
:100CF00000BF1437BD4680BC704700BF980000207D
:100D000098380020A0380020A8380020A4380020FF
:100D1000B438002080B485B000AF7860274BFB600A
:100D200002E0FB681B68FB60FB681A687B689A42FC
:100D3000F7D3FB68BB60FB685B68BA681A447B68E2
:100D40009A4208D1FB685A687B685B681A44FB6862
:100D50005A60FB687B607B68BB607B685B68BA68D5
:100D60001A44FB681B689A4218D1FB681A68144B36
:100D70001B689A420DD07B685A68FB681B685B68E9
:100D80001A447B685A60FB681B681A687B681A60A3
:100D900008E00B4B1A687B681A6003E0FB681A686E
:100DA0007B681A60FA687B689A4202D0FB687A68AE
:100DB0001A6000BF1437BD4680BC704798380020C9
:100DC000A038002080B58CB004AFF860B9603B60FB
:100DD0001346FB80FB889B001846FFF75FFE786197
:100DE0007B69002B0ED05420FFF758FEF861FB6999
:100DF000002B03D0FB697A691A6305E07869FFF775
:100E0000E7FE01E00023FB61FB69002B13D0FA88A9
:100E100000230393FB690293FB6A0193BB6A00936F
:100E20003B68B968F86800F00EF8F86900F08AF8D5
:100E30000123BB6102E04FF0FF33BB61BB69184681
:100E40002037BD4680BD80B586B000AFF860B96080
:100E50007A603B60BB6A186B7B689B001A46A521D1
:100E600002F0B6F8BB6A1A6B7B6803F18043013B62
:100E70009B0013443B613B6923F007033B61BB6864
:100E8000002B1FD000237B6112E0BA687B691344FA
:100E90001978BA6A7B69134434330A461A70BA68FF
:100EA0007B6913441B78002B06D07B6901337B617F
:100EB0007B690F2BE9D900E000BFBB6A002283F8F1
:100EC000432003E0BB6A002283F834203B6A042BF2
:100ED00001D904233B62BB6A3A6ADA62BB6A3A6AA6
:100EE0005A64BB6A00229A64BB6A04331846FFF74F
:100EF00021FCBB6A18331846FFF71CFCBB6ABA6AB0
:100F00001A613B6AC3F10502BB6A9A61BB6ABA6A9D
:100F10005A62BB6A0022DA64BB6A002283F850205E
:100F20003A68F9683869FFF795FC0246BB6A1A60AF
:100F30007B6A002B02D07B6ABA6A1A6000BF18373E
:100F4000BD4680BDB0B584B002AF7860FFF70CFD40
:100F5000394B1B680133384A1360384B1B68002B30
:100F600009D1364A7B681360334B1B68012B10D1C3
:100F700000F096FA0DE0324B1B68002B09D12F4B85
:100F80001B68DA6A7B68DB6A9A4202D82B4A7B6864
:100F900013602C4B1B6801332A4A13607B68002BBB
:100FA00016D07B68184601F05DFB78687B6803F11A
:100FB00034017B68DA6A7B681B6B1D467B681B68A3
:100FC0001C467B681B6BE31A00932B4600F07CFBEE
:100FD0007B68184601F0CEFB7B68DB6A01229A40F1
:100FE000194B1B681343184A13607B68DA6A13466F
:100FF0009B0013449B00154A1A447B68043319462E
:101000001046FFF7A3FBFFF7C7FC0D4B1B68002B37
:101010000ED00A4B1B68DA6A7B68DB6A9A4207D2F9
:101020000B4B4FF080521A60BFF34F8FBFF36F8F9F
:1010300000BF0837BD46B0BD90390020B838002049
:101040009C390020AC39002098390020BC380020A1
:1010500004ED00E080B584B000AF78600023FB6051
:101060007B68002B0CD000F063F87968232000F037
:101070002BFF0021786800F0AFFA00F067F8F86005
:10108000FB68002B07D1064B4FF080521A60BFF36C
:101090004F8FBFF36F8F00BF1037BD4680BD00BFBD
:1010A00004ED00E080B584B002AF1A4B0193002339
:1010B00000930023802218491848FFF783FE7860C8
:1010C0007B68012B22D14FF0BF0383F31188BFF35C
:1010D0006F8FBFF34F8F3B60114B4FF0FF321A60A1
:1010E000104B01221A60104B00221A600F4B1A6835
:1010F000084B1B689A4202D101F098FA04E00B4BAE
:101100001B68184601F0F2FAFFF70EFC00BF083723
:10111000BD4680BDB439002038380008711400087D
:10112000B03900209C39002094390020B8380020C4
:1011300080B400AF044B1B680133034A136000BF47
:10114000BD4680BC704700BFB839002080B584B070
:1011500000AF0023FB600023BB60FFF705FC3B4BA7
:101160001B68013B394A1360384B1B68002B65D163
:10117000374B1B68002B61D032E0364BDB68DB68F5
:10118000FB60FB6818331846FFF73BFBFB68043332
:101190001846FFF736FBFB68184601F0EBFAFB68D0
:1011A000DB6A01229A402C4B1B6813432A4A1360C6
:1011B000FB68DA6A13469B0013449B00274A1A44D3
:1011C000FB68043319461046FFF7C0FAFB68DA6A79
:1011D000234B1B68DB6A9A4202D3224B01221A601E
:1011E0001C4B1B68002BC8D1FB68002B01D000F002
:1011F000D3F91D4B1B687B607B68002B10D000F07F
:1012000037F80346002B02D0164B01221A607B6888
:10121000013B7B607B68002BF1D1134B00221A60ED
:10122000104B1B68002B09D00123BB600F4B4FF004
:1012300080521A60BFF34F8FBFF36F8FFFF7ACFB85
:10124000BB6818461037BD4680BD00BFB8390020C6
:10125000903900205039002098390020BC380020F7
:10126000B8380020A4390020A039002004ED00E0A7
:1012700080B586B000AF00237B61484B1B68002B14
:1012800040F08280464B1B6801333B61444A3B6916
:1012900013603B69002B10D1424B1B68FB60424B33
:1012A0001B68404A1360404AFB6813603F4B1B6851
:1012B00001333E4A136000F06FF93D4B1B683A69F9
:1012C0009A424CD3374B1B681B68002B04D1384B18
:1012D0004FF0FF321A6042E0324B1B68DB68DB687C
:1012E000BB60BB685B687B603A697B689A4203D2EB
:1012F0002F4A7B68136032E0BB6804331846FFF75F
:1013000080FABB689B6A002B04D0BB681833184670
:10131000FFF777FABB68184601F02CFABB68DB6A66
:1013200001229A40234B1B681343224A1360BB6877
:10133000DA6A13469B0013449B001F4A1A44BB6899
:10134000043319461046FFF701FABB68DA6A1B4BF3
:101350001B68DB6A9A42B5D301237B61B2E7174B66
:101360001B68DA6A144913469B0013449B000B4424
:101370001B68012B01D901237B61114B1B68002BDA
:1013800007D001237B6104E00E4B1B6801330D4A3B
:1013900013607B6918461837BD4680BDB8390020F8
:1013A00094390020483900204C390020A839002009
:1013B000B039002098390020BC380020B83800200F
:1013C000A4390020A039002080B584B000AF224BA2
:1013D0001B68002B03D0214B01221A6038E01F4B01
:1013E00000221A601E4B1B687B607B68B3FA83F394
:1013F000FB70FB78C3F11F03FB60FA6813469B0088
:1014000013449B00174A1344BB60BB685B685A686F
:10141000BB685A60BB685A68BB6808339A4204D1FB
:10142000BB685B685A68BB685A60BB685B68DB680E
:101430000D4A13600C4B1A680C4B1B689A4202D180
:1014400001F0F4F804E0084B1B68184601F04EF96F
:1014500000BF1037BD4680BDB8390020A439002038
:1014600098390020BC380020B8380020B43900205A
:1014700080B582B000AF786000F052F8064B1B6870
:10148000012BF9D9054B4FF080521A60BFF34F8FF3
:10149000BFF36F8FF0E700BFBC38002004ED00E021
:1014A00080B582B000AF00237B600CE07A68134601
:1014B0009B0013449B00124A13441846FFF71BF984
:1014C0007B6801337B607B68042BEFD90D48FFF705
:1014D00012F90D48FFF70FF90C48FFF70CF90C480B
:1014E000FFF709F90B48FFF706F90B4B054A1A609D
:1014F0000A4B054A1A6000BF0837BD4680BD00BFD1
:10150000BC38002020390020343900205039002018
:10151000643900207C390020483900204C390020F3
:1015200080B582B000AF19E0FFF71EFA0F4BDB6801
:10153000DB687B607B6804331846FFF762F90C4B6D
:101540001B68013B0A4A13600A4B1B68013B094AAE
:101550001360FFF721FA786800F00EF8054B1B685E
:10156000002BE1D100BF0837BD4680BD64390020A3
:10157000903900207839002080B582B000AF7860C3
:101580007B681B6B1846FFF723FB7868FFF720FB8F
:1015900000BF0837BD4680BD80B483B000AF0C4BA0
:1015A0001B681B68002B04D10A4B4FF0FF321A60F6
:1015B00008E0074B1B68DB68DB687B607B685B6867
:1015C000044A136000BF0C37BD4680BC704700BFA3
:1015D00048390020B039002080B584B000AF786071
:1015E0003960324B1B68FB60314B1B680433184673
:1015F000FFF707F90346002B0BD12D4B1B68DB6A65
:10160000012202FA03F3DA432A4B1B681340294AEA
:1016100013607B68B3F1FF3F10D13B68002B0DD006
:10162000234B1B681B21184601F0E8F8204B1B6870
:10163000043319462048FFF789F832E0FA687B68DE
:101640001344BB601A4B1B68BA685A60BA68FB68DF
:101650009A420FD2164B1B680421184601F0CEF8AF
:10166000164B1A68124B1B68043319461046FFF7D5
:1016700090F816E00E4B1B680421184601F0BEF8E6
:101680000F4B1A680A4B1B68043319461046FFF7C4
:1016900080F80C4B1B68BA689A4202D2094ABB68B0
:1016A000136000BF1037BD4680BD00BF94390020D5
:1016B000B8380020983900207C3900204C390020AF
:1016C00048390020B039002080B586B002AFF860FC
:1016D000B9607A603B6005222B49B86801F05EFC76
:1016E0000346002B4BD0294B1B68072B03D92848F6
:1016F00001F0C0F944E0254B1A68264913469B00C7
:1017000013449B000B44FA681A60204B1A68214965
:1017100013469B0013449B000B440433BA681A60C1
:101720001A4B1A681B4913469B0013449B000B4439
:1017300008337A681A60154B1A68164913469B00DD
:1017400013449B000B440C333A681A600F4B1A6821
:10175000104913469B0013449B000B441033BA6995
:101760001A600A4B1B680133084A1360BB69009377
:101770003B687A68B968F86800F00EF800E000BFCE
:101780001037BD4680BD00BF403800085C3A0020DD
:1017900048380008BC39002080B58AB000AFF86036
:1017A000B9607A603B6007F11403142200211846E7
:1017B00001F00EFCFB687B61BB68BB617B68FB6171
:1017C0003B683B623B6B7B6207F11403184600F0F9
:1017D0008DFD00BF2837BD4680BD000080B483B0BA
:1017E00000AF214B7B607B6803221A617B68032278
:1017F0005A617B681D4A9A617B681D4ADA617B6881
:101800004FF480621A627B6800229A627B68002231
:101810005A627B680022DA627B68144A1A667B6827
:10182000144A5A667B6810229A667B6800221A67FF
:101830007B680022DA667B6800225A677B68073380
:101840000D4A106818607B680C4A1068186091880F
:10185000927999809A717B6820229A7100BF0C3727
:10186000BD4680BC704700BF983F002098380008F4
:10187000603A0020603E0020A4380008A838000824
:1018800080B58AB000AFF860B9607A603C4B1B78D5
:10189000002B01D1FFF7A2FFFA6813465B00134447
:1018A000DB006033364A1344BB61BB68FB61BB6934
:1018B0001B693B62BB69DB687B6100237B623A6A20
:1018C0007B699A422AD9BB699A683B6AD31A3B6101
:1018D0003A697B68934228BF13463B61BB695A68EB
:1018E0003B6A13443A691946F86901F066FB7A6A63
:1018F0003B6913447B62FA693B691344FB617A6874
:101900003B69D31A7B603A6A3B6913443B62BB690B
:101910009A683B6A9A4201D100233B627A693B6A2A
:10192000D31A3B613A697B68934228BF13463B61F7
:101930003B69002B18D0BB695A683B6A13443A696B
:101940001946F86901F039FB7A6A3B6913447B62F6
:10195000FA693B691344FB617A683B69D31A7B607F
:101960003A6A3B6913443B627B6A002B02D0BB6935
:101970003A6A1A617B6A18462837BD4680BD00BFA7
:10198000983F002080B58AB000AFF860B9607A60F7
:10199000BB687B62FB685A1C13465B001344DB0088
:1019A0003F4A13443B623B6A1B69FB613B6ADB684D
:1019B000BB61FA69BB699A4254D83B6A9A68BB69B1
:1019C000D31A013B7B617A697B689A420FD33B6AE9
:1019D0005A68BB6913447A68796A184601F0EDFACF
:1019E000BA697B681A443B6ADA60012354E07A6979
:1019F000FB6913447B617A697B689A424BD33B6AEB
:101A00009A68BB69D31A3B613A697B689A420ED9DE
:101A10003B6A5A68BB6913447A68796A184601F0D0
:101A2000CCFABA697B681A443B6ADA6018E03B6A10
:101A30005A68BB6913443A69796A184601F0BDFADD
:101A40003B6A58687A6A3B69D1187A683B69D31A4D
:101A50001A4601F0B2FA7A683B69D21A3B6ADA6038
:101A6000012319E0FA69BB69D31A013B7B617A69EA
:101A70007B689A420FD33B6A5A68BB6913447A6801
:101A8000796A184601F099FABA697B681A443B6A88
:101A9000DA60012300E0002318462837BD4680BDE8
:101AA000983F002080B487B000AFF860B9607A60DA
:101AB00000233B6102E03B6901333B61BA683B694B
:101AC00013441B78002BF6D13A697B689A4201D9FE
:101AD0007B683B613B69FE2B06D8FB685A1CFA60A9
:101AE0003A69D2B21A7011E0FB685A1CFA60FF2200
:101AF0001A70FB685A1CFA603A69D2B21A70FB6815
:101B00005A1CFA603A69120AD2B21A7000237B6139
:101B10000AE0FB685A1CFA60BA68511CB960127876
:101B20001A707B6901337B617A693B699A42F0D311
:101B3000FB6818461C37BD4680BC704780B483B034
:101B400000AF78607B68043318460C37BD4680BC14
:101B5000704780B582B000AFFB1C012219460120FE
:101B6000FFF78EFE03467B607B68002B47DDFB782A
:101B7000042B1AD0042B06DC022B10D0022B11DC14
:101B8000012B09D02DE0062B15D0062B10DB072BDF
:101B900014D0802B15D024E000F02CFA2FE000F0B8
:101BA000E5FA2CE000F09CFC29E000F085FC26E042
:101BB00000F002FB23E000F01FFF20E000F0FEFE3B
:101BC0001DE0FB1C012219460120FFF759FE0346C8
:101BD0007B607B68002B0FDDFB78184600F06EFE03
:101BE0000AE0FB785BB2002B08DAFB1C01221946E5
:101BF0000120FFF745FE01E000BF00E000BF00BF8D
:101C00000837BD4680BD000080B58CB000AF012311
:101C10003B713B1D0133FB61FB69FB62304B5B6930
:101C2000BB620BE0FB6A5A1CFA62BA6AD2B262F07B
:101C30007F02D2B21A70BB6ADB09BB62BB6A7F2B20
:101C4000F0D8FB6A5A1CFA62BA6AD2B21A70FB6AFE
:101C5000FB61244B1B68BB61214BDB68BA69D31A5B
:101C60007B61FB697B627B693B620BE07B6A5A1C90
:101C70007A623A6AD2B262F07F02D2B21A703B6ADA
:101C8000DB093B623B6A7F2BF0D87B6A5A1C7A6285
:101C90003A6AD2B21A707B6AFB61FA693B1DD31AA9
:101CA0001A463B1D19460120FFF76CFE03463B61B7
:101CB0003B69002B09D00A4ABB69D360084B1B78EB
:101CC000013BDAB2064B1A7004E0054B5B69013345
:101CD000034A53613B6918463037BD4680BD00BF9B
:101CE000703E0020041000E080B58AB000AFF860BC
:101CF000B9607A60624B1B78012B10D0604B1B7867
:101D0000002B00F09F805E4B1B78022B08D1FFF761
:101D10007BFF5B4B1B78012B40F0968000E000BFFF
:101D20007B681F2B09D8564BDA697B6822FA03F3CC
:101D300003F00103002B40F089807B68172B07D844
:101D4000FB68013BFB607B68DAB2FB681A703DE020
:101D5000BA68FB68D31AFB61FB697F2B12D9FB6859
:101D6000013BFB60FB69DB09DAB2FB681A70FB68B8
:101D7000013BFB60FB69DBB263F07F03DAB2FB6817
:101D80001A7006E0FB68013BFB60FB69DAB2FB6896
:101D90001A707B687F2B12D9FB68013BFB607B6864
:101DA000DB09DAB2FB681A70FB68013BFB607B68F9
:101DB000DBB263F07F03DAB2FB681A7006E0FB68FF
:101DC000013BFB607B68DAB2FB681A702D4B1B6825
:101DD000BB612B4BDB68BA69D31A7B61BB687B6242
:101DE0007B693B620BE07B6A5A1C7A623A6AD2B228
:101DF00062F07F02D2B21A703B6ADB093B623B6A37
:101E00007F2BF0D87B6A5A1C7A623A6AD2B21A7077
:101E10007B6ABB60BA68FB68D31A1A46F96801206E
:101E2000FFF7B0FD03463B613B69002B03D0144A2A
:101E3000BB69D3600BE0124B1B780133DAB2104B55
:101E40001A7004E000BF02E000BF00E000BF0E4BCC
:101E5000D3F884200C4BD3F888309A420BD0084B2F
:101E60009B78002B07D1064B01229A70FFF771FE79
:101E7000034B00229A7000BF2837BD4680BD00BFCB
:101E8000703E0020041000E0983F002080B584B030
:101E900000AF7860EFF311834FF0200181F31188D8
:101EA000FB600848FFF74AFEB8607A68B968B8680E
:101EB000FFF71AFFFB6883F3118800BF1037BD4698
:101EC00080BD00BFA03E002080B588B000AF786024
:101ED0003960EFF311834FF0200181F311887B61AA
:101EE0001648FFF72BFE38613B69FB60FB68FB611E
:101EF0003B68BB610BE0FB695A1CFA61BA69D2B25C
:101F000062F07F02D2B21A70BB69DB09BB61BB69A8
:101F10007F2BF0D8FB695A1CFA61BA69D2B21A70E9
:101F2000FB69FB607A68F9683869FFF7DDFE7B6959
:101F300083F3118800BF2037BD4680BDA03E00203E
:101F400080B58CB000AFF860B9607A60EFF31183B0
:101F50004FF0200181F31188FB612548FFF7EEFD6A
:101F6000B861BB697B617B69FB62BB68BB620BE0EC
:101F7000FB6A5A1CFA62BA6AD2B262F07F02D2B22B
:101F80001A70BB6ADB09BB62BB6A7F2BF0D8FB6AA5
:101F90005A1CFA62BA6AD2B21A70FB6A7B617B6918
:101FA0007B627B683B620BE07B6A5A1C7A623A6A0E
:101FB000D2B262F07F02D2B21A703B6ADB093B6296
:101FC0003B6A7F2BF0D87B6A5A1C7A623A6AD2B29B
:101FD0001A707B6A7B61FA687969B869FFF784FED9
:101FE000FB6983F3118800BF3037BD4680BD00BF59
:101FF000A03E002080B58CB000AF594B1B78002B61
:1020000040F0AA80564B01221A70EFF311834FF073
:10201000200181F31188FB600A2252490120FFF759
:10202000B1FCFB6883F311880A20FFF72FFFEFF361
:1020300011834FF0200181F31188BB604A48FFF7FC
:102040007DFD78607B683B603B68FB62444B5B686E
:10205000BB620BE0FB6A5A1CFA62BA6AD2B262F047
:102060007F02D2B21A70BB6ADB09BB62BB6A7F2BEC
:10207000F0D8FB6A5A1CFA62BA6AD2B21A70FB6ACA
:102080003B603B687B62364B9B683B620BE07B6A44
:102090005A1C7A623A6AD2B262F07F02D2B21A70E5
:1020A0003B6ADB093B623B6A7F2BF0D87B6A5A1C98
:1020B0007A623A6AD2B21A707B6A3B603B68FB6113
:1020C000274B1B69BB610BE0FB695A1CFA61BA69BB
:1020D000D2B262F07F02D2B21A70BB69DB09BB6177
:1020E000BB697F2BF0D8FB695A1CFA61BA69D2B27E
:1020F0001A70FB693B603B687B6102233B610BE02C
:102100007B695A1C7A613A69D2B262F07F02D2B21C
:102110001A703B69DB093B613B697F2BF0D87B6917
:102120005A1C7A613A69D2B21A707B693B601822F4
:1021300039687868FFF7D8FDBB6883F31188084BCE
:102140005B6A002B02D0064B5B6A984700F0C8F927
:1021500000F0B2F900F050FC00BF3037BD4680BD42
:10216000703E0020FC380008A03E002080B582B000
:1021700000AFEFF311834FF0200181F311887B60F2
:102180000B48FFF7DBFC38600A4B1B78002B07D0AD
:102190000B2239683868FFF7A7FD064B00221A703A
:1021A0007B6883F3118800BF0837BD4680BD00BF40
:1021B000A03E0020703E002080B58CB000AFEFF351
:1021C00011834FF0200181F31188FB604548FFF730
:1021D000B5FCB860BB687B607B68FB62424B5B68A8
:1021E000BB620BE0FB6A5A1CFA62BA6AD2B262F0B6
:1021F0007F02D2B21A70BB6ADB09BB62BB6A7F2B5B
:10220000F0D8FB6A5A1CFA62BA6AD2B21A70FB6A38
:102210007B607B687B62344B9B683B620BE07B6A34
:102220005A1C7A623A6AD2B262F07F02D2B21A7053
:102230003B6ADB093B623B6A7F2BF0D87B6A5A1C06
:102240007A623A6AD2B21A707B6A7B607B68FB6101
:10225000254B1B69BB610BE0FB695A1CFA61BA692B
:10226000D2B262F07F02D2B21A70BB69DB09BB61E5
:10227000BB697F2BF0D8FB695A1CFA61BA69D2B2EC
:102280001A70FB697B607B687B6102233B610BE01A
:102290007B695A1C7A613A69D2B262F07F02D2B28B
:1022A0001A703B69DB093B613B697F2BF0D87B6986
:1022B0005A1C7A613A69D2B21A707B697B60182223
:1022C0007968B868FFF710FDFB6883F31188064B47
:1022D0005B6A002B02D0044B5B6A984700BF303723
:1022E000BD4680BDA03E0020703E002080B592B06B
:1022F00000AF7860EFF311834FF0200181F3118874
:102300007B616B48FFF71AFC38613B69FB60FB6837
:102310007B647B681A68674B1B69D31A9B083B6414
:102320000BE07B6C5A1C7A643A6CD2B262F07F028A
:10233000D2B21A703B6CDB093B643B6C7F2BF0D84C
:102340007B6C5A1C7A643A6CD2B21A707B6CFB605C
:10235000FB68FB637B689B68BB630BE0FB6B5A1CF1
:10236000FA63BA6BD2B262F07F02D2B21A70BB6B60
:10237000DB09BB63BB6B7F2BF0D8FB6B5A1CFA638A
:10238000BA6BD2B21A70FB6BFB607B685B68202271
:102390001946F868FFF786FBF8600922F968386982
:1023A000FFF7A2FC3B69FB60FB687B637B681A68F4
:1023B000404B1B69D31A9B083B630BE07B6B5A1C99
:1023C0007A633A6BD2B262F07F02D2B21A703B6B80
:1023D000DB093B633B6B7F2BF0D87B6B5A1C7A632A
:1023E0003A6BD2B21A707B6BFB60FB68FB627B6856
:1023F000DB68BB620BE0FB6A5A1CFA62BA6AD2B2B3
:1024000062F07F02D2B21A70BB6ADB09BB62BB6AA0
:102410007F2BF0D8FB6A5A1CFA62BA6AD2B21A70E1
:10242000FB6AFB60FB687B627B681B693B620BE0BD
:102430007B6A5A1C7A623A6AD2B262F07F02D2B2E6
:102440001A703B6ADB093B623B6A7F2BF0D87B6AE0
:102450005A1C7A623A6AD2B21A707B6AFB60FB68D5
:10246000FB610023BB610BE0FB695A1CFA61BA698E
:10247000D2B262F07F02D2B21A70BB69DB09BB61D3
:10248000BB697F2BF0D8FB695A1CFA61BA69D2B2DA
:102490001A70FB69FB601522F9683869FFF724FCA4
:1024A0007B6983F3118800BF4837BD4680BD00BFFC
:1024B000A03E0020703E002080B500AF074B1B6A95
:1024C000002B08D0054B1B6A5B68002B03D0034B25
:1024D0001B6A5B68984700BF80BD00BF703E00204C
:1024E000F0B583B000AF124B1B6A002B15D0104B18
:1024F0001B6A1B68002B10D00D4B1B6A1B6898478A
:10250000C7E90001396897E81800250000262B4626
:102510001A460D20FFF714FD05E0064B1B6819460F
:102520000C20FFF7D1FC00BF0C37BD46F0BD00BF4B
:10253000703E0020041000E080B586B000AFEFF3DD
:1025400011834FF0200181F31188FB601948FFF7D8
:10255000F5FAB860BB687B60174B1B68C3F30803D0
:102560003B607B687B613B683B610BE07B695A1C8D
:102570007A613A69D2B262F07F02D2B21A703B69D4
:10258000DB093B613B697F2BF0D87B695A1C7A6180
:102590003A69D2B21A707B697B6002227968B868A6
:1025A000FFF7A2FBFB6883F3118800BF1837BD4615
:1025B00080BD00BFA03E002004ED00E080B582B0E9
:1025C00000AFEFF311834FF0200181F311887B609E
:1025D0000748FFF7B3FA3860032239683868FFF715
:1025E00083FB7B6883F3118800BF0837BD4680BD3D
:1025F000A03E002080B582B000AFEFF311834FF012
:10260000200181F311887B600748FFF797FA386053
:10261000122239683868FFF767FB7B6883F31188FB
:1026200000BF0837BD4680BDA03E002080B582B007
:1026300000AFEFF311834FF0200181F311887B602D
:102640000748FFF77BFA3860112239683868FFF7CE
:102650004BFB7B6883F3118800BF0837BD4680BD04
:10266000A03E002080B588B000AF7860EFF3118302
:102670004FF0200181F311887B611A48FFF75EFA61
:1026800038613B69FB60184B1B697A68D31A9B0859
:102690007B60FB68FB617B68BB610BE0FB695A1CDC
:1026A000FA61BA69D2B262F07F02D2B21A70BB6923
:1026B000DB09BB61BB697F2BF0D8FB695A1CFA614F
:1026C000BA69D2B21A70FB69FB600822F9683869EE
:1026D000FFF70AFB7B6983F3118800BF2037BD46F3
:1026E00080BD00BFA03E0020703E002080B588B0B5
:1026F00000AF7860EFF311834FF0200181F3118870
:102700007B611A48FFF71AFA38613B69FB60184B86
:102710001B697A68D31A9B087B60FB68FB617B6846
:10272000BB610BE0FB695A1CFA61BA69D2B262F074
:102730007F02D2B21A70BB69DB09BB61BB697F2B18
:10274000F0D8FB695A1CFA61BA69D2B21A70FB69F7
:10275000FB600422F9683869FFF7C6FA7B6983F3E6
:10276000118800BF2037BD4680BD00BFA03E0020BD
:10277000703E002080B588B000AF7860EFF3118321
:102780004FF0200181F311887B611A48FFF7D6F9D9
:1027900038613B69FB60184B1B697A68D31A9B0848
:1027A0007B60FB68FB617B68BB610BE0FB695A1CCB
:1027B000FA61BA69D2B262F07F02D2B21A70BB6912
:1027C000DB09BB61BB697F2BF0D8FB695A1CFA613E
:1027D000BA69D2B21A70FB69FB600622F9683869DF
:1027E000FFF782FA7B6983F3118800BF2037BD466B
:1027F00080BD00BFA03E0020703E002080B58AB0A2
:1028000000AF78603960EFF311834FF0200181F35E
:1028100011887B612748FFF791F938613B69FB60BC
:10282000254B1B697A68D31A9B087B60FB687B6227
:102830007B683B620BE07B6A5A1C7A623A6AD2B2CE
:1028400062F07F02D2B21A703B6ADB093B623B6ADC
:102850007F2BF0D87B6A5A1C7A623A6AD2B21A701D
:102860007B6AFB60FB68FB613B68BB610BE0FB695B
:102870005A1CFA61BA69D2B262F07F02D2B21A70FF
:10288000BB69DB09BB61BB697F2BF0D8FB695A1CB4
:10289000FA61BA69D2B21A70FB69FB600722F96863
:1028A0003869FFF721FA7B6983F3118800BF283765
:1028B000BD4680BDA03E0020703E002080B58CB09B
:1028C00000AF0346FB713B4B1B68002B6DD0394BAF
:1028D0001B68FB620023BB6208E0FB6A1B69FB62AA
:1028E000FB6A002B07D0BB6A0133BB62FA79BB6A73
:1028F0009A42F2D800E000BFFB6A002B55D0EFF3FC
:1029000011834FF0200181F311887B612A48FFF782
:1029100015F938613B69FB60FB687B62FB793B62C0
:102920000BE07B6A5A1C7A623A6AD2B262F07F028A
:10293000D2B21A703B6ADB093B623B6A7F2BF0D84C
:102940007B6A5A1C7A623A6AD2B21A707B6AFB605E
:10295000FB68FB61FB6A9B68BB610BE0FB695A1C6F
:10296000FA61BA69D2B262F07F02D2B21A70BB6960
:10297000DB09BB61BB697F2BF0D8FB695A1CFA618C
:10298000BA69D2B21A70FB69FB60FB6A1B688022CD
:102990001946F868FFF786F8F8601622F968386972
:1029A000FFF7A2F97B6983F3118800BF3037BD467A
:1029B00080BD00BF983E0020A03E002080B582B0C0
:1029C00000AF0C4B1B68002B0FD00A4B1B687B60C1
:1029D0007B68DB68002B02D07B68DB6898477B68EC
:1029E0001B697B607B68002BF2D100BF0837BD46B6
:1029F00080BD00BF983E002080B586B000AFEFF3E9
:102A000011834FF0200181F31188FB601748FFF715
:102A100095F8B860BB687B607B687B61144B1B7862
:102A20003B610BE07B695A1C7A613A69D2B262F071
:102A30007F02D2B21A703B69DB093B613B697F2B95
:102A4000F0D87B695A1C7A613A69D2B21A707B69F4
:102A50007B601B227968B868FFF746F9FB6883F34F
:102A6000118800BF1837BD4680BD00BFA03E0020C2
:102A70009C3E002080B58AB000AF7860EFF31183F0
:102A80004FF0200181F311887B612748FFF756F84A
:102A90003861802279683869FFF704F8F860FB68CC
:102AA0007B6201233B620BE07B6A5A1C7A623A6AC2
:102AB000D2B262F07F02D2B21A703B6ADB093B628B
:102AC0003B6A7F2BF0D87B6A5A1C7A623A6AD2B290
:102AD0001A707B6AFB60FB68FB610023BB610BE043
:102AE000FB695A1CFA61BA69D2B262F07F02D2B2B3
:102AF0001A70BB69DB09BB61BB697F2BF0D8FB692E
:102B00005A1CFA61BA69D2B21A70FB69FB601A22C8
:102B1000F9683869FFF7E8F87B6983F3118800BF2B
:102B20002837BD4680BD00BFA03E002080B582B0E2
:102B300002AF4FF44070FDF713FB00F059F80E4858
:102B400000F05EF80D4B01930223009300234FF435
:102B500096720B490B48FEF735F90B4B0193032393
:102B6000009300234FF4967208490948FEF72AF9AA
:102B7000FEF798FAFEE700BFB0380008843F002057
:102B8000D0380008952B0008883F0020D83800086E
:102B9000D12B000880B582B000AF78604FF40051AF
:102BA0000848FDF7ABFB03461A460749074800F003
:102BB00017FA064800F024F84FF47A70FEF74AFA44
:102BC000ECE700BF00100140E03800084040002062
:102BD00080B582B000AF78604FF400510348FDF734
:102BE000A6FB4FF47A70FEF735FAF5E700100140C6
:102BF00080B500AF00F06CF800F02AF800BF80BD8F
:102C000080B584B000AF78600023FB6013E000BFA4
:102C100080210E48FDF754FD0346012BF8D17A6858
:102C2000FB6813441B789BB219460848FDF737FD33
:102C3000FB680133FB607868FDF78AFA0246FB689F
:102C40009A42E4D800BF1037BD4680BD003801402D
:102C500080B586B000AF012144F20500FDF728FCE5
:102C60004FF40073BB800323BB711823FB713B1D22
:102C700019461548FDF786FA4FF48063BB8003239D
:102C8000BB710423FB713B1D19460F48FDF77AFA0F
:102C900001210E48FDF7E4FC4FF41653BB600023FE
:102CA000BB810023FB8100233B820C237B8200231A
:102CB000BB8207F1080319460448FDF717FC00BF63
:102CC0001837BD4680BD00BF0008014000380140F4
:102CD00080B582B000AF01210420FDF7E9FB01219E
:102CE0001020FDF7E5FB1023FB714FF40053BB8070
:102CF0000223BB713B1D19460848FDF743FA282300
:102D0000FB7020233B800223BB703B4619460448DE
:102D1000FDF738FA00BF0837BD4680BD00100140FE
:102D200000080140DFF834D0002103E00C4B5B5871
:102D3000435004310B480C4B42189A42F6D30B4ACD
:102D400002E0002342F8043B094B9A42F9D300F019
:102D500047F800F0FFF8FFF7E9FE70470050002049
:102D600044390008000000207C0000207C00002086
:102D70000C410020FEE7000080B485B000AF786011
:102D8000134A144B1344FB60134B1B68002B02D1F6
:102D9000114B0F4A1A60104B1B68BB600E4B1A6830
:102DA0007B681A44FB689A4205D90C4B0C221A60C6
:102DB0004FF0FF3306E0084B1A687B681344064A5D
:102DC0001360BB6818461437BD4680BC704700BF0F
:102DD0000C410020000000008C3F00200841002032
:102DE00080B500AF154A154B1B6843F00103136013
:102DF0001249124B5A68124B13404B600F4A0F4B4B
:102E00001B6823F0847323F4803313600B4A0B4B4D
:102E10001B6823F480231360084A084B5B6823F483
:102E2000FE035360054B4FF41F029A6000F00CF84C
:102E3000044B4FF000629A6000BF80BD001002405A
:102E40000000FFF800ED00E080B500AF00F002F8F0
:102E500000BF80BD80B483B000AF00237B6000233F
:102E60003B603A4A394B1B6843F480331360374B5D
:102E70001B6803F400333B607B6801337B603B6875
:102E8000002B03D17B68B3F5A06FF0D12F4B1B68EB
:102E900003F40033002B02D001233B6001E0002348
:102EA0003B603B68012B4BD1294A294B1B6843F0FF
:102EB00010031360264A264B1B6823F0030313609C
:102EC000234A234B1B6843F0020313601F4A1F4B26
:102ED0005B6853601D4A1D4B5B6853601B4A1B4B6C
:102EE0005B6843F480635360184A184B5B6823F4B3
:102EF0007C135360154A154B5B6843F4E813536029
:102F0000124A124B1B6843F08073136000BF0F4BD3
:102F10001B6803F00073002BF9D00C4A0B4B5B6865
:102F200023F003035360094A084B5B6843F0020334
:102F3000536000BF054B5B6803F00C03082BF9D10D
:102F400000BF0C37BD4680BC704700BF0010024078
:102F50000020024070B500250C4E0D4CA41BA4109F
:102F6000A54209D100F05CFC00250A4E0A4CA41BC6
:102F7000A410A54205D170BD56F8253098470135FB
:102F8000EEE756F8253098470135F2E73C3900085E
:102F90003C3900083C3900084039000810B50139B7
:102FA0000244904201D1002010BD10F8013B11F8FD
:102FB000014FA342F5D0181B10BD10B5431E0A44A3
:102FC000914200D110BD11F8014B03F8014FF7E712
:102FD00003460244934200D1704703F8011BF9E70E
:102FE0000EB44FF4027100B59CB0ADF814106FF040
:102FF0000041049107914FF6FF711DAB02900690BE
:10300000084853F8042BADF81610006802A9019384
:1030100000F010F90022029B1A701CB05DF804EB5E
:1030200003B070471800002038B50546002943D08A
:1030300051F8043C0C1F002BB8BFE41800F0BEFB95
:103040001E4A1368104633B9636014602846BDE811
:10305000384000F0B4BBA3420BD9216862189342F8
:1030600001BF1A685B685218226063600460EDE774
:1030700013465A680AB1A242FAD919685818A042F0
:103080000BD120680144581882421960DED11068C3
:103090005268014419605A60D8E702D90C232B60AA
:1030A000D4E7206821188A4201BF116852680918C4
:1030B000216062605C60C9E738BD00BF903F0020BE
:1030C00070B5CD1C25F0030508350C2D38BF0C2537
:1030D000002D064601DBA94203D90C2333600020F2
:1030E00070BD00F06BFB234A1468214691B9224C55
:1030F00023681BB9304600F029FB20602946304682
:1031000000F024FB431C26D10C233046336000F032
:1031100056FBE4E70B685B1B1AD40B2B0FD90B6033
:10312000CC18CD50304600F04AFB04F10B00231DB3
:1031300020F00700C31A1BD05A42E25070BD8C42E7
:103140000BBF63684B681360636018BF0C46E9E708
:103150000C464968CAE7C41C24F00304A04205D009
:10316000211A304600F0F2FA0130CDD02560D9E7BF
:1031700070BD00BF903F0020943F00202DE9F04734
:103180008E6882469E420C469146984635D88A897A
:1031900012F4906F31D00223256809696F1A6569AE
:1031A00005EB450595FBF3F508F101033B449D4212
:1031B00038BF1D46530531D52946FFF781FF064626
:1031C00050B90C23CAF80030A3894FF0FF3043F008
:1031D0004003A381BDE8F0873A462169FFF7EDFE81
:1031E000A38923F4906343F08003A38126613E44C6
:1031F000266046466561ED1BA560464528BF4646EC
:1032000049463246206800F0BFFAA36800209B1BA5
:10321000A36023681E442660BDE8F0872A4600F0BC
:10322000CFFA06460028E1D121695046FFF7FCFE9F
:10323000C7E700002DE9F04F9DB003938B898046CE
:103240001C060D4616460FD50B696BB94021FFF7DA
:1032500037FF2860286128B90C23C8F800304FF0E8
:10326000FF30C4E040236B610023099320238DF8D5
:10327000293030234FF0010B8DF82A3037463C4679
:1032800014F8013B002B3CD1B7EB060A0BD0534698
:10329000324629464046FFF771FF013000F0A28018
:1032A000099B534409933B78002B00F09B8000233B
:1032B0004FF0FF3204930793059206938DF8533035
:1032C0001A9305222178504800F050FA671C049B9D
:1032D000D8B9D90644BF20228DF853201A0744BF1D
:1032E0002B228DF8532022782A2A16D000210A207A
:1032F000079A27463B780134303B092B50D9C9B196
:1033000011E0252BC0D02746B9E73F4A3C46801A3A
:103310000BFA00F018430490D3E7039A111D1268CA
:103320000391002A01DB079204E0524243F00203BA
:10333000079204933B782E2B0DD17B78791C2A2B96
:1033400032D1039B02371A1D1B680392002BB8BFB2
:103350004FF0FF3305932D4C03223978204600F0BF
:1033600005FA38B14023001B03FA00F0049B013733
:10337000034304933978062225487E1C8DF82810D3
:1033800000F0F4F9002835D0224BFBB9039B07333A
:1033900023F0070308330393099B4B4409936DE71C
:1033A00000FB02320121A4E700230A2418460593FA
:1033B0000F463A780131303A092A03D9002BCAD096
:1033C0000590C8E704FB00200123F1E703AB00935D
:1033D0002A46114B04A94046AFF30080B0F1FF3FED
:1033E0008146D9D1AB895B063FF539AF09981DB04D
:1033F000BDE8F08F03AB00932A46074B04A9404673
:1034000000F084F8EAE700BF063900080C3900082C
:1034100010390008000000007D3100082DE9F04758
:1034200091461F468A680B6906469342B8BF134609
:10343000C9F8003091F843200C46DDF8208012B125
:103440000133C9F800302368990642BFD9F800302B
:103450000233C9F80030256815F0060507D104F1DC
:10346000190AE368D9F800209B1A9D422ADB94F8D8
:1034700043302268003318BF012392062FD404F191
:10348000430239463046C047013022D02368E56800
:1034900003F00603042B18BF0025D9F800204FF0D5
:1034A000000908BFAD1AA368226908BF25EAE575BF
:1034B0009342C4BF9B1AED181A344D451BD100200E
:1034C000BDE8F0870123524639463046C0470130F7
:1034D00003D14FF0FF30BDE8F0870135C1E7302060
:1034E000E11881F843005A1C94F845102244023335
:1034F00082F84310C3E70123224639463046C047CD
:103500000130E6D009F10109D7E700002DE9F043C9
:1035100017460A7E85B06E2A984606460C460C9BD6
:1035200001F1430E00F0BC801AD8632A2ED00AD8CD
:10353000002A00F0C880582A00F08A8004F1420571
:1035400084F842202AE0642A01D0692AF6D1216851
:103550001A6811F0800F23D0111D1960136827E03D
:10356000732A00F0B48008D86F2A2AD0702AE5D1D7
:103570000A6842F020020A6003E0752A21D0782A06
:10358000DCD178226F4984F8452064E01A6801F1A3
:103590004205111D1960136884F842300123A3E02D
:1035A00011F0400F02F104011960D7D0B2F90030D8
:1035B000002B03DA2D225B4284F8432062490A2261
:1035C00017E02068196810F0800F03D0081D1860FC
:1035D0000B6806E010F0400F01F104001860F7D00E
:1035E0000B886F2A14BF0A2208225749002084F84A
:1035F00043006568002DA560C0F29C80206820F023
:1036000004002060002B3FD1002D40F095807546CE
:10361000082A0BD12368DA0708D5236962689A4221
:10362000DEBF302305F8013C05F1FF35AEEB0503A5
:103630002361CDF800803B4603AA21463046FFF7C0
:10364000EDFE013055D14FF0FF3005B0BDE8F083FD
:1036500081F845203C492268186812F0800F00F17B
:1036600004051D6001D0036802E05506FBD5038800
:10367000D00744BF42F0200222601BB9226822F02A
:10368000200222601022B1E77546B3FBF2F002FB84
:103690001033CB5C05F8013D03460028F5D1B7E7B0
:1036A00008681A6810F0800F496904D0101D18606E
:1036B0001368196007E010F0400F02F10400186071
:1036C0001368F6D01980002375462361B1E71A68A4
:1036D000111D1960156800216268284600F046F83F
:1036E00008B1401B606063682361002384F84330A5
:1036F0009FE723692A4639463046C0470130A2D0A9
:1037000023689B0707D5002504F11909E368039A8C
:103710009B1A9D4205DBE068039B9842B8BF1846A0
:1037200093E701234A4639463046C04701308AD0E4
:103730000135EBE7002BA7D10B7804F1420584F8A3
:10374000423065E7283900081739000838B50023EA
:10375000054C054608462360FFF70EFB431C02D1CB
:10376000236803B12B6038BD0841002010B5C9B2F1
:1037700002449042034601D1002010BD1C78013064
:103780008C42F6D1184610BD884210B501EB0203F9
:1037900003D8421E99420CD110BD9842F9D281182B
:1037A000D21AD34200D110BD13F8014D01F8014DDA
:1037B000F7E711F8014B02F8014FEBE7704770474C
:1037C000F8B5074614460E4621B91146BDE8F84043
:1037D000FFF776BC22B9FFF727FC25462846F8BD3F
:1037E00000F014F884420FD921463846FFF768FCF0
:1037F00005460028F2D031462246FFF7DEFB31466F
:103800003846FFF711FCE9E73546E7E751F8040CC5
:103810000028A0F10400BCBF0B58C018704700007E
:10382000F8B500BFF8BC08BC9E467047F8B500BFAD
:08383000F8BC08BC9E4670477D
:1038380049444C450000000049444C450000000044
:1038480053595354454D564945573A20436F756C63
:1038580064206E6F74207265636F72642074617384
:103868006B20696E666F726D6174696F6E2E204D84
:103878006178696D756D206E756D626572206F6611
:10388800207461736B7320726561636865642E00D0
:103898005465726D696E616C0000000052545400EA
:1038A8005345474745520000546869732054617373
:1038B8006B20765461736B44656C61792050726F2C
:1038C8006A6563740D0A00005461736B2D31000042
:1038D8005461736B2D320000537461747573206FDB
:1038E8006620546865206C65642069733A202564F5
:1038F8000D0A000000000000000000000000232D59
:10390800302B2000686C4C006566674546470030E0
:10391800313233343536373839414243444546002D
:10392800303132333435363738396162636465662D
:04393800000000008B
:04393C003501000849
:043940001101000869
:103944000000000001020304010203040607080941
:1039540002040608AAAAAAAA1C000020000000006B
:103964000000000000000000000000000000000053
:103974000000000000000000000000000000000043
:103984000000000000000000000000000000000033
:103994000000000000000000000000000000000023
:1039A4000000000000000000000000000000000013
:0C39B40000000000000000000000000007
:0400000508002D259D
:00000001FF
