:020000040800F2
:10000000005000201122000861220008612200082F
:10001000612200086122000861220008000000003F
:10002000000000000000000000000000C1080008FF
:100030006122000800000000B1090008F909000869
:100040006122000861220008612200086122000884
:100050006122000861220008612200086122000874
:100060006122000861220008612200086122000864
:100070006122000861220008612200086122000854
:100080006122000861220008612200086122000844
:100090006122000861220008612200087D21000819
:1000A0006122000861220008612200086122000824
:1000B0006122000861220008612200086122000814
:1000C0006122000861220008612200086122000804
:1000D00061220008612200086122000861220008F4
:1000E000612200086122000861220008000000006F
:1000F0000000000000000000000000000000000000
:0C01000000000000000000005FF808F1A3
:1001100010B5054C237833B9044B13B10448AFF341
:1001200000800123237010BD180000200000000093
:100130003024000808B5034B1BB103490348AFF353
:10014000008008BD000000001C00002030240008D2
:10015000034613F8012B002AFBD1181A0138704707
:1001600080B483B000AF7860054A7B6843F0BF631A
:1001700043F40033D36000BF0C37BD4680BC7047EA
:1001800000ED00E080B489B000AF786039600023F2
:10019000FB6100233B610023BB610023FB60002364
:1001A0007B610023BB603B68DB7803F00F03FB61DE
:1001B0003B68DB7803F01003002B05D03B689B788D
:1001C0001A46FB691343FB613B681B88DBB2002BBB
:1001D00044D07B681B687B610023BB6138E001224F
:1001E000BB6902FA03F3FB603B681B881A46FB6895
:1001F00013403B613A69FB689A4226D1BB699B0078
:10020000FB600F22FB6802FA03F3BB60BB68DB43B1
:100210007A6913407B61FA69FB6802FA03F37A6931
:1002200013437B613B68DB78282B05D10122BB6936
:100230009A407B685A6108E03B68DB78482B04D120
:100240000122BB699A407B681A61BB690133BB61BB
:10025000BB69072BC3D97B687A691A603B681B8826
:10026000FF2B46D97B685B687B610023BB613AE06A
:10027000BB690833012202FA03F3FB603B681B8869
:100280001A46FB6813403B613A69FB689A4227D1E2
:10029000BB699B00FB600F22FB6802FA03F3BB60A3
:1002A000BB68DB437A6913407B61FA69FB6802FA39
:1002B00003F37A6913437B613B68DB78282B05D114
:1002C000BB69083301229A407B685A613B68DB783E
:1002D000482B05D1BB69083301229A407B681A611B
:1002E000BB690133BB61BB69072BC1D97B687A69E4
:1002F0005A6000BF2437BD4680BC704780B483B0CD
:1003000000AF78600B467B8013467B707B78002BB8
:1003100003D07A887B681A6102E07A887B685A6128
:1003200000BF0C37BD4680BC7047000080B487B06A
:1003300000AF786000237B6100233B610023FB60FA
:100340000023BB604C4B5B6803F00C037B617B6953
:10035000042B07D0082B09D0002B33D17B68474AE8
:100360001A6033E07B68454A1A602FE0424B5B68B5
:1003700003F470133B61404B5B6803F48033FB6014
:100380003B699B0C02333B61FB68002B06D13B6948
:100390003B4A02FB03F27B681A6017E0364B5B684E
:1003A00003F40033002B06D03B69354A02FB03F20D
:1003B0007B681A600AE03B69304A02FB03F27B6803
:1003C0001A6003E07B682D4A1A6000BF2A4B5B6805
:1003D00003F0F0037B617B691B097B61294A7B6920
:1003E00013441B78DBB2BB607B681A68BB68DA40D9
:1003F0007B685A60204B5B6803F4E0637B617B6938
:100400001B0A7B611F4A7B6913441B78DBB2BB600C
:100410007B685A68BB68DA407B689A60164B5B68F9
:1004200003F460537B617B69DB0A7B61154A7B695E
:1004300013441B78DBB2BB607B685A68BB68DA4048
:100440007B68DA600C4B5B6803F440437B617B693B
:100450009B0B7B610C4A7B6913441B78DBB2BB604E
:100460007B68DA68BB68B2FBF3F27B681A6100BF95
:100470001C37BD4680BC70470010024000127A0055
:1004800000093D00000000201000002080B483B06F
:1004900000AF78600B46FB70FB78002B06D0094953
:1004A000084B9A697B6813438B6106E00549054B4D
:1004B0009A697B68DB4313408B6100BF0C37BD46F4
:1004C00080BC70470010024080B58CB000AF7860EF
:1004D00039600023FB620023BB6200237B620023A0
:1004E0003B620023FB617B68FB617B681B8A9BB2DC
:1004F000FB62FA6A4CF6FF731340FB623B68DB88D1
:100500001A46FB6A1343FB62FB6A9AB27B681A8243
:100510007B689B899BB2FB62FA6A4EF6F313134029
:10052000FB623B689A883B681B8913439AB23B681D
:100530005B8913439BB21A46FB6A1343FB62FB6A57
:100540009AB27B689A817B689B8A9BB2FB62FA6A4B
:100550004FF6FF431340FB623B689B891A46FB6AD8
:100560001343FB62FB6A9AB27B689A8207F1080325
:100570001846FFF7DBFEFB692E4A934202D17B69E6
:10058000BB6201E03B69BB627B689B899BB21BB28B
:10059000002B0CDABA6A13469B0013449A001A44E3
:1005A0003B681B685B00B2FBF3F37B620BE0BA6A4B
:1005B00013469B0013449A001A443B681B689B0037
:1005C000B2FBF3F37B627B6A1B4AA2FB03235B094A
:1005D0001B01FB62FB6A1B09642202FB03F37A6ABC
:1005E000D31A3B627B689B899BB21BB2002B0CDA4F
:1005F0003B6ADB003233104AA2FB03235B0903F0A2
:100600000703FA6A1343FB620BE03B6A1B013233B8
:10061000094AA2FB03235B0903F00F03FA6A1343A1
:10062000FB62FB6A9AB27B681A8100BF3037BD4615
:1006300080BD00BF003801401F85EB5180B483B0FE
:1006400000AF78600B46FB70FB78002B08D07B680E
:100650009B899BB243F400539AB27B689A8107E06E
:100660007B689B899BB223F400539AB27B689A8182
:1006700000BF0C37BD4680BC704780B483B000AF6C
:1006800078600B467B807B88C3F308039AB27B6853
:100690009A8000BF0C37BD4680BC704780B485B0DF
:1006A00000AF78600B467B800023FB737B681B8860
:1006B0009AB27B8813409BB2002B02D00123FB73BC
:1006C00001E00023FB73FB7B18461437BD4680BC5A
:1006D000704780B483B000AF78607B6803F1080294
:1006E0007B685A607B684FF0FF329A607B6803F149
:1006F00008027B68DA607B6803F108027B681A6194
:100700007B6800221A6000BF0C37BD4680BC704772
:1007100080B483B000AF78607B6800221A6100BFAC
:100720000C37BD4680BC704780B485B000AF7860A0
:1007300039607B685B68FB603B68FA685A60FB68FD
:100740009A683B689A60FB689B683A685A60FB68E5
:100750003A689A603B687A681A617B681B685A1C21
:100760007B681A6000BF1437BD4680BC704780B4F8
:1007700085B000AF786039603B681B68BB60BB68C0
:10078000B3F1FF3F03D17B681B69FB600CE07B6822
:100790000833FB6002E0FB685B68FB60FB685B683A
:1007A0001A68BB689A42F6D9FB685A683B685A6077
:1007B0003B685B683A689A603B68FA689A60FB68D5
:1007C0003A685A603B687A681A617B681B685A1CF1
:1007D0007B681A6000BF1437BD4680BC704780B488
:1007E00085B000AF78607B681B69FB607B685B68E5
:1007F0007A6892689A607B689B687A6852685A60E7
:10080000FB685A687B689A4203D17B689A68FB68E8
:100810005A607B6800221A61FB681B685A1EFB68DD
:100820001A60FB681B6818461437BD4680BC7047C9
:1008300080B485B000AFF860B9607A60FB68043BB3
:10084000FB60FB684FF080721A60FB68043BFB6042
:10085000BB6823F00102FB681A60FB68043BFB6085
:10086000084AFB681A60FB68143BFB607A68FB6807
:100870001A60FB68203BFB60FB6818461437BD46D6
:1008800080BC70478908000880B483B000AF0023A3
:100890003B604FF0BF0383F31188BFF36F8FBFF34B
:1008A0004F8F7B6000BF3B68002BFCD000BF0C3734
:1008B000BD4680BC70470000000000000000000042
:1008C000074B19680868B0E8F00F80F30988BFF398
:1008D0006F8F4FF0000080F311884EF00D0E7047BF
:1008E0005438002000BF00BF06480068006880F34D
:1008F000088862B661B6BFF34F8FBFF36F8F00DF1A
:1009000000BF00BF08ED00E080B500AF0C4A0C4B03
:100910001B6843F47F031360094A094B1B6843F0CB
:100920007F43136000F088F8064B00221A60FFF73F
:10093000DBFF00F049FFFFF7A7FF0023184680BD4B
:1009400020ED00E01400002080B483B000AF4FF031
:10095000BF0383F31188BFF36F8FBFF34F8F7B60AB
:10096000044B1B680133034A136000BF0C37BD46BC
:1009700080BC70471400002080B483B000AF094BE6
:100980001B68013B074A1360064B1B68002B04D110
:1009900000237B607B6883F3118800BF0C37BD4662
:1009A00080BC704714000020000000000000000020
:1009B000EFF30980BFF36F8F0D4B1A6820E9F00F3A
:1009C00010602DE908404FF0BF0080F3118800F05F
:1009D000FBFE4FF0000080F31188BDE80840196865
:1009E0000868B0E8F00F80F30988BFF36F8F704795
:1009F0005438002000BF00BF80B582B000AF4FF078
:100A0000BF0383F31188BFF36F8FBFF34F8F7B60FA
:100A100000F032FE0346002B03D0064B4FF080520D
:100A20001A6000233B603B6883F3118800BF0837DE
:100A3000BD4680BD04ED00E080B400AF074B00224E
:100A40001A60074B00221A60064B074A1A60034BD4
:100A500007221A6000BFBD4680BC704710E000E06E
:100A600018E000E014E000E03F19010080B586B016
:100A700000AF78600023FB6000F062FD424B1B6812
:100A8000002B01D100F0CCF8404B1A687B68134072
:100A9000002B72D17B68002B0DD008227B68134499
:100AA0007B607B6803F00703002B04D07B6823F096
:100AB000070308337B607B68002B5ED0344B1B68D8
:100AC0007A689A4259D8334B3B61324B1B687B6141
:100AD00004E07B693B617B691B687B617B695A68C9
:100AE0007B689A4203D27B691B68002BF1D1264BAD
:100AF0001B687A699A4240D03B691B6808221344FC
:100B0000FB607B691A683B691A607B695A687B687D
:100B1000D21A08235B009A420FD97A697B68134482
:100B2000BB607B695A687B68D21ABB685A607B6974
:100B30007A685A60B86800F0D5F8154B1A687B6976
:100B40005B68D31A124A1360114B1A68124B1B6868
:100B50009A4203D20E4B1B680F4A13607B695A6896
:100B60000A4B1B681A437B695A607B6900221A6032
:100B70000A4B1B680133094A136000F0EFFCFB6865
:100B800018461837BD4680BD3C380020503800203C
:100B900040380020343800204438002048380020F5
:100BA00080B584B000AF78607B68FB607B68002B09
:100BB0002CD008235B42FA681344FB60FB68BB60DF
:100BC000BB685A68134B1B681340002B1ED0BB68D0
:100BD0001B68002B1AD1BB685A680E4B1B68DB439D
:100BE0001A40BB685A6000F0ABFCBB685A680A4BFD
:100BF0001B681344084A1360B86800F073F8074B89
:100C00001B680133054A136000F0A8FC00BF1037D1
:100C1000BD4680BD50380020403800204C380020B0
:100C200080B485B000AF4FF46053BB60274BFB60CE
:100C3000FB6803F00703002B0CD0FB680733FB6055
:100C4000FB6823F00703FB60BA68FB68D31A1F4AEE
:100C50001344BB60FB687B601D4A7B6813601C4BC0
:100C600000225A607A68BB681344FB600822FB6864
:100C70009B1AFB60FB6823F00703FB60FB68154AC7
:100C80001360144B1B6800225A60124B1B68002231
:100C90001A607B683B603B68FA68D21A3B685A600E
:100CA0000C4B1A683B681A603B685B680A4A136021
:100CB0003B685B68094A1360094B4FF000421A60B9
:100CC00000BF1437BD4680BC704700BF3400002011
:100CD000343800203C3800204438002040380020C0
:100CE0005038002080B485B000AF7860274BFB609F
:100CF00002E0FB681B68FB60FB681A687B689A422D
:100D0000F7D3FB68BB60FB685B68BA681A447B6812
:100D10009A4208D1FB685A687B685B681A44FB6892
:100D20005A60FB687B607B68BB607B685B68BA6805
:100D30001A44FB681B689A4218D1FB681A68144B66
:100D40001B689A420DD07B685A68FB681B685B6819
:100D50001A447B685A60FB681B681A687B681A60D3
:100D600008E00B4B1A687B681A6003E0FB681A689E
:100D70007B681A60FA687B689A4202D0FB687A68DE
:100D80001A6000BF1437BD4680BC7047343800205D
:100D90003C38002080B584B000AF786039607B6853
:100DA000FB60FFF7D1FDFB681A68FB68DB6BF96835
:100DB000096C01FB03F31A44FB689A60FB6800228C
:100DC0009A63FB681A68FB685A60FB681A68FB68DC
:100DD000DB6B013BF968096C01FB03F31A44FB6808
:100DE000DA60FB68FF2283F84420FB68FF2283F867
:100DF00045203B68002B14D1FB681B69002B1AD0DF
:100E0000FB681033184600F03BFD0346002B12D060
:100E10000C4B4FF080521A60BFF34F8FBFF36F8FB0
:100E200009E0FB6810331846FFF753FCFB682433D6
:100E30001846FFF74EFCFFF79FFD012318461037B9
:100E4000BD4680BD04ED00E080B58AB002AFF86019
:100E5000B9601346FB71FB68BA6802FB03F3FB61E0
:100E6000FB6948331846FFF701FEB861BB69002BE8
:100E70000DD0BB697B617B6948337B61FA79BB69C3
:100E8000009313467A69B968F86800F005F8BB6901
:100E900018462037BD4680BD80B584B000AFF860ED
:100EA000B9607A60FB70BB68002B03D1BB69BA697B
:100EB0001A6002E0BB697A681A60BB69FA68DA6393
:100EC000BB69BA681A640121B869FFF763FF00BF04
:100ED0001037BD4680BD80B584B000AF7860396002
:100EE000022200217868FFF7AFFFF860FB68002B53
:100EF00002D0FB683A689A63FB6818461037BD4613
:100F000080BD80B58AB000AF786039607B683B6295
:100F1000EFF311824FF0BF0383F31188BFF36F8F9C
:100F2000BFF34F8F3A61FB603B69FB613B6A9B6B90
:100F3000BB613B6ADA6BBB699A4229D93B6A93F879
:100F40004530FB75BB695A1C3B6A9A6397F91730A9
:100F5000B3F1FF3F12D13B6A5B6A002B15D03B6AAD
:100F60002433184600F08CFC0346002B0DD03B6860
:100F7000002B0AD03B6801221A6006E0FB7D01339A
:100F8000DBB25AB23B6A83F8452001237B6201E061
:100F900000237B62FB69BB60BB6883F311887B6ABB
:100FA00018462837BD4680BD80B58AB000AF78604E
:100FB000396000237B627B68FB6100233B62FFF7A3
:100FC000C3FCFB699B6BBB61BB69002B24D0BB6975
:100FD0005A1EFB699A63FB691B68002B04D100F061
:100FE000A3FE0246FB699A60FB691B69002B0FD0C8
:100FF000FB691033184600F043FC0346002B07D072
:101000004C4B4FF080521A60BFF34F8FBFF36F8F7E
:10101000FFF7B2FC012389E03B68002B03D1FFF707
:10102000ABFC002382E07B6A002B06D107F10C03A6
:10103000184600F079FC01237B62FFF79DFC00F06D
:101040007FFAFFF781FCFB6993F844305BB2B3F1A0
:10105000FF3F03D1FB69002283F84420FB6993F82A
:1010600045305BB2B3F1FF3F03D1FB69002283F847
:101070004520FFF781FC3A4607F10C03114618465C
:1010800000F068FC0346002B32D1F86900F0BDF88F
:101090000346002B26D0FB691B68002B09D1FFF704
:1010A00053FCFB699B68184600F05AFD3862FFF755
:1010B00063FCFB6924333A681146184600F0CAFB0A
:1010C000F86900F050F800F049FA0346002B7FF46D
:1010D00076AF184B4FF080521A60BFF34F8FBFF3BB
:1010E0006F8F6CE7F86900F03EF800F037FA66E7BA
:1010F000F86900F038F800F031FAF86900F085F886
:101100000346002B3FF45BAF3B6A002B0DD0FFF78B
:101110001BFCF86900F010F87861FB699B6879693D
:10112000184600F093FDFFF727FC002318462837E8
:10113000BD4680BD04ED00E080B485B000AF7860AE
:101140007B685B6A002B06D07B681B6B1B68C3F156
:101150000503FB6001E00023FB60FB6818461437C1
:10116000BD4680BC704780B584B000AF7860FFF7A3
:10117000EBFB7B6893F84530FB7311E07B685B6A9F
:10118000002B12D07B682433184600F079FB03460D
:10119000002B01D000F024FCFB7B013BDBB2FB7396
:1011A00097F90F30002BE9DC00E000BF7B68FF22DD
:1011B00083F84520FFF7E0FBFFF7C6FB7B6893F859
:1011C0004430BB7311E07B681B69002B12D07B6835
:1011D0001033184600F054FB0346002B01D000F0FA
:1011E000FFFBBB7B013BDBB2BB7397F90E30002BDF
:1011F000E9DC00E000BF7B68FF2283F84420FFF7B2
:10120000BBFB00BF1037BD4680BD80B584B000AFCA
:101210007860FFF799FB7B689B6B002B02D1012361
:10122000FB6001E00023FB60FFF7A6FBFB681846AC
:101230001037BD4680BD80B58CB004AFF860B96092
:101240003B601346FB80FB889B001846FFF70EFCB3
:1012500078617B69002B0ED05420FFF707FCF86102
:10126000FB69002B03D0FB697A691A6305E0786992
:10127000FFF796FC01E00023FB61FB69002B13D014
:10128000FA8800230393FB690293FB6A0193BB6A0C
:1012900000933B68B968F86800F00EF8F86900F050
:1012A0008BF80123BB6102E04FF0FF33BB61BB69E8
:1012B00018462037BD4680BD80B586B000AFF860C7
:1012C000B9607A603B60BB6A186B7B689B001A460A
:1012D000A52101F0A5F8BB6A1A6B7B6803F1804376
:1012E000013B9B0013443B613B6923F007033B61D7
:1012F000BB68002B1FD000237B6112E0BA687B69BA
:1013000013441978BA6A7B69134434330A461A7055
:10131000BA687B6913441B78002B06D07B690133C4
:101320007B617B690F2BE9D900E000BFBB6A00221B
:1013300083F8432003E0BB6A002283F834203B6A31
:10134000042B01D904233B62BB6A3A6ADA62BB6AA6
:101350003A6A5A64BB6A00229A64BB6A043318462C
:10136000FFF7D6F9BB6A18331846FFF7D1F9BB6A05
:10137000BA6A1A613B6AC3F10502BB6A9A61BB6A29
:10138000BA6A5A62BB6A0022DA64BB6A002283F836
:1013900050203A68F9683869FFF74AFA0246BB6A92
:1013A0001A607B6A002B02D07B6ABA6A1A6000BF9F
:1013B0001837BD4680BD000080B582B000AF7860B0
:1013C000FFF7C2FA2A4B1B680133294A1360294BE5
:1013D0001B68002B09D1274A7B681360244B1B68CC
:1013E000012B10D100F020FB0DE0234B1B68002BDC
:1013F00009D1204B1B68DA6A7B68DB6A9A4202D803
:101400001C4A7B6813601D4B1B6801331B4A136029
:101410007B68DB6A01229A40194B1B681343184A08
:1014200013607B68DA6A13469B0013449B00154ADD
:101430001A447B68043319461046FFF775F9FFF725
:101440009BFA0D4B1B68002B0ED00A4B1B68DA6A07
:101450007B68DB6A9A4207D20B4B4FF080521A60CE
:10146000BFF34F8FBFF36F8F00BF0837BD4680BDFE
:101470002C39002054380020383900204839002009
:10148000343900205838002004ED00E080B584B0E5
:1014900000AF78600023FB607B68002B08D000F071
:1014A0004FF80021786800F053FC00F057F8F8601E
:1014B000FB68002B07D1064B4FF080521A60BFF338
:1014C0004F8FBFF36F8F00BF1037BD4680BD00BF89
:1014D00004ED00E080B584B002AF134B019300230C
:1014E00000930023802211491148FFF7A4FE786081
:1014F0007B68012B14D14FF0BF0383F31188BFF336
:101500006F8FBFF34F8F3B600A4B4FF0FF321A6073
:10151000094B01221A60094B00221A60FFF7F4F907
:1015200000BF0837BD4680BD503900204824000860
:10153000F91900084C3900203839002030390020D2
:1015400080B400AF044B1B680133034A136000BF33
:10155000BD4680BC704700BF5439002080B584B0C0
:1015600000AF0023FB600023BB60FFF7EDF9394BB0
:101570001B68013B374A1360364B1B68002B61D157
:10158000354B1B68002B5DD02EE0344BDB68DB68ED
:10159000FB60FB6818331846FFF721F9FB6804333A
:1015A0001846FFF71CF9FB68DB6A01229A402C4BB6
:1015B0001B6813432A4A1360FB68DA6A13469B00D0
:1015C00013449B00274A1A44FB680433194610460B
:1015D000FFF7AAF8FB68DA6A234B1B68DB6A9A42BA
:1015E00002D3224B01221A601C4B1B68002BCCD16A
:1015F000FB68002B01D000F093FA1D4B1B687B6049
:101600007B68002B10D000F037F80346002B02D087
:10161000164B01221A607B68013B7B607B68002BC4
:10162000F1D1134B00221A60104B1B68002B09D01C
:101630000123BB600F4B4FF080521A60BFF34F8FF6
:10164000BFF36F8FFFF798F9BB6818461037BD4698
:1016500080BD00BF543900202C390020EC38002018
:1016600034390020583800205438002040390020F8
:101670003C39002004ED00E080B586B000AF0023C7
:101680007B61464B1B68002B7DD1454B1B680133AA
:101690003B61434A3B6913603B69002B10D1414BCE
:1016A0001B68FB60404B1B683E4A13603E4AFB6868
:1016B00013603E4B1B6801333C4A136000F030FA64
:1016C0003B4B1B683A699A4248D3364B1B681B68F0
:1016D000002B04D1364B4FF0FF321A603EE0314B05
:1016E0001B68DB68DB68BB60BB685B687B603A6972
:1016F0007B689A4203D22E4A7B6813602EE0BB6857
:1017000004331846FFF76BF8BB689B6A002B04D0C4
:10171000BB6818331846FFF762F8BB68DB6A012222
:101720009A40244B1B681343224A1360BB68DA6A51
:1017300013469B0013449B001F4A1A44BB680433A2
:1017400019461046FEF7F0FFBB68DA6A1B4B1B68B0
:10175000DB6A9A42B9D301237B61B6E7174B1B685A
:10176000DA6A154913469B0013449B000B441B681F
:10177000012B01D901237B61114B1B68002B07D082
:1017800001237B6104E00F4B1B6801330D4A13609A
:101790007B6918461837BD4680BD00BF543900200C
:1017A00030390020E4380020E83800204439002097
:1017B0004C3900203439002058380020543800209B
:1017C000403900203C39002080B485B000AF1C4B6C
:1017D0001B68002B03D01B4B01221A602AE0194B17
:1017E00000221A60184B1B687B607B68B3FA83F396
:1017F000FB70FB78C3F11F03FB60FA6813469B0084
:1018000013449B00114A1344BB60BB685B685A6871
:10181000BB685A60BB685A68BB6808339A4204D1F7
:10182000BB685B685A68BB685A60BB685B68DB680A
:10183000074A136000BF1437BD4680BC704700BF25
:101840005439002040390020343900205838002015
:101850005438002080B582B000AF78603960074B03
:101860001B68183319467868FEF781FF0121386834
:1018700000F06EFA00BF0837BD4680BD5438002026
:1018800080B584B000AF78607B68DB68DB68BB60E4
:10189000BB6818331846FEF7A2FF1D4B1B68002BD0
:1018A0001CD1BB6804331846FEF799FFBB68DB6A9E
:1018B00001229A40174B1B681343164A1360BB68FA
:1018C000DA6A13469B0013449B00134A1A44BB6810
:1018D000043319461046FEF727FF05E0BB681833AE
:1018E00019460E48FEF720FFBB68DA6A0C4B1B68EE
:1018F000DB6A9A4205D90123FB600A4B01221A6078
:1019000001E00023FB60FB6818461037BD4680BD30
:10191000543900203439002058380020EC38002099
:10192000543800204039002080B483B000AF786084
:10193000064B1A687B681A60054B1A687B685A6008
:1019400000BF0C37BD4680BC704700BF4439002043
:101950003039002080B586B000AF78603960FEF77E
:10196000F3FF1D4B1B683B617B685B683A69D31AC8
:10197000FB603B681B68B3F1FF3F02D100237B6132
:1019800023E07B681A68154B1B689A4207D07B6876
:101990005A683B699A4202D801237B6115E03B6893
:1019A0001A68FB689A420BD93B681A68FB68D21A1E
:1019B0003B681A607868FFF7B7FF00237B6104E09B
:1019C0003B6800221A6001237B61FEF7D5FF7B692B
:1019D00018461837BD4680BD3039002044390020F4
:1019E00080B400AF034B01221A6000BFBD4680BC2B
:1019F000704700BF4039002080B582B000AF7860EA
:101A000000F052F8064B1B68012BF9D9054B4FF03B
:101A100080521A60BFF34F8FBFF36F8FF0E700BFA4
:101A20005838002004ED00E080B582B000AF0023FC
:101A30007B600CE07A6813469B0013449B00124ABB
:101A400013441846FEF745FE7B6801337B607B68D4
:101A5000042BEFD90D48FEF73CFE0D48FEF739FE8A
:101A60000C48FEF736FE0C48FEF733FE0B48FEF737
:101A700030FE0B4B054A1A600A4B054A1A6000BF3C
:101A80000837BD4680BD00BF58380020BC38002054
:101A9000D0380020EC380020003900201839002010
:101AA000E4380020E838002080B582B000AF19E0AB
:101AB000FEF74AFF0F4BDB68DB687B607B68043313
:101AC0001846FEF78CFE0C4B1B68013B0A4A13605C
:101AD0000A4B1B68013B094A1360FEF74DFF78680B
:101AE00000F00EF8054B1B68002BE1D100BF083752
:101AF000BD4680BD003900202C390020143900205B
:101B000080B582B000AF78607B681B6B1846FFF72A
:101B100047F87868FFF744F800BF0837BD4680BD36
:101B200080B483B000AF0C4B1B681B68002B04D142
:101B30000A4B4FF0FF321A6008E0074B1B68DB6866
:101B4000DB687B607B685B68044A136000BF0C370E
:101B5000BD4680BC704700BFE43800204C390020EF
:101B600080B584B000AF78607B68BB600023FB6009
:101B70007B68002B5ED0BB68DA6A314B1B68DB6A7E
:101B80009A424ED2BB689B69002B06DB2C4B1B682C
:101B9000DB6AC3F10502BB689A61BB685969BB681F
:101BA000DA6A13469B0013449B00264A1344994269
:101BB0002FD1BB6804331846FEF711FE0346002BF5
:101BC0000AD1BB68DB6A012202FA03F3DA431E4B37
:101BD0001B6813401C4A1360194B1B68DA6ABB6808
:101BE000DA62BB68DB6A01229A40174B1B68134319
:101BF000154A1360BB68DA6A13469B0013449B00C6
:101C0000104A1A44BB68043319461046FEF78CFD8F
:101C100004E00B4B1B68DA6ABB68DA620123FB60E5
:101C200008E0BB685A6C064B1B68DB6A9A4201D21B
:101C30000123FB60FB6818461037BD4680BD00BF1E
:101C400054380020583800203439002080B586B040
:101C500000AF786039607B683B610123FB607B6883
:101C6000002B58D03B695A6C3B689A4202D23B68C1
:101C70007B6102E03B695B6C7B613B69DA6A7B6993
:101C80009A4248D03B699A6CFB689A4243D13B69BF
:101C9000DB6ABB603B697A69DA623B699B69002B4E
:101CA00004DB7B69C3F105023B699A613B695969B1
:101CB000BA6813469B0013449B00194A1344994287
:101CC00029D13B6904331846FEF789FD0346002BF2
:101CD0000AD13B69DB6A012202FA03F3DA43114BB2
:101CE0001B6813400F4A13603B69DB6A01229A406C
:101CF0000C4B1B6813430B4A13603B69DA6A1346AB
:101D00009B0013449B00064A1A443B69043319465E
:101D10001046FEF709FD00BF1837BD4680BD00BF65
:101D2000583800203439002080B400AF074B1B68BE
:101D3000002B04D0054B1B689A6C01329A64034B4C
:101D40001B681846BD4680BC704700BF5438002051
:101D500080B584B000AF78603960294B1B68FB60A8
:101D6000284B1B6804331846FEF739FD0346002B49
:101D70000BD1244B1B68DB6A012202FA03F3DA431E
:101D8000214B1B681340204A13607B68B3F1FF3F6F
:101D90000AD13B68002B07D01A4B1B680433194645
:101DA0001A48FEF7C1FC26E0FA687B681344BB6062
:101DB000144B1B68BA685A60BA68FB689A4209D229
:101DC000134B1A680F4B1B68043319461046FEF775
:101DD000CEFC10E00F4B1A680A4B1B6804331946FF
:101DE0001046FEF7C4FC0C4B1B68BA689A4202D23C
:101DF000094ABB68136000BF1037BD4680BD00BFF5
:101E0000303900205438002034390020183900209F
:101E1000E8380020E43800204C39002080B483B03A
:101E200000AF0346FB71084997F907305B09FA795F
:101E300002F01F02012000FA02F241F8232000BF45
:101E40000C37BD4680BC704700E100E080B483B031
:101E500000AF0346FB71094997F907305B09FA792E
:101E600002F01F02012000FA02F2403341F8232061
:101E700000BF0C37BD4680BC704700BF00E100E0EA
:101E800080B483B000AF03463960FB7197F9073027
:101E9000002B0BDA0D49FB7903F00F03043B3A6882
:101EA000D2B21201D2B20B441A7609E0084997F96E
:101EB00007303A68D2B21201D2B20B4483F8002341
:101EC00000BF0C37BD4680BC704700BF00ED00E08E
:101ED00000E100E0B0B582B002AF4FF44070FEF711
:101EE0003FF900F09FF81E4800F0A4F800210A20F6
:101EF000FEF7F1FF02461B4B1A601A4B1B68002BC2
:101F00001AD000F02FF9002301930323009300233C
:101F10004FF4967214491548FFF78DF90023019389
:101F20000123009300234FF4967211491148FFF7E3
:101F300082F9FFF7CFFA11E00F4A104B14461D4605
:101F40000FCD0FC40FCD0FC495E8070003C4228046
:101F50000234130C2370084800F06CF8FEE700BF51
:101F600050240008203A002078240008811F00082F
:101F700080240008C91F0008583900208C2400085C
:101F8000B0B582B000AF78600C4B1B684FF0FF31EA
:101F90001846FFF709F80A4A0A4B14461D460FCDAA
:101FA0000FC40FCD0FC42B681A46228002341B0CBD
:101FB0002370034800F03EF8E6E700BF203A002017
:101FC00058390020B8240008B0B582B000AF78605E
:101FD0004FF4FA70FFF75AFA0F4A104B14461D4699
:101FE0000FCD0FC40FCD0FC495E8070003C42270B6
:101FF000094800F01FF81720FFF728FF064A084B92
:1020000014461D460FCD0FC495E8070084E807006D
:10201000014800F00FF8DBE758390020DC24000805
:102020000825000880B500AF00F06CF800F02AF831
:1020300000BF80BD80B584B000AF78600023FB6036
:1020400013E000BF80210E48FEF728FB0346012B5A
:10205000F8D17A68FB6813441B789BB2194608488C
:10206000FEF70BFBFB680133FB607868FEF770F846
:102070000246FB689A42E4D800BF1037BD4680BDD7
:102080000038014080B586B000AF012144F2050060
:10209000FEF7FCF94FF40073BB800323BB711823D8
:1020A000FB713B1D19461548FEF76CF84FF4806331
:1020B000BB800323BB710423FB713B1D19460F48F2
:1020C000FEF760F801210E48FEF7B8FA4FF41653F8
:1020D000BB600023BB810023FB8100233B820C23D8
:1020E0007B820023BB8207F1080319460448FEF7F0
:1020F000EBF900BF1837BD4680BD00BF00080140A6
:102100000038014080B582B000AF01210420FEF705
:10211000BDF901211020FEF7B9F91023FB714FF42E
:102120000053BB800223BB713B1D19460B48FEF7D1
:1021300029F801224FF400510848FEF7DFF8282360
:10214000FB7020233B800223BB703B4619460448AA
:10215000FEF718F800BF0837BD4680BD00100140EB
:102160000008014080B500AF0C211720FFF788FE62
:102170001720FFF753FE00BF80BD0000B0B582B04E
:1021800000AF00237B601E4A1E4B14461D460FCD38
:102190000FC42B6823601A48FFF74CFF1A4B1B68CB
:1021A0003A1D11461846FEF7ACFE174B1B683A1D48
:1021B00011461846FEF7A5FE134B1B683A1D114643
:1021C0001846FEF79EFE104B1B683A1D1146184636
:1021D000FEF797FE0C4B1B683A1D11461846FEF79A
:1021E00090FE7B68002B07D0084B4FF080521A609E
:1021F000BFF34F8FBFF36F8F00BF0837BD46B0BD31
:102200005839002024250008203A002004ED00E081
:10221000DFF834D0002103E00C4B5B58435004310D
:102220000B480C4B42189A42F6D30B4A02E00023AB
:1022300042F8043B094B9A42F9D300F013F800F03E
:10224000CBF8FFF747FE70470050002040250008FC
:10225000000000201800002018000020283A00206C
:10226000FEE7000080B500AF154A154B1B6843F030
:10227000010313601249124B5A68124B13404B6012
:102280000F4A0F4B1B6823F0847323F480331360D1
:102290000B4A0B4B1B6823F480231360084A084B3E
:1022A0005B6823F4FE035360054B4FF41F029A60F2
:1022B00000F00CF8044B4FF000629A6000BF80BD44
:1022C000001002400000FFF800ED00E080B500AF14
:1022D00000F002F800BF80BD80B483B000AF0023DF
:1022E0007B6000233B603A4A394B1B6843F48033E0
:1022F0001360374B1B6803F400333B607B6801338A
:102300007B603B68002B03D17B68B3F5A06FF0D1F5
:102310002F4B1B6803F40033002B02D001233B60DA
:1023200001E000233B603B68012B4BD1294A294B3C
:102330001B6843F010031360264A264B1B6823F0EA
:1023400003031360234A234B1B6843F0020313600B
:102350001F4A1F4B5B6853601D4A1D4B5B685360EF
:102360001B4A1B4B5B6843F480635360184A184B4D
:102370005B6823F47C135360154A154B5B6843F488
:10238000E8135360124A124B1B6843F080731360CA
:1023900000BF0F4B1B6803F00073002BF9D00C4AF1
:1023A0000B4B5B6823F003035360094A084B5B68DF
:1023B00043F00203536000BF054B5B6803F00C035E
:1023C000082BF9D100BF0C37BD4680BC704700BF59
:1023D000001002400020024070B500250C4E0D4C4C
:1023E000A41BA410A54209D100F022F800250A4E32
:1023F0000A4CA41BA410A54205D170BD56F8253087
:1024000098470135EEE756F8253098470135F2E751
:102410003825000838250008382500083C25000824
:1024200003460244934200D1704703F8011BF9E7C9
:10243000F8B500BFF8BC08BC9E467047F8B500BFB1
:08244000F8BC08BC9E46704781
:1024480049444C45000000000D0A5468697320692E
:102458007320436F756E74696E672053656D617084
:10246800686F72652050726F6A6563740D0A0000A8
:1024780048616E646C657200506572696F64696367
:102488000000000053656D6170686F726520436FCE
:10249800756E742070726F6A65637420637265610B
:1024A8007465206661696C65642E2E200D0A000033
:1024B80048616E646C6572207461736B202D2050C6
:1024C800726F63657373696E67206576656E742EC7
:1024D8000D0A0000506572696F6469632074617346
:1024E8006B202D2050656E64696E672074686520C6
:1024F800696E746572727570742E0D0A00000000A2
:10250800506572696F646963207461736B202D2054
:10251800526573756D696E672E0D0A003D3D3E422A
:102528007574746F6E5F48616E646C65720D0A0035
:042538003501000861
:04253C001101000881
:102540000000000001020304010203040607080959
:0825500002040608AAAAAAAAC7
:0400000508002211BC
:00000001FF
