:020000040800F2
:1000000000500020F5290008452A0008452A00086C
:10001000452A0008452A0008452A0008000000007B
:1000200000000000000000000000000011080008AF
:10003000452A0008000000000109000849090008DD
:10004000452A0008452A0008452A0008452A0008D4
:10005000452A0008452A0008452A0008452A0008C4
:10006000452A0008452A0008452A0008452A0008B4
:10007000452A0008452A0008452A0008452A0008A4
:10008000452A0008452A0008452A0008452A000894
:10009000452A0008452A0008452A0008452A000884
:1000A000452A0008452A0008452A0008452A000874
:1000B000452A0008452A0008452A0008452A000864
:1000C000452A0008452A0008452A0008452A000854
:1000D000452A0008452A0008452A0008452A000844
:1000E000452A0008452A0008452A000800000000AB
:1000F0000000000000000000000000000000000000
:0C01000000000000000000005FF808F1A3
:1001100010B5054C237833B9044B13B10448AFF341
:1001200000800123237010BD180000200000000093
:10013000482C000808B5034B1BB103490348AFF333
:10014000008008BD000000001C000020482C0008B2
:1001500080B483B000AF7860054A7B6843F0BF632A
:1001600043F40033D36000BF0C37BD4680BC7047FA
:1001700000ED00E080B489B000AF78603960002302
:10018000FB6100233B610023BB610023FB60002374
:100190007B610023BB603B68DB7803F00F03FB61EE
:1001A0003B68DB7803F01003002B05D03B689B789D
:1001B0001A46FB691343FB613B681B88DBB2002BCB
:1001C00044D07B681B687B610023BB6138E001225F
:1001D000BB6902FA03F3FB603B681B881A46FB68A5
:1001E00013403B613A69FB689A4226D1BB699B0088
:1001F000FB600F22FB6802FA03F3BB60BB68DB43C2
:100200007A6913407B61FA69FB6802FA03F37A6941
:1002100013437B613B68DB78282B05D10122BB6946
:100220009A407B685A6108E03B68DB78482B04D130
:100230000122BB699A407B681A61BB690133BB61CB
:10024000BB69072BC3D97B687A691A603B681B8836
:10025000FF2B46D97B685B687B610023BB613AE07A
:10026000BB690833012202FA03F3FB603B681B8879
:100270001A46FB6813403B613A69FB689A4227D1F2
:10028000BB699B00FB600F22FB6802FA03F3BB60B3
:10029000BB68DB437A6913407B61FA69FB6802FA49
:1002A00003F37A6913437B613B68DB78282B05D124
:1002B000BB69083301229A407B685A613B68DB784E
:1002C000482B05D1BB69083301229A407B681A612B
:1002D000BB690133BB61BB69072BC1D97B687A69F4
:1002E0005A6000BF2437BD4680BC704780B485B0DB
:1002F00000AF78600B467B800023FB737B689A68B5
:100300007B881340002B02D00123FB7301E0002304
:10031000FB73FB7B18461437BD4680BC704780B426
:1003200083B000AF78600B467B8013467B707B7890
:10033000002B03D07A887B681A6102E07A887B6898
:100340005A6100BF0C37BD4680BC704780B487B08F
:1003500000AF786000237B6100233B610023FB60DA
:100360000023BB604C4B5B6803F00C037B617B6933
:10037000042B07D0082B09D0002B33D17B68474AC8
:100380001A6033E07B68454A1A602FE0424B5B6895
:1003900003F470133B61404B5B6803F48033FB60F4
:1003A0003B699B0C02333B61FB68002B06D13B6928
:1003B0003B4A02FB03F27B681A6017E0364B5B682E
:1003C00003F40033002B06D03B69354A02FB03F2ED
:1003D0007B681A600AE03B69304A02FB03F27B68E3
:1003E0001A6003E07B682D4A1A6000BF2A4B5B68E5
:1003F00003F0F0037B617B691B097B61294A7B6900
:1004000013441B78DBB2BB607B681A68BB68DA40B8
:100410007B685A60204B5B6803F4E0637B617B6917
:100420001B0A7B611F4A7B6913441B78DBB2BB60EC
:100430007B685A68BB68DA407B689A60164B5B68D9
:1004400003F460537B617B69DB0A7B61154A7B693E
:1004500013441B78DBB2BB607B685A68BB68DA4028
:100460007B68DA600C4B5B6803F440437B617B691B
:100470009B0B7B610C4A7B6913441B78DBB2BB602E
:100480007B68DA68BB68B2FBF3F27B681A6100BF75
:100490001C37BD4680BC70470010024000127A0035
:1004A00000093D00000000201000002080B483B04F
:1004B00000AF78600B46FB70FB78002B06D0094933
:1004C000084B9A697B6813438B6106E00549054B2D
:1004D0009A697B68DB4313408B6100BF0C37BD46D4
:1004E00080BC70470010024080B58CB000AF7860CF
:1004F00039600023FB620023BB6200237B62002380
:100500003B620023FB617B68FB617B681B8A9BB2BB
:10051000FB62FA6A4CF6FF731340FB623B68DB88B0
:100520001A46FB6A1343FB62FB6A9AB27B681A8223
:100530007B689B899BB2FB62FA6A4EF6F313134009
:10054000FB623B689A883B681B8913439AB23B68FD
:100550005B8913439BB21A46FB6A1343FB62FB6A37
:100560009AB27B689A817B689B8A9BB2FB62FA6A2B
:100570004FF6FF431340FB623B689B891A46FB6AB8
:100580001343FB62FB6A9AB27B689A8207F1080305
:100590001846FFF7DBFEFB692E4A934202D17B69C6
:1005A000BB6201E03B69BB627B689B899BB21BB26B
:1005B000002B0CDABA6A13469B0013449A001A44C3
:1005C0003B681B685B00B2FBF3F37B620BE0BA6A2B
:1005D00013469B0013449A001A443B681B689B0017
:1005E000B2FBF3F37B627B6A1B4AA2FB03235B092A
:1005F0001B01FB62FB6A1B09642202FB03F37A6A9C
:10060000D31A3B627B689B899BB21BB2002B0CDA2E
:100610003B6ADB003233104AA2FB03235B0903F081
:100620000703FA6A1343FB620BE03B6A1B01323398
:10063000094AA2FB03235B0903F00F03FA6A134381
:10064000FB62FB6A9AB27B681A8100BF3037BD46F5
:1006500080BD00BF003801401F85EB5180B483B0DE
:1006600000AF78600B46FB70FB78002B08D07B68EE
:100670009B899BB243F400539AB27B689A8107E04E
:100680007B689B899BB223F400539AB27B689A8162
:1006900000BF0C37BD4680BC704780B483B000AF4C
:1006A00078607B6803F108027B685A607B684FF0D2
:1006B000FF329A607B6803F108027B68DA607B682E
:1006C00003F108027B681A617B6800221A6000BF90
:1006D0000C37BD4680BC704780B483B000AF7860F3
:1006E0007B6800221A6100BF0C37BD4680BC704792
:1006F00080B485B000AF786039607B685B68FB6070
:100700003B68FA685A60FB689A683B689A60FB68C5
:100710009B683A685A60FB683A689A603B687A68F6
:100720001A617B681B685A1C7B681A6000BF14370B
:10073000BD4680BC704780B485B000AF78607B68F0
:100740001B69FB607B685B687A6892689A607B686B
:100750009B687A6852685A60FB685A687B689A425C
:1007600003D17B689A68FB685A607B6800221A6133
:10077000FB681B685A1EFB681A60FB681B681846FA
:100780001437BD4680BC704780B485B000AFF860B8
:10079000B9607A60FB68043BFB60FB684FF08072D5
:1007A0001A60FB68043BFB60BB6823F00102FB6836
:1007B0001A60FB68043BFB60084AFB681A60FB6830
:1007C000143BFB607A68FB681A60FB68203BFB60A7
:1007D000FB6818461437BD4680BC7047E107000827
:1007E00080B483B000AF00233B604FF0BF0383F3BE
:1007F0001188BFF36F8FBFF34F8F7B6000BF3B68E3
:10080000002BFCD000BF0C37BD4680BC70470000F9
:10081000074B19680868B0E8F00F80F30988BFF348
:100820006F8F4FF0000080F311884EF00D0E70476F
:100830005438002000BF00BF06480068006880F3FD
:10084000088862B661B6BFF34F8FBFF36F8F00DFCA
:1008500000BF00BF08ED00E080B500AF0C4A0C4BB4
:100860001B6843F47F031360094A094B1B6843F07C
:100870007F43136000F090F8064B00221A60FFF7E8
:10088000DBFF00F011FDFFF7ABFF0023184680BD32
:1008900020ED00E01400002080B483B000AF4FF0E2
:1008A000BF0383F31188BFF36F8FBFF34F8F7B605C
:1008B000044B1B680133034A136000BF0C37BD466D
:1008C00080BC70471400002080B483B000AF094B97
:1008D0001B68013B074A1360064B1B68002B04D1C1
:1008E00000237B607B6883F3118800BF0C37BD4613
:1008F00080BC7047140000200000000000000000D1
:10090000EFF30980BFF36F8F0D4B1A6820E9F00FEA
:1009100010602DE908404FF0BF0080F3118800F00F
:10092000C3FC4FF0000080F31188BDE8084019684F
:100930000868B0E8F00F80F30988BFF36F8F704745
:100940005438002000BF00BF80B582B000AF4FF028
:10095000BF0383F31188BFF36F8FBFF34F8F7B60AB
:1009600001F0E2FC00F0F4FB0346002B06D001F09E
:1009700039FD084B4FF080521A6001E001F016FD7E
:1009800000233B603B6883F3118800BF0837BD46F6
:1009900080BD00BF04ED00E080B400AF074B002233
:1009A0001A60074B00221A60064B074A1A60034B75
:1009B00007221A6000BFBD4680BC704710E000E00F
:1009C00018E000E014E000E03F19010080B586B0B7
:1009D00000AF78600023FB6000F01AFB424B1B68FD
:1009E000002B01D100F0CCF8404B1A687B68134013
:1009F000002B72D17B68002B0DD008227B6813443A
:100A00007B607B6803F00703002B04D07B6823F036
:100A1000070308337B607B68002B5ED0344B1B6878
:100A20007A689A4259D8334B3B61324B1B687B61E1
:100A300004E07B693B617B691B687B617B695A6869
:100A40007B689A4203D27B691B68002BF1D1264B4D
:100A50001B687A699A4240D03B691B68082213449C
:100A6000FB607B691A683B691A607B695A687B681E
:100A7000D21A08235B009A420FD97A697B68134423
:100A8000BB607B695A687B68D21ABB685A607B6915
:100A90007A685A60B86800F0D5F8154B1A687B6917
:100AA0005B68D31A124A1360114B1A68124B1B6809
:100AB0009A4203D20E4B1B680F4A13607B695A6837
:100AC0000A4B1B681A437B695A607B6900221A60D3
:100AD0000A4B1B680133094A136000F0A7FAFB6850
:100AE00018461837BD4680BD3C38002050380020DD
:100AF0004038002034380020443800204838002096
:100B000080B584B000AF78607B68FB607B68002BA9
:100B10002CD008235B42FA681344FB60FB68BB607F
:100B2000BB685A68134B1B681340002B1ED0BB6870
:100B30001B68002B1AD1BB685A680E4B1B68DB433D
:100B40001A40BB685A6000F063FABB685A680A4BE7
:100B50001B681344084A1360B86800F073F8074B29
:100B60001B680133054A136000F060FA00BF1037BC
:100B7000BD4680BD50380020403800204C38002051
:100B800080B485B000AF4FF46053BB60274BFB606F
:100B9000FB6803F00703002B0CD0FB680733FB60F6
:100BA000FB6823F00703FB60BA68FB68D31A1F4A8F
:100BB0001344BB60FB687B601D4A7B6813601C4B61
:100BC00000225A607A68BB681344FB600822FB6805
:100BD0009B1AFB60FB6823F00703FB60FB68154A68
:100BE0001360144B1B6800225A60124B1B680022D2
:100BF0001A607B683B603B68FA68D21A3B685A60AF
:100C00000C4B1A683B681A603B685B680A4A1360C1
:100C10003B685B68094A1360094B4FF000421A6059
:100C200000BF1437BD4680BC704700BF34000020B1
:100C3000343800203C380020443800204038002060
:100C40005038002080B485B000AF7860274BFB603F
:100C500002E0FB681B68FB60FB681A687B689A42CD
:100C6000F7D3FB68BB60FB685B68BA681A447B68B3
:100C70009A4208D1FB685A687B685B681A44FB6833
:100C80005A60FB687B607B68BB607B685B68BA68A6
:100C90001A44FB681B689A4218D1FB681A68144B07
:100CA0001B689A420DD07B685A68FB681B685B68BA
:100CB0001A447B685A60FB681B681A687B681A6074
:100CC00008E00B4B1A687B681A6003E0FB681A683F
:100CD0007B681A60FA687B689A4202D0FB687A687F
:100CE0001A6000BF1437BD4680BC704734380020FE
:100CF0003C38002080B58CB004AFF860B9603B6030
:100D00001346FB80FB889B001846FFF75FFE786167
:100D10007B69002B0ED05420FFF758FEF861FB6969
:100D2000002B03D0FB697A691A6305E07869FFF745
:100D3000E7FE01E00023FB61FB69002B13D0FA887A
:100D400000230393FB690293FB6A0193BB6A009340
:100D50003B68B968F86800F00EF8F86900F08AF8A6
:100D60000123BB6102E04FF0FF33BB61BB69184652
:100D70002037BD4680BD80B586B000AFF860B96051
:100D80007A603B60BB6A186B7B689B001A46A521A2
:100D900001F052FFBB6A1A6B7B6803F18043013B91
:100DA0009B0013443B613B6923F007033B61BB6835
:100DB000002B1FD000237B6112E0BA687B691344CB
:100DC0001978BA6A7B69134434330A461A70BA68D0
:100DD0007B6913441B78002B06D07B6901337B6150
:100DE0007B690F2BE9D900E000BFBB6A002283F8C2
:100DF000432003E0BB6A002283F834203B6A042BC3
:100E000001D904233B62BB6A3A6ADA62BB6A3A6A76
:100E10005A64BB6A00229A64BB6A04331846FFF71F
:100E20005BFCBB6A18331846FFF756FCBB6ABA6A0C
:100E30001A613B6AC3F10502BB6A9A61BB6ABA6A6E
:100E40005A62BB6A0022DA64BB6A002283F850202F
:100E50003A68F9683869FFF797FC0246BB6A1A607E
:100E60007B6A002B02D07B6ABA6A1A6000BF18370F
:100E7000BD4680BDB0B584B002AF7860FFF70CFD11
:100E8000394B1B680133384A1360384B1B68002B01
:100E900009D1364A7B681360334B1B68012B10D194
:100EA00000F06EFA0DE0324B1B68002B09D12F4B7E
:100EB0001B68DA6A7B68DB6A9A4202D82B4A7B6835
:100EC00013602C4B1B6801332A4A13607B68002B8C
:100ED00016D07B68184601F0BDFA78687B6803F18C
:100EE00034017B68DA6A7B681B6B1D467B681B6874
:100EF0001C467B681B6BE31A00932B4600F0DCFA60
:100F00007B68184601F02EFB7B68DB6A01229A4061
:100F1000194B1B681343184A13607B68DA6A13463F
:100F20009B0013449B00154A1A447B6804331946FE
:100F30001046FFF7DDFBFFF7C7FC0D4B1B68002BCE
:100F40000ED00A4B1B68DA6A7B68DB6A9A4207D2CA
:100F50000B4B4FF080521A60BFF34F8FBFF36F8F70
:100F600000BF0837BD46B0BD2C39002054380020E2
:100F70003839002048390020343900205838002002
:100F800004ED00E080B584B002AF1A4B019300235A
:100F900000930023802218491848FFF7ABFE7860C1
:100FA0007B68012B22D14FF0BF0383F31188BFF37D
:100FB0006F8FBFF34F8F3B60114B4FF0FF321A60C2
:100FC000104B01221A60104B00221A600F4B1A6856
:100FD000084B1B689A4202D101F020FA04E00B4B47
:100FE0001B68184601F07AFAFFF736FC00BF083795
:100FF000BD4680BD50390020602C00085113000808
:101000004C39002038390020303900205438002075
:1010100080B400AF044B1B680133034A136000BF68
:10102000BD4680BC704700BF5439002080B584B0F5
:1010300000AF0023FB600023BB60FFF72DFC3B4BA0
:101040001B68013B394A1360384B1B68002B65D184
:10105000374B1B68002B61D032E0364BDB68DB6816
:10106000FB60FB6818331846FFF765FBFB68043329
:101070001846FFF760FBFB68184601F073FAFB683F
:10108000DB6A01229A402C4B1B6813432A4A1360E7
:10109000FB68DA6A13469B0013449B00274A1A44F4
:1010A000FB68043319461046FFF722FBFB68DA6A37
:1010B000234B1B68DB6A9A4202D3224B01221A603F
:1010C0001C4B1B68002BC8D1FB68002B01D000F023
:1010D000D3F91D4B1B687B607B68002B10D000F0A0
:1010E00037F80346002B02D0164B01221A607B68AA
:1010F000013B7B607B68002BF1D1134B00221A600F
:10110000104B1B68002B09D00123BB600F4B4FF025
:1011100080521A60BFF34F8FBFF36F8FFFF7D4FB7E
:10112000BB6818461037BD4680BD00BF543900204B
:101130002C390020EC3800203439002058380020A9
:1011400054380020403900203C39002004ED00E0F4
:1011500080B586B000AF00237B61484B1B68002B35
:1011600040F08280464B1B6801333B61444A3B6937
:1011700013603B69002B10D1424B1B68FB60424B54
:101180001B68404A1360404AFB6813603F4B1B6872
:1011900001333E4A136000F06FF93D4B1B683A691A
:1011A0009A424CD3374B1B681B68002B04D1384B39
:1011B0004FF0FF321A6042E0324B1B68DB68DB689D
:1011C000BB60BB685B687B603A697B689A4203D20C
:1011D0002F4A7B68136032E0BB6804331846FFF780
:1011E000AAFABB689B6A002B04D0BB681833184668
:1011F000FFF7A1FABB68184601F0B4F9BB68DB6AD7
:1012000001229A40234B1B681343224A1360BB6898
:10121000DA6A13469B0013449B001F4A1A44BB68BA
:10122000043319461046FFF763FABB68DA6A1B4BB2
:101230001B68DB6A9A42B5D301237B61B2E7174B87
:101240001B68DA6A144913469B0013449B000B4445
:101250001B68012B01D901237B61114B1B68002BFB
:1012600007D001237B6104E00E4B1B6801330D4A5C
:1012700013607B6918461837BD4680BD543900207D
:1012800030390020E4380020E838002044390020BC
:101290004C390020343900205838002054380020C0
:1012A000403900203C39002080B584B000AF224B8B
:1012B0001B68002B03D0214B01221A6038E01F4B22
:1012C00000221A601E4B1B687B607B68B3FA83F3B5
:1012D000FB70FB78C3F11F03FB60FA6813469B00A9
:1012E00013449B00174A1344BB60BB685B685A6891
:1012F000BB685A60BB685A68BB6808339A4204D11D
:10130000BB685B685A68BB685A60BB685B68DB682F
:101310000D4A13600C4B1A680C4B1B689A4202D1A1
:1013200001F07CF804E0084B1B68184601F0D6F881
:1013300000BF1037BD4680BD543900204039002021
:10134000343900205838002054380020503900200B
:1013500080B582B000AF786000F052F8064B1B6891
:10136000012BF9D9054B4FF080521A60BFF34F8F14
:10137000BFF36F8FF0E700BF5838002004ED00E0A6
:1013800080B582B000AF00237B600CE07A68134622
:101390009B0013449B00124A13441846FFF77DF943
:1013A0007B6801337B607B68042BEFD90D48FFF726
:1013B00074F90D48FFF771F90C48FFF76EF90C4806
:1013C000FFF76BF90B48FFF768F90B4B054A1A60FA
:1013D0000A4B054A1A6000BF0837BD4680BD00BFF2
:1013E00058380020BC380020D0380020EC380020CD
:1013F0000039002018390020E4380020E8380020A7
:1014000080B582B000AF19E0FFF746FA0F4BDB68FA
:10141000DB687B607B6804331846FFF78CF90C4B64
:101420001B68013B0A4A13600A4B1B68013B094ACF
:101430001360FFF749FA786800F00EF8054B1B6857
:10144000002BE1D100BF0837BD4680BD0039002028
:101450002C3900201439002080B582B000AF7860AC
:101460007B681B6B1846FFF74BFB7868FFF748FB60
:1014700000BF0837BD4680BD80B483B000AF0C4BC1
:101480001B681B68002B04D10A4B4FF0FF321A6017
:1014900008E0074B1B68DB68DB687B607B685B6888
:1014A000044A136000BF0C37BD4680BC704700BFC4
:1014B000E43800204C39002080B586B002AFF860D7
:1014C000B9607A603B6005222B49B86801F09AFB4D
:1014D0000346002B4BD0294B1B68072B03D9284808
:1014E00001F060F944E0254B1A68264913469B0039
:1014F00013449B000B44FA681A60204B1A68214978
:1015000013469B0013449B000B440433BA681A60D3
:101510001A4B1A681B4913469B0013449B000B444B
:1015200008337A681A60154B1A68164913469B00EF
:1015300013449B000B440C333A681A600F4B1A6833
:10154000104913469B0013449B000B441033BA69A7
:101550001A600A4B1B680133084A1360BB69009389
:101560003B687A68B968F86800F00EF800E000BFE0
:101570001037BD4680BD00BF682C0008F839002038
:10158000702C00085839002080B58AB000AFF86090
:10159000B9607A603B6007F11403142200211846F9
:1015A00001F04AFBFB687B61BB68BB617B68FB6148
:1015B0003B683B623B6B7B6207F11403184600F00B
:1015C0008DFD00BF2837BD4680BD000080B483B0CC
:1015D00000AF214B7B607B6803221A617B6803228A
:1015E0005A617B681D4A9A617B681D4ADA617B6893
:1015F0004FF480621A627B6800229A627B68002244
:101600005A627B680022DA627B68144A1A667B6839
:10161000144A5A667B6810229A667B6800221A6711
:101620007B680022DA667B6800225A677B68073392
:101630000D4A106818607B680C4A10681860918821
:10164000927999809A717B6820229A7100BF0C3739
:10165000BD4680BC704700BF203F0020C02C000862
:10166000FC390020FC3D0020CC2C0008D02C0008C8
:1016700080B58AB000AFF860B9607A603C4B1B78E7
:10168000002B01D1FFF7A2FFFA6813465B00134459
:10169000DB006033364A1344BB61BB68FB61BB6946
:1016A0001B693B62BB69DB687B6100237B623A6A32
:1016B0007B699A422AD9BB699A683B6AD31A3B6113
:1016C0003A697B68934228BF13463B61BB695A68FD
:1016D0003B6A13443A691946F86901F0A2FA7A6A3A
:1016E0003B6913447B62FA693B691344FB617A6886
:1016F0003B69D31A7B603A6A3B6913443B62BB691E
:101700009A683B6A9A4201D100233B627A693B6A3C
:10171000D31A3B613A697B68934228BF13463B6109
:101720003B69002B18D0BB695A683B6A13443A697D
:101730001946F86901F075FA7A6A3B6913447B62CD
:10174000FA693B691344FB617A683B69D31A7B6091
:101750003A6A3B6913443B627B6A002B02D0BB6947
:101760003A6A1A617B6A18462837BD4680BD00BFB9
:10177000203F002080B58AB000AFF860B9607A6081
:10178000BB687B62FB685A1C13465B001344DB009A
:101790003F4A13443B623B6A1B69FB613B6ADB685F
:1017A000BB61FA69BB699A4254D83B6A9A68BB69C3
:1017B000D31A013B7B617A697B689A420FD33B6AFB
:1017C0005A68BB6913447A68796A184601F029FAA5
:1017D000BA697B681A443B6ADA60012354E07A698B
:1017E000FB6913447B617A697B689A424BD33B6AFD
:1017F0009A68BB69D31A3B613A697B689A420ED9F1
:101800003B6A5A68BB6913447A68796A184601F0E2
:1018100008FABA697B681A443B6ADA6018E03B6AE6
:101820005A68BB6913443A69796A184601F0F9F9B4
:101830003B6A58687A6A3B69D1187A683B69D31A5F
:101840001A4601F0EEF97A683B69D21A3B6ADA600F
:10185000012319E0FA69BB69D31A013B7B617A69FC
:101860007B689A420FD33B6A5A68BB6913447A6813
:10187000796A184601F0D5F9BA697B681A443B6A5F
:10188000DA60012300E0002318462837BD4680BDFA
:10189000203F002080B487B000AFF860B9607A6064
:1018A00000233B6102E03B6901333B61BA683B695D
:1018B00013441B78002BF6D13A697B689A4201D910
:1018C0007B683B613B69FE2B06D8FB685A1CFA60BB
:1018D0003A69D2B21A7011E0FB685A1CFA60FF2212
:1018E0001A70FB685A1CFA603A69D2B21A70FB6827
:1018F0005A1CFA603A69120AD2B21A7000237B614C
:101900000AE0FB685A1CFA60BA68511CB960127888
:101910001A707B6901337B617A693B699A42F0D323
:10192000FB6818461C37BD4680BC704780B483B046
:1019300000AF78607B68043318460C37BD4680BC26
:10194000704780B582B000AFFB1C01221946012010
:10195000FFF78EFE03467B607B68002B47DDFB783C
:10196000042B1AD0042B06DC022B10D0022B11DC26
:10197000012B09D02DE0062B15D0062B10DB072BF1
:1019800014D0802B15D024E000F02CFA2FE000F0CA
:10199000E5FA2CE000F09CFC29E000F085FC26E054
:1019A00000F002FB23E000F0BFFE20E000F09EFE0E
:1019B0001DE0FB1C012219460120FFF759FE0346DA
:1019C0007B607B68002B0FDDFB78184600F00EFE75
:1019D0000AE0FB785BB2002B08DAFB1C01221946F7
:1019E0000120FFF745FE01E000BF00E000BF00BF9F
:1019F0000837BD4680BD000080B58CB000AF012324
:101A00003B713B1D0133FB61FB69FB62304B5B6942
:101A1000BB620BE0FB6A5A1CFA62BA6AD2B262F08D
:101A20007F02D2B21A70BB6ADB09BB62BB6A7F2B32
:101A3000F0D8FB6A5A1CFA62BA6AD2B21A70FB6A10
:101A4000FB61244B1B68BB61214BDB68BA69D31A6D
:101A50007B61FB697B627B693B620BE07B6A5A1CA2
:101A60007A623A6AD2B262F07F02D2B21A703B6AEC
:101A7000DB093B623B6A7F2BF0D87B6A5A1C7A6297
:101A80003A6AD2B21A707B6AFB61FA693B1DD31ABB
:101A90001A463B1D19460120FFF76CFE03463B61C9
:101AA0003B69002B09D00A4ABB69D360084B1B78FD
:101AB000013BDAB2064B1A7004E0054B5B69013357
:101AC000034A53613B6918463037BD4680BD00BFAD
:101AD0000C3E0020041000E080B58AB000AFF86032
:101AE000B9607A60624B1B78012B10D0604B1B7879
:101AF000002B00F09F805E4B1B78022B08D1FFF774
:101B00007BFF5B4B1B78012B40F0968000E000BF11
:101B10007B681F2B09D8564BDA697B6822FA03F3DE
:101B200003F00103002B40F089807B68172B07D856
:101B3000FB68013BFB607B68DAB2FB681A703DE032
:101B4000BA68FB68D31AFB61FB697F2B12D9FB686B
:101B5000013BFB60FB69DB09DAB2FB681A70FB68CA
:101B6000013BFB60FB69DBB263F07F03DAB2FB6829
:101B70001A7006E0FB68013BFB60FB69DAB2FB68A8
:101B80001A707B687F2B12D9FB68013BFB607B6876
:101B9000DB09DAB2FB681A70FB68013BFB607B680B
:101BA000DBB263F07F03DAB2FB681A7006E0FB6811
:101BB000013BFB607B68DAB2FB681A702D4B1B6837
:101BC000BB612B4BDB68BA69D31A7B61BB687B6254
:101BD0007B693B620BE07B6A5A1C7A623A6AD2B23A
:101BE00062F07F02D2B21A703B6ADB093B623B6A49
:101BF0007F2BF0D87B6A5A1C7A623A6AD2B21A708A
:101C00007B6ABB60BA68FB68D31A1A46F968012080
:101C1000FFF7B0FD03463B613B69002B03D0144A3C
:101C2000BB69D3600BE0124B1B780133DAB2104B67
:101C30001A7004E000BF02E000BF00E000BF0E4BDE
:101C4000D3F884200C4BD3F888309A420BD0084B41
:101C50009B78002B07D1064B01229A70FFF771FE8B
:101C6000034B00229A7000BF2837BD4680BD00BFDD
:101C70000C3E0020041000E0203F002080B584B01E
:101C800000AF7860EFF311834FF0200181F31188EA
:101C9000FB600848FFF74AFEB8607A68B968B86820
:101CA000FFF71AFFFB6883F3118800BF1037BD46AA
:101CB00080BD00BF3C3E002080B588B000AF78609A
:101CC0003960EFF311834FF0200181F311887B61BC
:101CD0001648FFF72BFE38613B69FB60FB68FB6130
:101CE0003B68BB610BE0FB695A1CFA61BA69D2B26E
:101CF00062F07F02D2B21A70BB69DB09BB61BB69BB
:101D00007F2BF0D8FB695A1CFA61BA69D2B21A70FB
:101D1000FB69FB607A68F9683869FFF7DDFE7B696B
:101D200083F3118800BF2037BD4680BD3C3E0020B4
:101D300080B58CB000AFF860B9607A60EFF31183C2
:101D40004FF0200181F31188FB612548FFF7EEFD7C
:101D5000B861BB697B617B69FB62BB68BB620BE0FE
:101D6000FB6A5A1CFA62BA6AD2B262F07F02D2B23D
:101D70001A70BB6ADB09BB62BB6A7F2BF0D8FB6AB7
:101D80005A1CFA62BA6AD2B21A70FB6A7B617B692A
:101D90007B627B683B620BE07B6A5A1C7A623A6A20
:101DA000D2B262F07F02D2B21A703B6ADB093B62A8
:101DB0003B6A7F2BF0D87B6A5A1C7A623A6AD2B2AD
:101DC0001A707B6A7B61FA687969B869FFF784FEEB
:101DD000FB6983F3118800BF3037BD4680BD00BF6B
:101DE0003C3E002080B58CB000AF594B1B78002BD7
:101DF00040F0AA80564B01221A70EFF311834FF086
:101E0000200181F31188FB600A2252490120FFF76B
:101E1000B1FCFB6883F311880A20FFF72FFFEFF373
:101E200011834FF0200181F31188BB604A48FFF70E
:101E30007DFD78607B683B603B68FB62444B5B6880
:101E4000BB620BE0FB6A5A1CFA62BA6AD2B262F059
:101E50007F02D2B21A70BB6ADB09BB62BB6A7F2BFE
:101E6000F0D8FB6A5A1CFA62BA6AD2B21A70FB6ADC
:101E70003B603B687B62364B9B683B620BE07B6A56
:101E80005A1C7A623A6AD2B262F07F02D2B21A70F7
:101E90003B6ADB093B623B6A7F2BF0D87B6A5A1CAA
:101EA0007A623A6AD2B21A707B6A3B603B68FB6125
:101EB000274B1B69BB610BE0FB695A1CFA61BA69CD
:101EC000D2B262F07F02D2B21A70BB69DB09BB6189
:101ED000BB697F2BF0D8FB695A1CFA61BA69D2B290
:101EE0001A70FB693B603B687B6102233B610BE03E
:101EF0007B695A1C7A613A69D2B262F07F02D2B22F
:101F00001A703B69DB093B613B697F2BF0D87B6929
:101F10005A1C7A613A69D2B21A707B693B60182206
:101F200039687868FFF7D8FDBB6883F31188084BE0
:101F30005B6A002B02D0064B5B6A984700F0C8F939
:101F400000F0B2F900F0F0FB00BF3037BD4680BDB5
:101F50000C3E0020F02C00083C3E002080B582B0F2
:101F600000AFEFF311834FF0200181F311887B6004
:101F70000B48FFF7DBFC38600A4B1B78002B07D0BF
:101F80000B2239683868FFF7A7FD064B00221A704C
:101F90007B6883F3118800BF0837BD4680BD00BF52
:101FA0003C3E00200C3E002080B58CB000AFEFF32B
:101FB00011834FF0200181F31188FB604548FFF742
:101FC000B5FCB860BB687B607B68FB62424B5B68BA
:101FD000BB620BE0FB6A5A1CFA62BA6AD2B262F0C8
:101FE0007F02D2B21A70BB6ADB09BB62BB6A7F2B6D
:101FF000F0D8FB6A5A1CFA62BA6AD2B21A70FB6A4B
:102000007B607B687B62344B9B683B620BE07B6A46
:102010005A1C7A623A6AD2B262F07F02D2B21A7065
:102020003B6ADB093B623B6A7F2BF0D87B6A5A1C18
:102030007A623A6AD2B21A707B6A7B607B68FB6113
:10204000254B1B69BB610BE0FB695A1CFA61BA693D
:10205000D2B262F07F02D2B21A70BB69DB09BB61F7
:10206000BB697F2BF0D8FB695A1CFA61BA69D2B2FE
:102070001A70FB697B607B687B6102233B610BE02C
:102080007B695A1C7A613A69D2B262F07F02D2B29D
:102090001A703B69DB093B613B697F2BF0D87B6998
:1020A0005A1C7A613A69D2B21A707B697B60182235
:1020B0007968B868FFF710FDFB6883F31188064B59
:1020C0005B6A002B02D0044B5B6A984700BF303735
:1020D000BD4680BD3C3E00200C3E002080B592B045
:1020E00000AF7860EFF311834FF0200181F3118886
:1020F0007B616B48FFF71AFC38613B69FB60FB684A
:102100007B647B681A68674B1B69D31A9B083B6426
:102110000BE07B6C5A1C7A643A6CD2B262F07F029C
:10212000D2B21A703B6CDB093B643B6C7F2BF0D85E
:102130007B6C5A1C7A643A6CD2B21A707B6CFB606E
:10214000FB68FB637B689B68BB630BE0FB6B5A1C03
:10215000FA63BA6BD2B262F07F02D2B21A70BB6B72
:10216000DB09BB63BB6B7F2BF0D8FB6B5A1CFA639C
:10217000BA6BD2B21A70FB6BFB607B685B68202283
:102180001946F868FFF786FBF8600922F968386994
:10219000FFF7A2FC3B69FB60FB687B637B681A6806
:1021A000404B1B69D31A9B083B630BE07B6B5A1CAB
:1021B0007A633A6BD2B262F07F02D2B21A703B6B92
:1021C000DB093B633B6B7F2BF0D87B6B5A1C7A633C
:1021D0003A6BD2B21A707B6BFB60FB68FB627B6868
:1021E000DB68BB620BE0FB6A5A1CFA62BA6AD2B2C5
:1021F00062F07F02D2B21A70BB6ADB09BB62BB6AB3
:102200007F2BF0D8FB6A5A1CFA62BA6AD2B21A70F3
:10221000FB6AFB60FB687B627B681B693B620BE0CF
:102220007B6A5A1C7A623A6AD2B262F07F02D2B2F8
:102230001A703B6ADB093B623B6A7F2BF0D87B6AF2
:102240005A1C7A623A6AD2B21A707B6AFB60FB68E7
:10225000FB610023BB610BE0FB695A1CFA61BA69A0
:10226000D2B262F07F02D2B21A70BB69DB09BB61E5
:10227000BB697F2BF0D8FB695A1CFA61BA69D2B2EC
:102280001A70FB69FB601522F9683869FFF724FCB6
:102290007B6983F3118800BF4837BD4680BD00BF0E
:1022A0003C3E00200C3E002080B500AF074B1B6A6F
:1022B000002B08D0054B1B6A5B68002B03D0034B37
:1022C0001B6A5B68984700BF80BD00BF0C3E0020C2
:1022D000F0B583B000AF124B1B6A002B15D0104B2A
:1022E0001B6A1B68002B10D00D4B1B6A1B6898479C
:1022F000C7E90001396897E81800250000262B4639
:102300001A460D20FFF714FD05E0064B1B68194621
:102310000C20FFF7D1FC00BF0C37BD46F0BD00BF5D
:102320000C3E0020041000E080B586B000AFEFF353
:1023300011834FF0200181F31188FB601948FFF7EA
:10234000F5FAB860BB687B60174B1B68C3F30803E2
:102350003B607B687B613B683B610BE07B695A1C9F
:102360007A613A69D2B262F07F02D2B21A703B69E6
:10237000DB093B613B697F2BF0D87B695A1C7A6192
:102380003A69D2B21A707B697B6002227968B868B8
:10239000FFF7A2FBFB6883F3118800BF1837BD4627
:1023A00080BD00BF3C3E002004ED00E080B582B05F
:1023B00000AFEFF311834FF0200181F311887B60B0
:1023C0000748FFF7B3FA3860032239683868FFF727
:1023D00083FB7B6883F3118800BF0837BD4680BD4F
:1023E0003C3E002080B582B000AFEFF311834FF088
:1023F000200181F311887B600748FFF797FA386066
:10240000122239683868FFF767FB7B6883F311880D
:1024100000BF0837BD4680BD3C3E002080B582B07D
:1024200000AFEFF311834FF0200181F311887B603F
:102430000748FFF77BFA3860112239683868FFF7E0
:102440004BFB7B6883F3118800BF0837BD4680BD16
:102450003C3E002080B588B000AF7860EFF3118378
:102460004FF0200181F311887B611A48FFF75EFA73
:1024700038613B69FB60184B1B697A68D31A9B086B
:102480007B60FB68FB617B68BB610BE0FB695A1CEE
:10249000FA61BA69D2B262F07F02D2B21A70BB6935
:1024A000DB09BB61BB697F2BF0D8FB695A1CFA6161
:1024B000BA69D2B21A70FB69FB600822F968386900
:1024C000FFF70AFB7B6983F3118800BF2037BD4605
:1024D00080BD00BF3C3E00200C3E002080B588B08F
:1024E00000AF7860EFF311834FF0200181F3118882
:1024F0007B611A48FFF71AFA38613B69FB60184B99
:102500001B697A68D31A9B087B60FB68FB617B6858
:10251000BB610BE0FB695A1CFA61BA69D2B262F086
:102520007F02D2B21A70BB69DB09BB61BB697F2B2A
:10253000F0D8FB695A1CFA61BA69D2B21A70FB6909
:10254000FB600422F9683869FFF7C6FA7B6983F3F8
:10255000118800BF2037BD4680BD00BF3C3E002033
:102560000C3E002080B588B000AF7860EFF3118397
:102570004FF0200181F311887B611A48FFF7D6F9EB
:1025800038613B69FB60184B1B697A68D31A9B085A
:102590007B60FB68FB617B68BB610BE0FB695A1CDD
:1025A000FA61BA69D2B262F07F02D2B21A70BB6924
:1025B000DB09BB61BB697F2BF0D8FB695A1CFA6150
:1025C000BA69D2B21A70FB69FB600622F9683869F1
:1025D000FFF782FA7B6983F3118800BF2037BD467D
:1025E00080BD00BF3C3E00200C3E002080B58CB07A
:1025F00000AF0346FB713B4B1B68002B6DD0394B82
:102600001B68FB620023BB6208E0FB6A1B69FB627C
:10261000FB6A002B07D0BB6A0133BB62FA79BB6A45
:102620009A42F2D800E000BFFB6A002B55D0EFF3CE
:1026300011834FF0200181F311887B612A48FFF755
:1026400075F938613B69FB60FB687B62FB793B6233
:102650000BE07B6A5A1C7A623A6AD2B262F07F025D
:10266000D2B21A703B6ADB093B623B6A7F2BF0D81F
:102670007B6A5A1C7A623A6AD2B21A707B6AFB6031
:10268000FB68FB61FB6A9B68BB610BE0FB695A1C42
:10269000FA61BA69D2B262F07F02D2B21A70BB6933
:1026A000DB09BB61BB697F2BF0D8FB695A1CFA615F
:1026B000BA69D2B21A70FB69FB60FB6A1B688022A0
:1026C0001946F868FFF7E6F8F8601622F9683869E5
:1026D000FFF702FA7B6983F3118800BF3037BD46EC
:1026E00080BD00BF343E00203C3E002080B582B05B
:1026F00000AF0C4B1B68002B0FD00A4B1B687B6094
:102700007B68DB68002B02D07B68DB6898477B68BE
:102710001B697B607B68002BF2D100BF0837BD4688
:1027200080BD00BF343E002080B586B000AFEFF31F
:1027300011834FF0200181F31188FB601748FFF7E8
:10274000F5F8B860BB687B607B687B61144B1B78D5
:102750003B610BE07B695A1C7A613A69D2B262F044
:102760007F02D2B21A703B69DB093B613B697F2B68
:10277000F0D87B695A1C7A613A69D2B21A707B69C7
:102780007B601B227968B868FFF7A6F9FB6883F3C2
:10279000118800BF1837BD4680BD00BF3C3E0020F9
:1027A000383E002080B58AB000AF7860EFF3118327
:1027B0004FF0200181F311887B612748FFF7B6F8BD
:1027C0003861802279683869FFF764F8F860FB683F
:1027D0007B6201233B620BE07B6A5A1C7A623A6A95
:1027E000D2B262F07F02D2B21A703B6ADB093B625E
:1027F0003B6A7F2BF0D87B6A5A1C7A623A6AD2B263
:102800001A707B6AFB60FB68FB610023BB610BE015
:10281000FB695A1CFA61BA69D2B262F07F02D2B285
:102820001A70BB69DB09BB61BB697F2BF0D8FB6900
:102830005A1CFA61BA69D2B21A70FB69FB601A229B
:10284000F9683869FFF748F97B6983F3118800BF9D
:102850002837BD4680BD00BF3C3E002080B582B019
:1028600002AF4FF44070FDF773FC00F051F8002305
:102870000193012300930023802208490848FEF7B2
:1028800039FA002301930123009300238022054994
:102890000548FEF72FFAFEF775FBFEE7D82C000877
:1028A000AD280008E42C0008E128000880B582B0BB
:1028B00000AF7860084B1B78012B06D101224FF442
:1028C00000510648FDF72BFDF4E700224FF40051BC
:1028D0000248FDF724FDEDE71F3F002000100140F6
:1028E00080B582B000AF786020210748FDF7FEFC7C
:1028F0000346002B03D1054B01221A70F4E7034B6A
:1029000000221A70F0E700BF000801401F3F0020BE
:1029100080B500AF00F044F800F002F800BF80BDC1
:1029200080B586B000AF012144F20500FDF7BEFD81
:102930004FF40073BB800323BB711823FB713B1D55
:1029400019461548FDF716FC4FF48063BB8003233E
:10295000BB710423FB713B1D19460F48FDF70AFCB0
:1029600001210E48FDF77AFE4FF41653BB60002399
:10297000BB810023FB8100233B820C237B8200234D
:10298000BB8207F1080319460448FDF7ADFD00BFFF
:102990001837BD4680BD00BF000801400038014027
:1029A00080B582B000AF01210420FDF77FFD012139
:1029B0001020FDF77BFD1023FB714FF40053BB800B
:1029C0000223BB713B1D19460848FDF7D3FB2823A2
:1029D000FB7020233B800223BB703B461946044812
:1029E000FDF7C8FB00BF0837BD4680BD00100140A1
:1029F00000080140DFF834D0002103E00C4B5B58A5
:102A0000435004310B480C4B42189A42F6D30B4A00
:102A100002E0002342F8043B094B9A42F9D300F04C
:102A200013F800F0CBF8FFF719FF704700500020B3
:102A3000042D0008000000201800002018000020CD
:102A4000C83F0020FEE7000080B500AF154A154BD7
:102A50001B6843F0010313601249124B5A68124B72
:102A600013404B600F4A0F4B1B6823F0847323F411
:102A7000803313600B4A0B4B1B6823F480231360D5
:102A8000084A084B5B6823F4FE035360054B4FF480
:102A90001F029A6000F00CF8044B4FF000629A603D
:102AA00000BF80BD001002400000FFF800ED00E014
:102AB00080B500AF00F002F800BF80BD80B483B0E5
:102AC00000AF00237B6000233B603A4A394B1B6810
:102AD00043F480331360374B1B6803F400333B60CF
:102AE0007B6801337B603B68002B03D17B68B3F5C7
:102AF000A06FF0D12F4B1B6803F40033002B02D0E2
:102B000001233B6001E000233B603B68012B4BD17C
:102B1000294A294B1B6843F010031360264A264BB1
:102B20001B6823F003031360234A234B1B6843F005
:102B3000020313601F4A1F4B5B6853601D4A1D4B05
:102B40005B6853601B4A1B4B5B6843F480635360B4
:102B5000184A184B5B6823F47C135360154A154BD5
:102B60005B6843F4E8135360124A124B1B6843F04E
:102B70008073136000BF0F4B1B6803F00073002BC2
:102B8000F9D00C4A0B4B5B6823F003035360094AEE
:102B9000084B5B6843F00203536000BF054B5B6862
:102BA00003F00C03082BF9D100BF0C37BD4680BCE5
:102BB000704700BF001002400020024070B50025A1
:102BC0000C4E0D4CA41BA410A54209D100F03CF8FA
:102BD00000250A4E0A4CA41BA410A54205D170BDC5
:102BE00056F8253098470135EEE756F825309847D6
:102BF0000135F2E7FC2C0008FC2C0008FC2C000836
:102C0000002D000810B501390244904201D1002086
:102C100010BD10F8013B11F8014FA342F5D0181B6D
:102C200010BD10B5431E0A44914200D110BD11F8E9
:102C3000014B03F8014FF7E703460244934200D1EA
:102C4000704703F8011BF9E7F8B500BFF8BC08BCF2
:102C50009E467047F8B500BFF8BC08BC9E4670475A
:102C600049444C450000000049444C450000000028
:102C700053595354454D564945573A20436F756C47
:102C800064206E6F74207265636F72642074617368
:102C90006B20696E666F726D6174696F6E2E204D68
:102CA0006178696D756D206E756D626572206F66F5
:102CB000207461736B7320726561636865642E00B4
:102CC0005465726D696E616C0000000052545400CE
:102CD00053454747455200004C45442D5461736BA2
:102CE00000000000427574746F6E2D5461736B00A8
:0C2CF000000000000000000000000000D8
:042CFC003501000896
:042D000011010008B5
:102D0400000000000102030401020304060708098D
:082D140002040608AAAAAAAAFB
:04000005080029F5D1
:00000001FF
