:020000040800F2
:1000000000500020B14C0008014D0008014D0008CF
:10001000014D0008014D0008014D000800000000DE
:10002000000000000000000000000000C1090008FE
:10003000014D000800000000B10A0008F90A00089C
:10004000014D0008014D0008014D0008014D000858
:10005000014D0008014D0008014D0008014D000848
:10006000014D0008014D0008014D0008014D000838
:10007000014D0008014D0008014D0008014D000828
:10008000014D0008014D0008014D0008014D000818
:10009000014D0008014D0008014D0008014D000808
:1000A000014D0008014D0008014D0008014D0008F8
:1000B000014D0008014D0008014D0008014D0008E8
:1000C000014D0008014D0008014D0008014D0008D8
:1000D000014D0008F1490008014D0008014D0008DC
:1000E000014D0008014D0008014D0008000000000E
:1000F0000000000000000000000000000000000000
:0C01000000000000000000005FF808F1A3
:1001100010B5054C237833B9044B13B10448AFF341
:1001200000800123237010BD30010020000000007A
:10013000AC57000808B5034B1BB103490348AFF3A4
:10014000008008BD0000000034010020AC5700080A
:10015000034613F8012B002AFBD1181A0138704707
:1001600080B483B000AF7860054A7B6843F0BF631A
:1001700043F40033D36000BF0C37BD4680BC7047EA
:1001800000ED00E080B489B000AF786039600023F2
:10019000FB6100233B610023BB610023FB60002364
:1001A0007B610023BB603B68DB7803F00F03FB61DE
:1001B0003B68DB7803F01003002B05D03B689B788D
:1001C0001A46FB691343FB613B681B88DBB2002BBB
:1001D00044D07B681B687B610023BB6138E001224F
:1001E000BB6902FA03F3FB603B681B881A46FB6895
:1001F00013403B613A69FB689A4226D1BB699B0078
:10020000FB600F22FB6802FA03F3BB60BB68DB43B1
:100210007A6913407B61FA69FB6802FA03F37A6931
:1002200013437B613B68DB78282B05D10122BB6936
:100230009A407B685A6108E03B68DB78482B04D120
:100240000122BB699A407B681A61BB690133BB61BB
:10025000BB69072BC3D97B687A691A603B681B8826
:10026000FF2B46D97B685B687B610023BB613AE06A
:10027000BB690833012202FA03F3FB603B681B8869
:100280001A46FB6813403B613A69FB689A4227D1E2
:10029000BB699B00FB600F22FB6802FA03F3BB60A3
:1002A000BB68DB437A6913407B61FA69FB6802FA39
:1002B00003F37A6913437B613B68DB78282B05D114
:1002C000BB69083301229A407B685A613B68DB783E
:1002D000482B05D1BB69083301229A407B681A611B
:1002E000BB690133BB61BB69072BC1D97B687A69E4
:1002F0005A6000BF2437BD4680BC704780B485B0CB
:1003000000AF78600B467B800023FB737B68DA6864
:100310007B881340002B02D00123FB7301E00023F4
:10032000FB73FB7B18461437BD4680BC704780B416
:1003300083B000AF78600B467B8013467B707B7880
:10034000002B03D07A887B681A6102E07A887B6888
:100350005A6100BF0C37BD4680BC704780B483B083
:1003600000AF78600B467B807B68DA687B885A40F8
:100370007B68DA6000BF0C37BD4680BC7047000068
:1003800080B487B000AF786000237B6100233B61BD
:100390000023FB600023BB604C4B5B6803F00C0345
:1003A0007B617B69042B07D0082B09D0002B33D14C
:1003B0007B68474A1A6033E07B68454A1A602FE041
:1003C000424B5B6803F470133B61404B5B6803F482
:1003D0008033FB603B699B0C02333B61FB68002B65
:1003E00006D13B693B4A02FB03F27B681A6017E0C7
:1003F000364B5B6803F40033002B06D03B69354A6B
:1004000002FB03F27B681A600AE03B69304A02FB98
:1004100003F27B681A6003E07B682D4A1A6000BF14
:100420002A4B5B6803F0F0037B617B691B097B61EE
:10043000294A7B6913441B78DBB2BB607B681A686E
:10044000BB68DA407B685A60204B5B6803F4E0636A
:100450007B617B691B0A7B611F4A7B6913441B78A4
:10046000DBB2BB607B685A68BB68DA407B689A6025
:10047000164B5B6803F460537B617B69DB0A7B612D
:10048000154A7B6913441B78DBB2BB607B685A68F2
:10049000BB68DA407B68DA600C4B5B6803F440436E
:1004A0007B617B699B0B7B610C4A7B6913441B78E6
:1004B000DBB2BB607B68DA68BB68B2FBF3F27B68D7
:1004C0001A6100BF1C37BD4680BC70470010024057
:1004D00000127A0000093D000000002010000020FA
:1004E00080B483B000AF78600B46FB70FB78002BC4
:1004F00006D00949084B9A697B6813438B6106E073
:100500000549054B9A697B68DB4313408B6100BF4B
:100510000C37BD4680BC70470010024080B58CB0DF
:1005200000AF786039600023FB620023BB620023C8
:100530007B6200233B620023FB617B68FB617B687D
:100540001B8A9BB2FB62FA6A4CF6FF731340FB6294
:100550003B68DB881A46FB6A1343FB62FB6A9AB26C
:100560007B681A827B689B899BB2FB62FA6A4EF6B3
:10057000F3131340FB623B689A883B681B89134363
:100580009AB23B685B8913439BB21A46FB6A1343DA
:10059000FB62FB6A9AB27B689A817B689B8A9BB2FA
:1005A000FB62FA6A4FF6FF431340FB623B689B898C
:1005B0001A46FB6A1343FB62FB6A9AB27B689A8213
:1005C00007F108031846FFF7DBFEFB692E4A93424A
:1005D00002D17B69BB6201E03B69BB627B689B899E
:1005E0009BB21BB2002B0CDABA6A13469B00134471
:1005F0009A001A443B681B685B00B2FBF3F37B6212
:100600000BE0BA6A13469B0013449A001A443B68F5
:100610001B689B00B2FBF3F37B627B6A1B4AA2FB65
:1006200003235B091B01FB62FB6A1B09642202FBBB
:1006300003F37A6AD31A3B627B689B899BB21BB235
:10064000002B0CDA3B6ADB003233104AA2FB032397
:100650005B0903F00703FA6A1343FB620BE03B6A92
:100660001B013233094AA2FB03235B0903F00F038A
:10067000FA6A1343FB62FB6A9AB27B681A8100BF75
:100680003037BD4680BD00BF003801401F85EB51AB
:1006900080B483B000AF78600B46FB70FB78002B12
:1006A00008D07B689B899BB243F400539AB27B6865
:1006B0009A8107E07B689B899BB223F400539AB22E
:1006C0007B689A8100BF0C37BD4680BC704780B400
:1006D00087B000AF78600B467B8013467B700023A9
:1006E0003B610023FB600023BB6000237B617B68D0
:1006F0007B617B88DBB25B09DBB23B617B8803F00B
:100700001F03FB600122FB6802FA03F3BB603B6935
:10071000012B03D17B690C337B6109E03B69022B20
:1007200003D17B6910337B6102E07B6914337B6109
:100730007B78002B06D07B697A691168BA680A4316
:100740001A6006E07B697A691168BA68D2430A4088
:100750001A6000BF1C37BD4680BC704780B483B0B0
:1007600000AF78600B467B807B88C3F308039AB2A6
:100770007B689A8000BF0C37BD4680BC704780B450
:1007800083B000AF78607B689B889BB2C3F308039B
:100790009BB218460C37BD4680BC704780B485B00C
:1007A00000AF78600B467B800023FB737B681B885F
:1007B0009AB27B8813409BB2002B02D00123FB73BB
:1007C00001E00023FB73FB7B18461437BD4680BC59
:1007D000704780B483B000AF78607B6803F1080293
:1007E0007B685A607B684FF0FF329A607B6803F148
:1007F00008027B68DA607B6803F108027B681A6193
:100800007B6800221A6000BF0C37BD4680BC704771
:1008100080B483B000AF78607B6800221A6100BFAB
:100820000C37BD4680BC704780B485B000AF78609F
:1008300039607B685B68FB603B68FA685A60FB68FC
:100840009A683B689A60FB689B683A685A60FB68E4
:100850003A689A603B687A681A617B681B685A1C20
:100860007B681A6000BF1437BD4680BC704780B4F7
:1008700085B000AF786039603B681B68BB60BB68BF
:10088000B3F1FF3F03D17B681B69FB600CE07B6821
:100890000833FB6002E0FB685B68FB60FB685B6839
:1008A0001A68BB689A42F6D9FB685A683B685A6076
:1008B0003B685B683A689A603B68FA689A60FB68D4
:1008C0003A685A603B687A681A617B681B685A1CF0
:1008D0007B681A6000BF1437BD4680BC704780B487
:1008E00085B000AF78607B681B69FB607B685B68E4
:1008F0007A6892689A607B689B687A6852685A60E6
:10090000FB685A687B689A4203D17B689A68FB68E7
:100910005A607B6800221A61FB681B685A1EFB68DC
:100920001A60FB681B6818461437BD4680BC7047C8
:1009300080B485B000AFF860B9607A60FB68043BB2
:10094000FB60FB684FF080721A60FB68043BFB6041
:10095000BB6823F00102FB681A60FB68043BFB6084
:10096000084AFB681A60FB68143BFB607A68FB6806
:100970001A60FB68203BFB60FB6818461437BD46D5
:1009800080BC70478909000880B483B000AF0023A1
:100990003B604FF0BF0383F31188BFF36F8FBFF34A
:1009A0004F8F7B6000BF3B68002BFCD000BF0C3733
:1009B000BD4680BC70470000000000000000000041
:1009C000074B19680868B0E8F00F80F30988BFF397
:1009D0006F8F4FF0000080F311884EF00D0E7047BE
:1009E0006C39002000BF00BF06480068006880F333
:1009F000088862B661B6BFF34F8FBFF36F8F00DF19
:100A000000BF00BF08ED00E080B500AF0C4A0C4B02
:100A10001B6843F47F031360094A094B1B6843F0CA
:100A20007F43136000F090F8064B00221A60FFF736
:100A3000DBFF01F0C5F9FFF7A7FF0023184680BDD3
:100A400020ED00E01400002080B483B000AF4FF030
:100A5000BF0383F31188BFF36F8FBFF34F8F7B60AA
:100A6000044B1B680133034A136000BF0C37BD46BB
:100A700080BC70471400002080B483B000AF094BE5
:100A80001B68013B074A1360064B1B68002B04D10F
:100A900000237B607B6883F3118800BF0C37BD4661
:100AA00080BC70471400002000000000000000001F
:100AB000EFF30980BFF36F8F0D4B1A6820E9F00F39
:100AC00010602DE908404FF0BF0080F3118801F05D
:100AD00077F94FF0000080F31188BDE808401968ED
:100AE0000868B0E8F00F80F30988BFF36F8F704794
:100AF0006C39002000BF00BF80B582B000AF4FF05E
:100B0000BF0383F31188BFF36F8FBFF34F8F7B60F9
:100B100003F03AFA01F0A8F80346002B06D003F0E0
:100B200091FA084B4FF080521A6001E003F06EFA20
:100B300000233B603B6883F3118800BF0837BD4644
:100B400080BD00BF04ED00E080B400AF074B002281
:100B50001A60074B00221A60064B074A1A60034BC3
:100B600007221A6000BFBD4680BC704710E000E05D
:100B700018E000E014E000E03F19010080B586B005
:100B800000AF78600023FB6000F0C0FF424B1B68A1
:100B9000002B01D100F0CCF8404B1A687B68134061
:100BA000002B72D17B68002B0DD008227B68134488
:100BB0007B607B6803F00703002B04D07B6823F085
:100BC000070308337B607B68002B5ED0344B1B68C7
:100BD0007A689A4259D8334B3B61324B1B687B6130
:100BE00004E07B693B617B691B687B617B695A68B8
:100BF0007B689A4203D27B691B68002BF1D1264B9C
:100C00001B687A699A4240D03B691B6808221344EA
:100C1000FB607B691A683B691A607B695A687B686C
:100C2000D21A08235B009A420FD97A697B68134471
:100C3000BB607B695A687B68D21ABB685A607B6963
:100C40007A685A60B86800F0D5F8154B1A687B6965
:100C50005B68D31A124A1360114B1A68124B1B6857
:100C60009A4203D20E4B1B680F4A13607B695A6885
:100C70000A4B1B681A437B695A607B6900221A6021
:100C80000A4B1B680133094A136000F04DFFFB68F3
:100C900018461837BD4680BD5439002068390020F9
:100CA000583900204C3900205C3900206039002080
:100CB00080B584B000AF78607B68FB607B68002BF8
:100CC0002CD008235B42FA681344FB60FB68BB60CE
:100CD000BB685A68134B1B681340002B1ED0BB68BF
:100CE0001B68002B1AD1BB685A680E4B1B68DB438C
:100CF0001A40BB685A6000F009FFBB685A680A4B8B
:100D00001B681344084A1360B86800F073F8074B77
:100D10001B680133054A136000F006FF00BF10375F
:100D2000BD4680BD68390020583900206439002054
:100D300080B485B000AF4FF46053BB60274BFB60BD
:100D4000FB6803F00703002B0CD0FB680733FB6044
:100D5000FB6823F00703FB60BA68FB68D31A1F4ADD
:100D60001344BB60FB687B601D4A7B6813601C4BAF
:100D700000225A607A68BB681344FB600822FB6853
:100D80009B1AFB60FB6823F00703FB60FB68154AB6
:100D90001360144B1B6800225A60124B1B68002220
:100DA0001A607B683B603B68FA68D21A3B685A60FD
:100DB0000C4B1A683B681A603B685B680A4A136010
:100DC0003B685B68094A1360094B4FF000421A60A8
:100DD00000BF1437BD4680BC704700BF4C010020E7
:100DE0004C390020543900205C390020583900204B
:100DF0006839002080B485B000AF7860274BFB6075
:100E000002E0FB681B68FB60FB681A687B689A421B
:100E1000F7D3FB68BB60FB685B68BA681A447B6801
:100E20009A4208D1FB685A687B685B681A44FB6881
:100E30005A60FB687B607B68BB607B685B68BA68F4
:100E40001A44FB681B689A4218D1FB681A68144B55
:100E50001B689A420DD07B685A68FB681B685B6808
:100E60001A447B685A60FB681B681A687B681A60C2
:100E700008E00B4B1A687B681A6003E0FB681A688D
:100E80007B681A60FA687B689A4202D0FB687A68CD
:100E90001A6000BF1437BD4680BC70474C39002033
:100EA0005439002080B584B000AF786039607B6829
:100EB000FB60FFF7C9FDFB681A68FB68DB6BF9682C
:100EC000096C01FB03F31A44FB689A60FB6800227B
:100ED0009A63FB681A68FB685A60FB681A68FB68CB
:100EE000DB6B013BF968096C01FB03F31A44FB68F7
:100EF000DA60FB68FF2283F84420FB68FF2283F856
:100F000045203B68002B14D1FB681B69002B1AD0CD
:100F1000FB681033184600F0DDFF0346002B12D0AB
:100F20000C4B4FF080521A60BFF34F8FBFF36F8F9F
:100F300009E0FB6810331846FFF74BFCFB682433CD
:100F40001846FFF746FCFFF797FD012318461037B8
:100F5000BD4680BD04ED00E080B58AB002AFF86008
:100F6000B9601346FB71FB68BA6802FB03F3FB61CF
:100F7000FB6948331846FFF701FEB861BB69002BD7
:100F80000DD0BB697B617B6948337B61FA79BB69B2
:100F9000009313467A69B968F86800F005F8BB69F0
:100FA00018462037BD4680BD80B584B000AFF860DC
:100FB000B9607A60FB70BB68002B03D1BB69BA696A
:100FC0001A6002E0BB697A681A60BB69FA68DA6382
:100FD000BB69BA681A640121B869FFF763FFFB783F
:100FE000BA68F968732002F077FB00BF1037BD467E
:100FF00080BD000080B58CB002AFF860B9607A6047
:101000003B6000237B62FB683B62FFF71DFD3B6A90
:101010009A6B3B6ADB6B9A4202D33B68022B36D158
:101020003B6A184603F072F9BA6879683B68009326
:101030000B4601465A2002F0C5FB3A68B968386A87
:1010400000F0F4F9F8613B6A5B6A002B10D03B6A50
:101050002433184600F03EFF0346002B13D04D4BBF
:101060004FF080521A60BFF34F8FBFF36F8F0AE0CB
:10107000FB69002B07D0474B4FF080521A60BFF33B
:101080004F8FBFF36F8FFFF7F7FC01237DE07B6885
:10109000002B10D1FFF7F0FC3B6A184603F036F93D
:1010A000BA6879683B6800930B4601465A2002F003
:1010B00089FB002369E07B6A002B06D107F114034A
:1010C000184600F05FFF01237B62FFF7D5FC00F0BC
:1010D0001DFDFFF7B9FC3B6A93F844305BB2B3F1F6
:1010E000FF3F03D13B6A002283F844203B6A93F818
:1010F00045305BB2B3F1FF3F03D13B6A002283F876
:101100004520FFF7B9FC3A1D07F1140311461846B4
:1011100000F04EFF0346002B24D1386A00F07EFA1F
:101120000346002B18D03B6A10337A6811461846E4
:1011300000F09AFE386A00F009FA00F0F5FC034668
:10114000002B7FF462AF134B4FF080521A60BFF355
:101150004F8FBFF36F8F58E7386A00F0F7F900F050
:10116000E3FC52E7386A00F0F1F900F0DDFC3B6A7D
:10117000184603F0CBF8BA6879683B6800930B46D1
:1011800001465A2002F01EFB002318462837BD46B0
:1011900080BD00BF04ED00E080B58CB000AFF8600A
:1011A000B9607A603B60FB68BB62EFF311824FF07D
:1011B000BF0383F31188BFF36F8FBFF34F8FBA6103
:1011C0007B61BB697B62BB6A9A6BBB6ADB6B9A42D1
:1011D00002D33B68022B39D1BB6A93F8453087F8BC
:1011E0002330BB6A9B6BFB61BB6A184603F08EF829
:1011F00001467B681A46602002F014FA3A68B96822
:10120000B86A00F013F997F92330B3F1FF3F12D118
:10121000BB6A5B6A002B16D0BB6A2433184600F009
:1012200059FE0346002B0ED07B68002B0BD07B6849
:1012300001221A6007E097F823300133DBB25AB27B
:10124000BB6A83F845200123FB620BE0BB6A1846AA
:1012500003F05CF801467B681A46602002F0E2F970
:101260000023FB627B6A3B613B6983F31188FB6A65
:1012700018463037BD4680BD90B58DB002AFF860DE
:10128000B9607A6000237B62FB683B62FFF7DCFB9E
:101290003B6A9B6BFB61FB69002B31D0B968386AF4
:1012A00000F02EF93B6A184603F030F8044600209F
:1012B00003F02CF801467A680123009313460A468E
:1012C00021465C2002F07EFAFB695A1E3B6A9A6353
:1012D0003B6A1B69002B0FD03B6A1033184600F0A5
:1012E000F9FD0346002B07D04F4B4FF080521A6098
:1012F000BFF34F8FBFF36F8FFFF7BEFB01238EE06D
:101300007B68002B15D1FFF7B7FB3B6A184602F04C
:10131000FDFF0446002002F0F9FF01467A68012330
:10132000009313460A4621465C2002F04BFA002344
:1013300075E07B6A002B06D107F11403184600F014
:1013400021FE01237B62FFF797FB00F0DFFBFFF735
:101350007BFB3B6A93F844305BB2B3F1FF3F03D1B0
:101360003B6A002283F844203B6A93F845305BB225
:10137000B3F1FF3F03D13B6A002283F84520FFF71A
:101380007BFB3A1D07F114031146184600F010FECE
:101390000346002B24D1386A00F02AF90346002BBB
:1013A00018D03B6A24337A681146184600F05CFD79
:1013B000386A00F0CBF800F0B7FB0346002B7FF44F
:1013C00065AF194B4FF080521A60BFF34F8FBFF3D8
:1013D0006F8F5BE7386A00F0B9F800F0A5FB55E7BE
:1013E000386A00F0B3F800F09FFB386A00F000F9AB
:1013F0000346002B3FF44AAF3B6A184602F086FFD3
:101400000446002002F082FF01467A68012300931F
:1014100013460A4621465C2002F0D4F90023184600
:101420002C37BD4690BD00BF04ED00E080B586B00E
:1014300000AFF860B9607A6000237B61FB689B6B4A
:101440003B61FB681B6C002B0DD1FB681B68002BFC
:101450004DD1FB689B68184600F0D0FE7861FB68B0
:1014600000229A6043E07B68002B19D1FB68586822
:10147000FB681B6C1A46B96803F065FDFB685A6887
:10148000FB681B6C1A44FB685A60FB685A68FB686F
:101490009B689A422BD3FB681A68FB685A6026E067
:1014A000FB68D868FB681B6C1A46B96803F04BFDF3
:1014B000FB68DA68FB681B6C5B421A44FB68DA6005
:1014C000FB68DA68FB681B689A4207D2FB689A6877
:1014D000FB681B6C5B421A44FB68DA607B68022B7A
:1014E00005D13B69002B02D03B69013B3B613B6965
:1014F0005A1CFB689A637B6918461837BD4680BD45
:1015000080B582B000AF786039607B681B6C002BBF
:1015100018D07B68DA687B681B6C1A447B68DA60D9
:101520007B68DA687B689B689A4203D37B681A6899
:101530007B68DA607B68D9687B681B6C1A46386800
:1015400003F001FD00BF0837BD4680BD80B584B003
:1015500000AF7860FFF778FA7B6893F84530FB734B
:1015600011E07B685B6A002B12D07B68243318463D
:1015700000F0B0FC0346002B01D000F05FFDFB7BC8
:10158000013BDBB2FB7397F90F30002BE9DC00E085
:1015900000BF7B68FF2283F84520FFF76DFAFFF755
:1015A00053FA7B6893F84430BB7311E07B681B6986
:1015B000002B12D07B681033184600F08BFC0346DA
:1015C000002B01D000F03AFDBB7B013BDBB2BB73CB
:1015D00097F90E30002BE9DC00E000BF7B68FF22AA
:1015E00083F84420FFF748FA00BF1037BD4680BD9E
:1015F00080B584B000AF7860FFF726FA7B689B6BFC
:10160000002B02D10123FB6001E00023FB60FFF708
:1016100033FAFB6818461037BD4680BD80B584B0EC
:1016200000AF7860FFF710FA7B689A6B7B68DB6B22
:101630009A4202D10123FB6001E00023FB60FFF727
:101640001BFAFB6818461037BD4680BD80B586B0D2
:1016500000AFF860B9607A60FB687B61FFF7F4F96E
:101660007B6993F844305BB2B3F1FF3F03D17B69F0
:10167000002283F844207B6993F845305BB2B3F1D4
:10168000FF3F03D17B69002283F84520FFF7F4F97F
:101690007B699B6B002B06D17B6924337A68B96820
:1016A000184600F0F7FB7869FFF750FF00BF1837C6
:1016B000BD4680BD80B58CB004AFF860B9603B60BA
:1016C0001346FB80FB889B001846FFF757FA7861AA
:1016D0007B69002B0ED05420FFF750FAF861FB69AC
:1016E000002B03D0FB697A691A6305E07869FFF77C
:1016F000DFFA01E00023FB61FB69002B13D0FA88BD
:1017000000230393FB690293FB6A0193BB6A009376
:101710003B68B968F86800F00EF8F86900F08AF8DC
:101720000123BB6102E04FF0FF33BB61BB69184688
:101730002037BD4680BD80B586B000AFF860B96087
:101740007A603B60BB6A186B7B689B001A46A521D8
:1017500003F004FCBB6A1A6B7B6803F18043013B16
:101760009B0013443B613B6923F007033B61BB686B
:10177000002B1FD000237B6112E0BA687B69134401
:101780001978BA6A7B69134434330A461A70BA6806
:101790007B6913441B78002B06D07B6901337B6186
:1017A0007B690F2BE9D900E000BFBB6A002283F8F8
:1017B000432003E0BB6A002283F834203B6A042BF9
:1017C00001D904233B62BB6A3A6ADA62BB6A3A6AAD
:1017D0005A64BB6A00229A64BB6A04331846FFF756
:1017E00017F8BB6A18331846FFF712F8BB6ABA6AD3
:1017F0001A613B6AC3F10502BB6A9A61BB6ABA6AA5
:101800005A62BB6A0022DA64BB6A002283F8502065
:101810003A68F9683869FFF78BF80246BB6A1A60C4
:101820007B6A002B02D07B6ABA6A1A6000BF183745
:10183000BD4680BDB0B584B002AF7860FFF704F953
:10184000394B1B680133384A1360384B1B68002B37
:1018500009D1364A7B681360334B1B68012B10D1CA
:1018600000F012FC0DE0324B1B68002B09D12F4B0E
:101870001B68DA6A7B68DB6A9A4202D82B4A7B686B
:1018800013602C4B1B6801332A4A13607B68002BC2
:1018900016D07B68184602F00DFC78687B6803F16F
:1018A00034017B68DA6A7B681B6B1D467B681B68AA
:1018B0001C467B681B6BE31A00932B4601F0BAF9B8
:1018C0007B68184602F07EFC7B68DB6A01229A4046
:1018D000194B1B681343184A13607B68DA6A134676
:1018E0009B0013449B00154A1A447B680433194635
:1018F0001046FEF799FFFFF7BFF80D4B1B68002B52
:101900000ED00A4B1B68DA6A7B68DB6A9A4207D200
:101910000B4B4FF080521A60BFF34F8FBFF36F8FA6
:1019200000BF0837BD46B0BD443A00206C390020E6
:10193000503A0020603A00204C3A002070390020D4
:1019400004ED00E080B584B000AF7860FFF77CF86C
:101950007B68002B02D13E4B1B6800E07B68FB607C
:10196000FB6804331846FEF7BAFF0346002B15D177
:10197000FB68DA6A374913469B0013449B000B440B
:101980001B68002B0AD1FB68DB6A012202FA03F311
:10199000DA43314B1B6813402F4A1360FB689B6A84
:1019A000002B04D0FB6818331846FEF798FF2B4B2A
:1019B0001B680133294A1360254B1B68FA689A4259
:1019C00018D1FB68043319462548FEF72DFF254B37
:1019D0001B680133234A1360FB68184602F096FC2B
:1019E00003461946222001F0E1FDFB68184601F08C
:1019F00089F916E01C4B1B68013B1B4A1360FB680E
:101A0000184602F083FC03461946222001F0CEFD61
:101A1000FB68184601F076F9F86800F0A1FB00F0C9
:101A2000AFFBFFF729F8114B1B68002B0CD0084BBC
:101A30001B68FA689A4207D10D4B4FF080521A602A
:101A4000BFF34F8FBFF36F8F00BF1037BD4680BD10
:101A50006C390020703900204C3A0020603A002098
:101A6000183A00202C3A0020443A0020503A002036
:101A700004ED00E080B584B002AF1D4B019300235C
:101A80000093002380221B491B48FFF713FE786058
:101A90007B68012B02D100F0B3FD78607B68012BDD
:101AA00022D14FF0BF0383F31188BFF36F8FBFF3D1
:101AB0004F8F3B60114B4FF0FF321A60104B0122E9
:101AC0001A60104B00221A600F4B1A68084B1B68F3
:101AD0009A4202D102F0D2FA04E00B4B1B6818467E
:101AE00002F02CFBFEF790FF00BF0837BD4680BD1B
:101AF000683A0020C457000855200008643A0020C6
:101B0000503A0020483A00206C39002080B400AFE1
:101B1000044B1B680133034A136000BFBD4680BC01
:101B2000704700BF6C3A002080B584B000AF00233E
:101B3000FB600023BB60FEF787FF3B4B1B68013B4C
:101B4000394A1360384B1B68002B65D1374B1B6833
:101B5000002B61D032E0364BDB68DB68FB60FB6852
:101B600018331846FEF7BBFEFB6804331846FEF731
:101B7000B6FEFB68184602F025FBFB68DB6A012213
:101B80009A402C4B1B6813432A4A1360FB68DA6A9D
:101B900013469B0013449B00274A1A44FB680433F6
:101BA00019461046FEF740FEFB68DA6A234B1B68B5
:101BB000DB6A9A4202D3224B01221A601C4B1B683B
:101BC000002BC8D1FB68002B01D000F0D9FA1D4BC7
:101BD0001B687B607B68002B10D000F045F8034643
:101BE000002B02D0164B01221A607B68013B7B6000
:101BF0007B68002BF1D1134B00221A60104B1B683D
:101C0000002B09D00123BB600F4B4FF080521A60AC
:101C1000BFF34F8FBFF36F8FFEF72EFFBB681846E1
:101C20001037BD4680BD00BF6C3A0020443A00200A
:101C3000043A00204C3A0020703900206C39002012
:101C4000583A0020543A002004ED00E080B483B0FC
:101C500000AF044B1B687B607B6818460C37BD46A1
:101C600080BC7047483A002080B586B000AF0023A2
:101C70007B61484B1B68002B40F08280464B1B6801
:101C800001333B61444A3B6913603B69002B10D12F
:101C9000424B1B68FB60424B1B68404A1360404A42
:101CA000FB6813603F4B1B6801333E4A136000F032
:101CB00067FA3D4B1B683A699A424CD3374B1B6815
:101CC0001B68002B04D1384B4FF0FF321A6042E002
:101CD000324B1B68DB68DB68BB60BB685B687B60A2
:101CE0003A697B689A4203D22F4A7B68136032E0DC
:101CF000BB6804331846FEF7F2FDBB689B6A002BF5
:101D000004D0BB6818331846FEF7E9FDBB681846D7
:101D100002F058FABB68DB6A01229A40234B1B6829
:101D20001343224A1360BB68DA6A13469B001344CC
:101D30009B001F4A1A44BB68043319461046FEF73D
:101D400073FDBB68DA6A1B4B1B68DB6A9A42B5D32A
:101D500001237B61B2E7174B1B68DA6A144913460B
:101D60009B0013449B000B441B68012B01D90123EA
:101D70007B61114B1B68002B07D001237B6104E0C2
:101D80000E4B1B6801330D4A13607B6918461837E8
:101D9000BD4680BD6C3A0020483A0020FC39002046
:101DA000003A00205C3A0020643A00204C3A0020BF
:101DB000703900206C390020583A0020543A002035
:101DC00080B584B000AF224B1B68002B03D0214BA1
:101DD00001221A6038E01F4B00221A601E4B1B685C
:101DE0007B607B68B3FA83F3FB70FB78C3F11F035E
:101DF000FB60FA6813469B0013449B00174A134488
:101E0000BB60BB685B685A68BB685A60BB685A684D
:101E1000BB6808339A4204D1BB685B685A68BB68E8
:101E20005A60BB685B68DB680D4A13600C4B1A682C
:101E30000C4B1B689A4202D102F020F904E0084BD7
:101E40001B68184602F07AF900BF1037BD4680BD06
:101E50006C3A0020583A00204C3A0020703900209B
:101E60006C390020683A002080B582B000AF7860FD
:101E70003960074B1B68183319467868FEF7F7FC82
:101E80000121386800F044FB00BF0837BD4680BD23
:101E90006C39002080B584B000AFF860B9607A601A
:101EA0000B4B1B6818331946F868FEF7BDFC7B68BE
:101EB000002B02D04FF0FF33BB60242001F058FB11
:101EC0007968B86800F024FB00BF1037BD4680BDBC
:101ED0006C39002080B584B000AF78607B68DB6827
:101EE000DB68BB60BB6818331846FEF7F8FC1F4B75
:101EF0001B68002B20D1BB6804331846FEF7EFFCAB
:101F0000BB68184602F05EF9BB68DB6A01229A40A2
:101F1000174B1B681343164A1360BB68DA6A1346F3
:101F20009B0013449B00134A1A44BB6804331946B0
:101F30001046FEF779FC05E0BB68183319460E48D9
:101F4000FEF772FCBB68DA6A0C4B1B68DB6A9A42CC
:101F500005D90123FB600A4B01221A6001E000232E
:101F6000FB60FB6818461037BD4680BD6C3A002008
:101F70004C3A002070390020043A00206C390020CF
:101F8000583A002080B483B000AF7860064B1A68DE
:101F90007B681A60054B1A687B685A6000BF0C3773
:101FA000BD4680BC704700BF5C3A0020483A002024
:101FB00080B586B000AF78603960FEF745FD1D4BF7
:101FC0001B683B617B685B683A69D31AFB603B68BE
:101FD0001B68B3F1FF3F02D100237B6123E07B68E4
:101FE0001A68154B1B689A4207D07B685A683B6990
:101FF0009A4202D801237B6115E03B681A68FB68AE
:102000009A420BD93B681A68FB68D21A3B681A607F
:102010007868FFF7B7FF00237B6104E03B6800228C
:102020001A6001237B61FEF727FD7B69184618378C
:10203000BD4680BD483A00205C3A002080B400AF25
:10204000034B01221A6000BFBD4680BC704700BF31
:10205000583A002080B582B000AF786000F054F8A4
:10206000074B1B68012B07D9064B4FF080521A60B3
:10207000BFF34F8FBFF36F8F02F01AFDEEE700BF83
:102080007039002004ED00E080B582B000AF00237D
:102090007B600CE07A6813469B0013449B00124A55
:1020A00013441846FEF795FB7B6801337B607B6821
:1020B000042BEFD90D48FEF78CFB0D48FEF789FB8A
:1020C0000C48FEF786FB0C48FEF783FB0B48FEF737
:1020D00080FB0B4B054A1A600A4B054A1A6000BF89
:1020E0000837BD4680BD00BF70390020D4390020BC
:1020F000E8390020043A0020183A0020303A002045
:10210000FC390020003A002080B582B000AF19E011
:10211000FEF79AFC0F4BDB68DB687B607B6804335F
:102120001846FEF7DCFB0C4B1B68013B0A4A1360A8
:102130000A4B1B68013B094A1360FEF79DFC786857
:1021400000F00EF8054B1B68002BE1D100BF0837EB
:10215000BD4680BD183A0020443A00202C3A0020A9
:1021600080B582B000AF78607B681B6B1846FEF7C5
:102170009FFD7868FEF79CFD00BF0837BD4680BD17
:1021800080B483B000AF0C4B1B681B68002B04D1DC
:102190000A4B4FF0FF321A6008E0074B1B68DB6800
:1021A000DB687B607B685B68044A136000BF0C37A8
:1021B000BD4680BC704700BFFC390020643A002057
:1021C00080B483B000AF0B4B1B68002B02D10123FE
:1021D0007B6008E0084B1B68002B02D102237B6068
:1021E00001E000237B607B6818460C37BD4680BC4D
:1021F000704700BF503A00206C3A002080B584B090
:1022000000AF78607B68BB600023FB607B68002BBD
:1022100054D0BB689B6C5A1EBB689A64BB68DA6A70
:10222000BB685B6C9A4249D0BB689B6C002B45D164
:10223000BB6804331846FEF752FB0346002B15D14A
:10224000BB68DA6A204913469B0013449B000B4489
:102250001B68002B0AD1BB68DB6A012202FA03F378
:10226000DA431A4B1B681340184A13607B681946FF
:102270004A2001F09BF9BB685A6CBB68DA62BB6804
:10228000DB6AC3F10502BB689A61BB68DB6A0122A5
:102290009A400E4B1B6813430C4A1360BB68DA6A02
:1022A00013469B0013449B00074A1A44BB6804333F
:1022B00019461046FEF7B8FA0123FB60FB68184682
:1022C0001037BD4680BD00BF703900204C3A002059
:1022D00080B588B002AFF860B9607A603B60FEF705
:1022E000B3FB2B4B1B6893F85030DBB2022B1AD098
:1022F000274B1B68D96CFA68D2430A40DA64244B36
:102300001B68012283F850203B68002B0BD0012171
:10231000386800F0FDF81F4B4FF080521A60BFF391
:102320004F8FBFF36F8FFEF7A7FBFEF78DFB7A6829
:102330003B6800931346BA68F968402001F042FAFE
:102340007B68002B04D0124B1B68DA6C7B681A6028
:102350000F4B1B6893F85030DBB2022B02D00023E6
:102360007B6108E00A4B1B68D96CBA68D2430A400B
:10237000DA6401237B61064B1B68002283F850203E
:10238000FEF77AFB7B6918461837BD4680BD00BF53
:102390006C39002004ED00E080B58EB002AFF8602B
:1023A000B9603B601346FB710123FB62FB68BB62B3
:1023B000EFF311824FF0BF0383F31188BFF36F8FE8
:1023C000BFF34F8FFA61BB61FB697B623B68002BF7
:1023D00003D0BB6ADA6C3B681A60BB6A93F8503072
:1023E00087F82330BB6A022283F85020FB79042B44
:1023F00028D801A252F823F0452400080D24000833
:102400001B240008272400082F240008BB6ADA6C6C
:10241000BB681A43BB6ADA6415E0BB6ADB6C5A1C02
:10242000BB6ADA640FE0BB6ABA68DA640BE097F85B
:102430002330022B03D0BB6ABA68DA6403E00023BE
:10244000FB6200E000BFBB6A184601F05FFFF9794C
:102450003B68BA6B019200930B46BA6801463F2075
:1024600001F042FA97F82330012B3AD1224B1B6836
:10247000002B20D1BB6A04331846FEF730FABB6A42
:10248000184601F09FFEBB6ADB6A01229A401B4B93
:102490001B681343194A1360BB6ADA6A13469B0030
:1024A00013449B00164A1A44BB6A0433194610466B
:1024B000FEF7BAF905E0BB6A183319461148FEF772
:1024C000B3F9BB6ADA6A104B1B68DB6A9A4208D917
:1024D000BB6B002B02D0BB6B01221A600B4B01229D
:1024E0001A607B6A7B617B6983F31188FB6A1846FB
:1024F0003037BD4680BD00BF6C3A00204C3A00200A
:1025000070390020043A00206C390020583A00202D
:1025100080B584B000AF78603960324B1B68FB60D7
:10252000314B1B6804331846FEF7D9F90346002BDC
:102530000BD12D4B1B68DB6A012202FA03F3DA434D
:102540002A4B1B681340294A13607B68B3F1FF3F95
:1025500010D13B68002B0DD0234B1B681B21184664
:1025600001F074FE204B1B68043319462048FEF727
:102570005BF932E0FA687B681344BB601A4B1B6856
:10258000BA685A60BA68FB689A420FD2164B1B6849
:102590000421184601F05AFE164B1A68124B1B68AC
:1025A000043319461046FEF762F916E00E4B1B681D
:1025B0000421184601F04AFE0F4B1A680A4B1B68AB
:1025C000043319461046FEF752F90C4B1B68BA68E3
:1025D0009A4202D2094ABB68136000BF1037BD4659
:1025E00080BD00BF483A00206C3900204C3A0020E2
:1025F000303A0020003A0020FC390020643A0020E4
:1026000080B584B002AF00237B6000F0CDFA0A4BA6
:102610001B68002B0BD0094B01930423009300236C
:102620004FF4807206490748FFF744F878607B68EA
:1026300018460837BD4680BDA03A0020A43A0020C5
:10264000CC570008E527000880B588B002AFF860D5
:10265000B9607A603B602820FEF790FA78617B6968
:10266000002B0DD07B69002283F824207B69019325
:102670003B6A00933B687A68B968F86800F005F82F
:102680007B6918461837BD4680BD80B584B000AF61
:10269000F860B9607A603B60FB69002B1ED000F0E7
:1026A00083FAFB69FA681A60FB69BA689A61FB6988
:1026B0003A68DA61FB69BA691A62FB690433184641
:1026C000FEF7A6F87B68002B08D0FB6993F824304E
:1026D00043F00403DAB2FB6983F8242000BF10370B
:1026E000BD4680BD80B588B000AFF860B9607A6043
:1026F0003B600023FB611A4B1B68002B2AD0BB6890
:102700003B617B687B61FB68BB61BB68052B18DCA8
:10271000FFF756FD0346022B09D1114B186807F14C
:1027200010010023BA6AFEF765FCF86112E00C4B59
:10273000186807F1100100230022FEF75BFCF86126
:1027400008E0074B186807F1100100233A68FEF70C
:1027500023FDF861FB6918462037BD4680BD00BFE8
:10276000A03A002080B586B002AF786039601C4B7B
:102770001B68DB68DB68FB60FB6804331846FEF708
:10278000AEF8FB6893F8243003F00403002B15D057
:10279000FB689A697B68D1187B683A68F86800F032
:1027A000C3F80346002B12D00023009300237A685D
:1027B0000021F868FFF796FFB86008E0FB6893F81F
:1027C000243023F00103DAB2FB6883F82420FB688D
:1027D0001B6AF868984700BF1037BD4680BD00BF30
:1027E000983A002080B584B000AF786007F1080304
:1027F000184600F057F8F860BB681946F86800F012
:1028000003F800F0D3F8F1E780B584B000AF78604A
:102810003960FFF77BF907F10803184600F064F808
:10282000F860BB68002B30D13B68002B0AD17A6876
:10283000FB689A4206D8FFF777F9F9687868FFF7DE
:1028400091FF24E03B68002B08D0134B1B681B68EA
:10285000002B01D1012300E000233B600F4B1868DF
:102860007A68FB68D31A3A681946FEF7EFFEFFF75D
:102870005BF90346002B0AD1094B4FF080521A60D6
:10288000BFF34F8FBFF36F8F01E0FFF74DF900BF2C
:102890001037BD4680BD00BF9C3A0020A03A002002
:1028A00004ED00E080B485B000AF78600D4B1B688C
:1028B0001B68002B01D1012200E000227B681A6016
:1028C0007B681B68002B05D1064B1B68DB681B6807
:1028D000FB6001E00023FB60FB6818461437BD462F
:1028E00080BC7047983A002080B584B000AF786013
:1028F000FFF7ACF9F8600B4B1B68FA689A4205D2F7
:1029000000F0FCF87B6801221A6002E07B6800227C
:102910001A60044AFB681360FB6818461037BD460E
:1029200080BD00BFA83A002080B586B000AFF86037
:10293000B9607A603B6000237B61FB68BA685A60CB
:10294000FB68FA681A61BA687B689A4212D87A689A
:102950003B68D21AFB689B699A4202D301237B61D0
:102960001BE0104B1A68FB68043319461046FDF74C
:102970007EFF12E07A683B689A4206D2BA683B68EA
:102980009A4202D301237B6107E0074B1A68FB6878
:10299000043319461046FDF76AFF7B69184618375D
:1029A000BD4680BD9C3A0020983A002080B58AB090
:1029B00002AF90E0BB68002BC0F28D803B69FB61E9
:1029C000FB695B69002B04D0FB6904331846FDF7F3
:1029D00086FF3B1D1846FFF787FFB861BB68092BD0
:1029E00078D801A252F823F0112A0008112A000811
:1029F000112A00086B2A00087F2A0008AB2A000869
:102A0000112A0008112A00086B2A00087F2A0008F2
:102A1000FB6993F8243043F00103DAB2FB6983F8D1
:102A20002420FA68FB699B69D118FB68BA69F869C8
:102A3000FFF77AFF0346002B4DD0FB691B6AF8694C
:102A40009847FB6993F8243003F00403002B42D02D
:102A5000FA68FB699B691A44002300930023002154
:102A6000F869FFF73FFE786135E0FB6993F82430A1
:102A700023F00103DAB2FB6983F824202BE0FB6921
:102A800093F8243043F00103DAB2FB6983F8242081
:102A9000FA68FB699A61FB699A69BB69D118BB69DD
:102AA000BA69F869FFF740FF15E0FB6993F8243035
:102AB00003F00203002B03D1F869FEF7F9F80AE0EE
:102AC000FB6993F8243023F00103DAB2FB6983F841
:102AD000242000E000BF084B1B6807F1080100221A
:102AE0001846FEF7C9FB0346002B7FF463AF00BF17
:102AF0002037BD4680BD00BFA03A002080B588B019
:102B000002AF3AE0264B1B68DB681B687B61244BF5
:102B10001B68DB68DB683B613B6904331846FDF7E3
:102B2000DEFE3B691B6A386998473B6993F824309D
:102B300003F00403002B20D03B699A697B6913449E
:102B4000FB60FA687B699A420ED93B69FA685A6061
:102B50003B693A691A61124B1A683B69043319469A
:102B60001046FDF784FE08E00023009300237A69F5
:102B700000213869FFF7B6FDB860094B1B681B6878
:102B8000002BBFD1064B1B687B60064B1B68044AB9
:102B90001360044A7B68136000BF1837BD4680BDD0
:102BA000983A00209C3A002080B500AFFDF74CFF1A
:102BB0000D4B1B68002B13D10C48FDF70AFE0C4887
:102BC000FDF707FE0B4B094A1A600B4B084A1A60C7
:102BD00000220C210520FEF7BFF90246024B1A60C5
:102BE000FDF74AFF00BF80BDA03A0020703A0020E8
:102BF000843A0020983A00209C3A002080B584B0A6
:102C000000AF78607B68BB60FDF71EFFBB6893F880
:102C1000243003F00103002B02D10023FB6001E00C
:102C20000123FB60FDF728FFFB6818461037BD46FF
:102C300080BD000080B586B002AFF860B9607A60F0
:102C40003B6005222B49B86802F06EF90346002B61
:102C50004BD0294B1B68072B03D9284801F042FCB5
:102C600044E0254B1A68264913469B0013449B00F9
:102C70000B44FA681A60204B1A68214913469B00DE
:102C800013449B000B440433BA681A601A4B1A6849
:102C90001B4913469B0013449B000B4408337A687E
:102CA0001A60154B1A68164913469B0013449B0083
:102CB0000B440C333A681A600F4B1A6810491346DC
:102CC0009B0013449B000B441033BA691A600A4BF3
:102CD0001B680133084A1360BB6900933B687A683C
:102CE000B968F86800F0CAF800E000BF1037BD46C8
:102CF00080BD00BFD45700084C3B0020DC570008C3
:102D0000AC3A002080B584B000AF7860594B1B68A6
:102D1000002B00F0AB800023FB600DE05649FA6801
:102D200013469B0013449B000B441A687B689A422D
:102D300008D0FB680133FB604E4B1B68FA689A426F
:102D4000ECD300E000BF4B4B1B685A1EFB689A4255
:102D500011D1FA6813469B0013449B00464A134462
:102D600014220021184602F0F9F8424B1B68013B7F
:102D7000404A13607BE03F4B1B68FA689A4276D268
:102D80003C4B1B685A1E3C4913469B0013449B0056
:102D90000B4419683848FA6813469B0013449B009B
:102DA00003441960334B1B685A1E334913469B007A
:102DB00013449B000B44043319682F48FA681346E8
:102DC0009B0013449B00034404331960294B1B6888
:102DD0005A1E294913469B0013449B000B44083399
:102DE00019682548FA6813469B0013449B00034466
:102DF000083319601F4B1B685A1E1F4913469B005E
:102E000013449B000B440C3319681B48FA681346A3
:102E10009B0013449B0003440C331960154B1B6843
:102E20005A1E154913469B0013449B000B44103354
:102E300019681148FA6813469B0013449B00034429
:102E4000103319600B4B1B685A1E13469B0013442A
:102E50009B00094A134414220021184602F07EF810
:102E6000044B1B68013B034A136000E000BF1037AE
:102E7000BD4680BD4C3B0020AC3A002080B58AB0F6
:102E800000AFF860B9607A603B6007F11403142268
:102E90000021184602F062F8FB687B61BB68BB61E9
:102EA0007B68FB613B683B623B6B7B6207F1140311
:102EB000184600F043FF00BF2837BD4680BD000024
:102EC00080B483B000AF214B7B607B6803221A6122
:102ED0007B6803225A617B681D4A9A617B681D4AA0
:102EE000DA617B684FF480621A627B6800229A6222
:102EF0007B6800225A627B680022DA627B68144A8F
:102F00001A667B68144A5A667B6810229A667B6848
:102F100000221A677B680022DA667B6800225A6703
:102F20007B6807330D4A106818607B680C4A10688C
:102F300018609188927999809A717B6820229A71A1
:102F400000BF0C37BD4680BC704700BF6841002001
:102F50002C580008503B0020503F002038580008F3
:102F60003C58000880B58AB000AFF860B9607A605C
:102F70003C4B1B78002B01D1FFF7A2FFFA681346E8
:102F80005B001344DB006033364A1344BB61BB680B
:102F9000FB61BB691B693B62BB69DB687B6100232A
:102FA0007B623A6A7B699A422AD9BB699A683B6A12
:102FB000D31A3B613A697B68934228BF13463B6151
:102FC000BB695A683B6A13443A691946F86901F0CB
:102FD000BAFF7A6A3B6913447B62FA693B6913441E
:102FE000FB617A683B69D31A7B603A6A3B69134498
:102FF0003B62BB699A683B6A9A4201D100233B62FB
:103000007A693B6AD31A3B613A697B68934228BF6D
:1030100013463B613B69002B18D0BB695A683B6A79
:1030200013443A691946F86901F08DFF7A6A3B69E1
:1030300013447B62FA693B691344FB617A683B691C
:10304000D31A7B603A6A3B6913443B627B6A002B6C
:1030500002D0BB693A6A1A617B6A18462837BD46B6
:1030600080BD00BF6841002080B58AB000AFF86025
:10307000B9607A60BB687B62FB685A1C13465B00D0
:103080001344DB003F4A13443B623B6A1B69FB610C
:103090003B6ADB68BB61FA69BB699A4254D83B6AF8
:1030A0009A68BB69D31A013B7B617A697B689A4253
:1030B0000FD33B6A5A68BB6913447A68796A184629
:1030C00001F041FFBA697B681A443B6ADA60012368
:1030D00054E07A69FB6913447B617A697B689A42A0
:1030E0004BD33B6A9A68BB69D31A3B613A697B68E8
:1030F0009A420ED93B6A5A68BB6913447A68796A66
:10310000184601F020FFBA697B681A443B6ADA600E
:1031100018E03B6A5A68BB6913443A69796A1846F1
:1031200001F011FF3B6A58687A6A3B69D1187A68E6
:103130003B69D31A1A4601F006FF7A683B69D21A36
:103140003B6ADA60012319E0FA69BB69D31A013BD3
:103150007B617A697B689A420FD33B6A5A68BB6984
:1031600013447A68796A184601F0EDFEBA697B6803
:103170001A443B6ADA60012300E00023184628372E
:10318000BD4680BD6841002080B487B000AFF860C4
:10319000B9607A6000233B6102E03B6901333B6127
:1031A000BA683B6913441B78002BF6D13A697B68F7
:1031B0009A4201D97B683B613B69FE2B06D8FB68CC
:1031C0005A1CFA603A69D2B21A7011E0FB685A1CB4
:1031D000FA60FF221A70FB685A1CFA603A69D2B290
:1031E0001A70FB685A1CFA603A69120AD2B21A7055
:1031F00000237B610AE0FB685A1CFA60BA68511C24
:10320000B96012781A707B6901337B617A693B6916
:103210009A42F0D3FB6818461C37BD4680BC704705
:1032200080B483B000AF78607B68043318460C37F5
:10323000BD4680BC704780B582B000AFFB1C012248
:1032400019460120FFF78EFE03467B607B68002B4A
:1032500047DDFB78042B1AD0042B06DC022B10D0A0
:10326000022B11DC012B09D02DE0062B15D0062BEB
:1032700010DB072B14D0802B15D024E000F0E2FBEC
:103280002FE000F09BFC2CE000F052FE29E000F063
:103290003BFE26E000F0B8FC23E001F0E5F820E07A
:1032A00001F0C4F81DE0FB1C012219460120FFF7C4
:1032B00059FE03467B607B68002B0FDDFB781846C8
:1032C00001F034F80AE0FB785BB2002B08DAFB1C53
:1032D000012219460120FFF745FE01E000BF00E092
:1032E00000BF00BF0837BD4680BD000080B58CB070
:1032F00000AF01233B713B1D0133FB61FB69FB62A6
:10330000304B5B69BB620BE0FB6A5A1CFA62BA6A1B
:10331000D2B262F07F02D2B21A70BB6ADB09BB6222
:10332000BB6A7F2BF0D8FB6A5A1CFA62BA6AD2B227
:103330001A70FB6AFB61244B1B68BB61214BDB6885
:10334000BA69D31A7B61FB697B627B693B620BE0E4
:103350007B6A5A1C7A623A6AD2B262F07F02D2B2B7
:103360001A703B6ADB093B623B6A7F2BF0D87B6AB1
:103370005A1C7A623A6AD2B21A707B6AFB61FA69A5
:103380003B1DD31A1A463B1D19460120FFF76CFE60
:1033900003463B613B69002B09D00A4ABB69D360F5
:1033A000084B1B78013BDAB2064B1A7004E0054B60
:1033B0005B690133034A53613B6918463037BD46A8
:1033C00080BD00BF603F0020041000E080B58AB0DF
:1033D00000AFF860B9607A60624B1B78012B10D0A7
:1033E000604B1B78002B00F09F805E4B1B78022BFC
:1033F00008D1FFF77BFF5B4B1B78012B40F09680D9
:1034000000E000BF7B681F2B09D8564BDA697B6848
:1034100022FA03F303F00103002B40F089807B685C
:10342000172B07D8FB68013BFB607B68DAB2FB68AF
:103430001A703DE0BA68FB68D31AFB61FB697F2B09
:1034400012D9FB68013BFB60FB69DB09DAB2FB6860
:103450001A70FB68013BFB60FB69DBB263F07F0322
:10346000DAB2FB681A7006E0FB68013BFB60FB699F
:10347000DAB2FB681A707B687F2B12D9FB68013BBC
:10348000FB607B68DB09DAB2FB681A70FB68013B02
:10349000FB607B68DBB263F07F03DAB2FB681A7013
:1034A00006E0FB68013BFB607B68DAB2FB681A70E0
:1034B0002D4B1B68BB612B4BDB68BA69D31A7B6150
:1034C000BB687B627B693B620BE07B6A5A1C7A6259
:1034D0003A6AD2B262F07F02D2B21A703B6ADB095A
:1034E0003B623B6A7F2BF0D87B6A5A1C7A623A6A4D
:1034F000D2B21A707B6ABB60BA68FB68D31A1A46EC
:10350000F9680120FFF7B0FD03463B613B69002BE2
:1035100003D0144ABB69D3600BE0124B1B78013314
:10352000DAB2104B1A7004E000BF02E000BF00E006
:1035300000BF0E4BD3F884200C4BD3F888309A424E
:103540000BD0084B9B78002B07D1064B01229A70B9
:10355000FFF771FE034B00229A7000BF2837BD466B
:1035600080BD00BF603F0020041000E068410020E3
:1035700080B584B000AF7860EFF311834FF0200185
:1035800081F31188FB600848FFF74AFEB8607A684B
:10359000B968B868FFF71AFFFB6883F3118800BFAA
:1035A0001037BD4680BD00BF903F002080B588B079
:1035B00000AF78603960EFF311834FF0200181F3A1
:1035C00011887B611648FFF72BFE38613B69FB6071
:1035D000FB68FB613B68BB610BE0FB695A1CFA614D
:1035E000BA69D2B262F07F02D2B21A70BB69DB094B
:1035F000BB61BB697F2BF0D8FB695A1CFA61BA69C1
:10360000D2B21A70FB69FB607A68F9683869FFF713
:10361000DDFE7B6983F3118800BF2037BD4680BD86
:10362000903F002080B58CB000AFF860B9607A6040
:10363000EFF311834FF0200181F31188FB612548DE
:10364000FFF7EEFDB861BB697B617B69FB62BB681C
:10365000BB620BE0FB6A5A1CFA62BA6AD2B262F031
:103660007F02D2B21A70BB6ADB09BB62BB6A7F2BD6
:10367000F0D8FB6A5A1CFA62BA6AD2B21A70FB6AB4
:103680007B617B697B627B683B620BE07B6A5A1CD7
:103690007A623A6AD2B262F07F02D2B21A703B6AA0
:1036A000DB093B623B6A7F2BF0D87B6A5A1C7A624B
:1036B0003A6AD2B21A707B6A7B61FA687969B86932
:1036C000FFF784FEFB6983F3118800BF3037BD46E6
:1036D00080BD00BF903F002080B58EB000AFF86085
:1036E000B9607A603B60EFF311834FF0200181F302
:1036F0001188FB613248FFF793FDB861BB697B61BC
:103700007B697B63BB683B630BE07B6B5A1C7A6312
:103710003A6BD2B262F07F02D2B21A703B6BDB0915
:103720003B633B6B7F2BF0D87B6B5A1C7A633A6B05
:10373000D2B21A707B6B7B617B69FB627B68BB6278
:103740000BE0FB6A5A1CFA62BA6AD2B262F07F02DC
:10375000D2B21A70BB6ADB09BB62BB6A7F2BF0D89E
:10376000FB6A5A1CFA62BA6AD2B21A70FB6A7B61AF
:103770007B697B623B683B620BE07B6A5A1C7A6226
:103780003A6AD2B262F07F02D2B21A703B6ADB09A7
:103790003B623B6A7F2BF0D87B6A5A1C7A623A6A9A
:1037A000D2B21A707B6A7B61FA687969B869FFF7EF
:1037B0000DFEFB6983F3118800BF3837BD4680BD1D
:1037C000903F002080B590B000AFF860B9607A609B
:1037D0003B60EFF311834FF0200181F31188FB610F
:1037E0004048FFF71DFDB861BB697B617B69FB63E6
:1037F000BB68BB630BE0FB6B5A1CFA63BA6BD2B2BB
:1038000062F07F02D2B21A70BB6BDB09BB63BB6B89
:103810007F2BF0D8FB6B5A1CFA63BA6BD2B21A70CA
:10382000FB6B7B617B697B637B683B630BE07B6B42
:103830005A1C7A633A6BD2B262F07F02D2B21A702B
:103840003B6BDB093B633B6B7F2BF0D87B6B5A1CDC
:103850007A633A6BD2B21A707B6B7B617B69FB62D5
:103860003B68BB620BE0FB6A5A1CFA62BA6AD2B2CE
:1038700062F07F02D2B21A70BB6ADB09BB62BB6A1C
:103880007F2BF0D8FB6A5A1CFA62BA6AD2B21A705D
:10389000FB6A7B617B697B62BB6C3B620BE07B6A92
:1038A0005A1C7A623A6AD2B262F07F02D2B21A70BD
:1038B0003B6ADB093B623B6A7F2BF0D87B6A5A1C70
:1038C0007A623A6AD2B21A707B6A7B61FA68796965
:1038D000B869FFF77BFDFB6983F3118800BF4037B0
:1038E000BD4680BD903F002080B592B000AFF8602B
:1038F000B9607A603B60EFF311834FF0200181F3F0
:103900001188FB614E48FFF78BFCB861BB697B6196
:103910007B697B64BB683B640BE07B6C5A1C7A64FC
:103920003A6CD2B262F07F02D2B21A703B6CDB0901
:103930003B643B6C7F2BF0D87B6C5A1C7A643A6CEE
:10394000D2B21A707B6C7B617B69FB637B68BB6363
:103950000BE0FB6B5A1CFA63BA6BD2B262F07F02C7
:10396000D2B21A70BB6BDB09BB63BB6B7F2BF0D889
:10397000FB6B5A1CFA63BA6BD2B21A70FB6B7B6199
:103980007B697B633B683B630BE07B6B5A1C7A6310
:103990003A6BD2B262F07F02D2B21A703B6BDB0993
:1039A0003B633B6B7F2BF0D87B6B5A1C7A633A6B83
:1039B000D2B21A707B6B7B617B69FB623B6DBB6231
:1039C0000BE0FB6A5A1CFA62BA6AD2B262F07F025A
:1039D000D2B21A70BB6ADB09BB62BB6A7F2BF0D81C
:1039E000FB6A5A1CFA62BA6AD2B21A70FB6A7B612D
:1039F0007B697B627B6D3B620BE07B6A5A1C7A625F
:103A00003A6AD2B262F07F02D2B21A703B6ADB0924
:103A10003B623B6A7F2BF0D87B6A5A1C7A623A6A17
:103A2000D2B21A707B6A7B61FA687969B869FFF76C
:103A3000CDFCFB6983F3118800BF4837BD4680BDCC
:103A4000903F002080B58CB000AF594B1B78002B05
:103A500040F0AA80564B01221A70EFF311834FF009
:103A6000200181F31188FB600A2252490120FFF7EF
:103A7000FBFAFB6883F311880A20FFF779FDEFF367
:103A800011834FF0200181F31188BB604A48FFF792
:103A9000C7FB78607B683B603B68FB62444B5B68BC
:103AA000BB620BE0FB6A5A1CFA62BA6AD2B262F0DD
:103AB0007F02D2B21A70BB6ADB09BB62BB6A7F2B82
:103AC000F0D8FB6A5A1CFA62BA6AD2B21A70FB6A60
:103AD0003B603B687B62364B9B683B620BE07B6ADA
:103AE0005A1C7A623A6AD2B262F07F02D2B21A707B
:103AF0003B6ADB093B623B6A7F2BF0D87B6A5A1C2E
:103B00007A623A6AD2B21A707B6A3B603B68FB61A8
:103B1000274B1B69BB610BE0FB695A1CFA61BA6950
:103B2000D2B262F07F02D2B21A70BB69DB09BB610C
:103B3000BB697F2BF0D8FB695A1CFA61BA69D2B213
:103B40001A70FB693B603B687B6102233B610BE0C1
:103B50007B695A1C7A613A69D2B262F07F02D2B2B2
:103B60001A703B69DB093B613B697F2BF0D87B69AD
:103B70005A1C7A613A69D2B21A707B693B6018228A
:103B800039687868FFF722FCBB6883F31188084B1B
:103B90005B6A002B02D0064B5B6A984700F0C8F9BD
:103BA00000F0B2F900F060FC00BF3037BD4680BDC8
:103BB000603F002030590008903F002080B582B05F
:103BC00000AFEFF311834FF0200181F311887B6088
:103BD0000B48FFF725FB38600A4B1B78002B07D0FA
:103BE0000B2239683868FFF7F1FB064B00221A7088
:103BF0007B6883F3118800BF0837BD4680BD00BFD6
:103C0000903F0020603F002080B58CB000AFEFF304
:103C100011834FF0200181F31188FB604548FFF7C5
:103C2000FFFAB860BB687B607B68FB62424B5B68F5
:103C3000BB620BE0FB6A5A1CFA62BA6AD2B262F04B
:103C40007F02D2B21A70BB6ADB09BB62BB6A7F2BF0
:103C5000F0D8FB6A5A1CFA62BA6AD2B21A70FB6ACE
:103C60007B607B687B62344B9B683B620BE07B6ACA
:103C70005A1C7A623A6AD2B262F07F02D2B21A70E9
:103C80003B6ADB093B623B6A7F2BF0D87B6A5A1C9C
:103C90007A623A6AD2B21A707B6A7B607B68FB6197
:103CA000254B1B69BB610BE0FB695A1CFA61BA69C1
:103CB000D2B262F07F02D2B21A70BB69DB09BB617B
:103CC000BB697F2BF0D8FB695A1CFA61BA69D2B282
:103CD0001A70FB697B607B687B6102233B610BE0B0
:103CE0007B695A1C7A613A69D2B262F07F02D2B221
:103CF0001A703B69DB093B613B697F2BF0D87B691C
:103D00005A1C7A613A69D2B21A707B697B601822B8
:103D10007968B868FFF75AFBFB6883F31188064B94
:103D20005B6A002B02D0044B5B6A984700BF3037B8
:103D3000BD4680BD903F0020603F002080B592B01E
:103D400000AF7860EFF311834FF0200181F3118809
:103D50007B616B48FFF764FA38613B69FB60FB6885
:103D60007B647B681A68674B1B69D31A9B083B64AA
:103D70000BE07B6C5A1C7A643A6CD2B262F07F0220
:103D8000D2B21A703B6CDB093B643B6C7F2BF0D8E2
:103D90007B6C5A1C7A643A6CD2B21A707B6CFB60F2
:103DA000FB68FB637B689B68BB630BE0FB6B5A1C87
:103DB000FA63BA6BD2B262F07F02D2B21A70BB6BF6
:103DC000DB09BB63BB6B7F2BF0D8FB6B5A1CFA6320
:103DD000BA6BD2B21A70FB6BFB607B685B68202207
:103DE0001946F868FFF7D0F9F8600922F9683869D0
:103DF000FFF7ECFA3B69FB60FB687B637B681A6842
:103E0000404B1B69D31A9B083B630BE07B6B5A1C2E
:103E10007A633A6BD2B262F07F02D2B21A703B6B15
:103E2000DB093B633B6B7F2BF0D87B6B5A1C7A63BF
:103E30003A6BD2B21A707B6BFB60FB68FB627B68EB
:103E4000DB68BB620BE0FB6A5A1CFA62BA6AD2B248
:103E500062F07F02D2B21A70BB6ADB09BB62BB6A36
:103E60007F2BF0D8FB6A5A1CFA62BA6AD2B21A7077
:103E7000FB6AFB60FB687B627B681B693B620BE053
:103E80007B6A5A1C7A623A6AD2B262F07F02D2B27C
:103E90001A703B6ADB093B623B6A7F2BF0D87B6A76
:103EA0005A1C7A623A6AD2B21A707B6AFB60FB686B
:103EB000FB610023BB610BE0FB695A1CFA61BA6924
:103EC000D2B262F07F02D2B21A70BB69DB09BB6169
:103ED000BB697F2BF0D8FB695A1CFA61BA69D2B270
:103EE0001A70FB69FB601522F9683869FFF76EFAF2
:103EF0007B6983F3118800BF4837BD4680BD00BF92
:103F0000903F0020603F002080B500AF074B1B6A48
:103F1000002B08D0054B1B6A5B68002B03D0034BBA
:103F20001B6A5B68984700BF80BD00BF603F0020F0
:103F3000F0B583B000AF124B1B6A002B15D0104BAD
:103F40001B6A1B68002B10D00D4B1B6A1B6898471F
:103F5000C7E90001396897E81800250000262B46BC
:103F60001A460D20FFF75EFB05E0064B1B6819465D
:103F70000C20FFF71BFB00BF0C37BD46F0BD00BF98
:103F8000603F0020041000E080B586B000AFEFF382
:103F900011834FF0200181F31188FB601948FFF76E
:103FA0003FF9B860BB687B60174B1B68C3F308031D
:103FB0003B607B687B613B683B610BE07B695A1C23
:103FC0007A613A69D2B262F07F02D2B21A703B696A
:103FD000DB093B613B697F2BF0D87B695A1C7A6116
:103FE0003A69D2B21A707B697B6002227968B8683C
:103FF000FFF7ECF9FB6883F3118800BF1837BD4663
:1040000080BD00BF903F002004ED00E080B582B08D
:1040100000AFEFF311834FF0200181F311887B6033
:104020000748FFF7FDF83860032239683868FFF762
:10403000CDF97B6883F3118800BF0837BD4680BD8A
:10404000903F002080B582B000AFEFF311834FF0B6
:10405000200181F311887B600748FFF7E1F83860A1
:10406000122239683868FFF7B1F97B6883F3118849
:1040700000BF0837BD4680BD903F002080B582B0AC
:1040800000AFEFF311834FF0200181F311887B60C3
:104090000748FFF7C5F83860112239683868FFF71C
:1040A00095F97B6883F3118800BF0837BD4680BD52
:1040B000903F002080B588B000AF7860EFF31183A7
:1040C0004FF0200181F311887B611A48FFF7A8F8AF
:1040D00038613B69FB60184B1B697A68D31A9B08EF
:1040E0007B60FB68FB617B68BB610BE0FB695A1C72
:1040F000FA61BA69D2B262F07F02D2B21A70BB69B9
:10410000DB09BB61BB697F2BF0D8FB695A1CFA61E4
:10411000BA69D2B21A70FB69FB600822F968386983
:10412000FFF754F97B6983F3118800BF2037BD4640
:1041300080BD00BF903F0020603F002080B588B068
:1041400000AF7860EFF311834FF0200181F3118805
:104150007B611A48FFF764F838613B69FB60184BD4
:104160001B697A68D31A9B087B60FB68FB617B68DC
:10417000BB610BE0FB695A1CFA61BA69D2B262F00A
:104180007F02D2B21A70BB69DB09BB61BB697F2BAE
:10419000F0D8FB695A1CFA61BA69D2B21A70FB698D
:1041A000FB600422F9683869FFF710F97B6983F333
:1041B000118800BF2037BD4680BD00BF903F002062
:1041C000603F002080B588B000AF7860EFF31183C6
:1041D0004FF0200181F311887B611A48FFF720F826
:1041E00038613B69FB60184B1B697A68D31A9B08DE
:1041F0007B60FB68FB617B68BB610BE0FB695A1C61
:10420000FA61BA69D2B262F07F02D2B21A70BB69A7
:10421000DB09BB61BB697F2BF0D8FB695A1CFA61D3
:10422000BA69D2B21A70FB69FB600622F968386974
:10423000FFF7CCF87B6983F3118800BF2037BD46B8
:1042400080BD00BF903F0020603F002080B58AB055
:1042500000AF78603960EFF311834FF0200181F3F4
:1042600011887B612748FEF7DBFF38613B69FB6003
:10427000254B1B697A68D31A9B087B60FB687B62BD
:104280007B683B620BE07B6A5A1C7A623A6AD2B264
:1042900062F07F02D2B21A703B6ADB093B623B6A72
:1042A0007F2BF0D87B6A5A1C7A623A6AD2B21A70B3
:1042B0007B6AFB60FB68FB613B68BB610BE0FB69F1
:1042C0005A1CFA61BA69D2B262F07F02D2B21A7095
:1042D000BB69DB09BB61BB697F2BF0D8FB695A1C4A
:1042E000FA61BA69D2B21A70FB69FB600722F968F9
:1042F0003869FFF76BF87B6983F3118800BF2837B3
:10430000BD4680BD903F0020603F002080B483B058
:1043100000AF7860044B1B697A68D31A9B08184673
:104320000C37BD4680BC7047603F002080B58CB024
:1043300000AF0346FB713B4B1B68002B6DD0394B24
:104340001B68FB620023BB6208E0FB6A1B69FB621F
:10435000FB6A002B07D0BB6A0133BB62FA79BB6AE8
:104360009A42F2D800E000BFFB6A002B55D0EFF371
:1043700011834FF0200181F311887B612A48FEF7F9
:104380004FFF38613B69FB60FB687B62FB793B62F6
:104390000BE07B6A5A1C7A623A6AD2B262F07F0200
:1043A000D2B21A703B6ADB093B623B6A7F2BF0D8C2
:1043B0007B6A5A1C7A623A6AD2B21A707B6AFB60D4
:1043C000FB68FB61FB6A9B68BB610BE0FB695A1CE5
:1043D000FA61BA69D2B262F07F02D2B21A70BB69D6
:1043E000DB09BB61BB697F2BF0D8FB695A1CFA6102
:1043F000BA69D2B21A70FB69FB60FB6A1B68802243
:104400001946F868FEF7C0FEF8601622F9683869A8
:10441000FEF7DCFF7B6983F3118800BF3037BD46B0
:1044200080BD00BF883F0020903F002080B582B053
:1044300000AF0C4B1B68002B0FD00A4B1B687B6036
:104440007B68DB68002B02D07B68DB6898477B6861
:104450001B697B607B68002BF2D100BF0837BD462B
:1044600080BD00BF883F002080B586B000AFEFF36D
:1044700011834FF0200181F31188FB601748FEF78C
:10448000CFFEB860BB687B607B687B61144B1B7898
:104490003B610BE07B695A1C7A613A69D2B262F0E7
:1044A0007F02D2B21A703B69DB093B613B697F2B0B
:1044B000F0D87B695A1C7A613A69D2B21A707B696A
:1044C0007B601B227968B868FEF780FFFB6883F386
:1044D000118800BF1837BD4680BD00BF903F002047
:1044E0008C3F002080B58AB000AF7860EFF3118375
:1044F0004FF0200181F311887B612748FEF790FE81
:104500003861802279683869FEF73EFEF860FB6802
:104510007B6201233B620BE07B6A5A1C7A623A6A37
:10452000D2B262F07F02D2B21A703B6ADB093B6200
:104530003B6A7F2BF0D87B6A5A1C7A623A6AD2B205
:104540001A707B6AFB60FB68FB610023BB610BE0B8
:10455000FB695A1CFA61BA69D2B262F07F02D2B228
:104560001A70BB69DB09BB61BB697F2BF0D8FB69A3
:104570005A1CFA61BA69D2B21A70FB69FB601A223E
:10458000F9683869FEF722FF7B6983F3118800BF61
:104590002837BD4680BD00BF903F002080B483B067
:1045A00000AF0346FB71084997F907305B09FA79B8
:1045B00002F01F02012000FA02F241F8232000BF9E
:1045C0000C37BD4680BC704700E100E080B483B08A
:1045D00000AF03463960FB7197F90730002B0BDA07
:1045E0000D49FB7903F00F03043B3A68D2B2120184
:1045F000D2B20B441A7609E0084997F907303A68B5
:10460000D2B21201D2B20B4483F8002300BF0C37A0
:10461000BD4680BC704700BF00ED00E000E100E057
:10462000B0B582B002AF4FF44070FBF799FD00F0D7
:1046300025F92C4800F02AF9002204210A20FCF771
:104640008BFC0246284B1A60002204210A20FCF74A
:1046500083FC0246254B1A60234B1B68002B32D08B
:10466000224B1B68002B2ED0214B0193012300937A
:1046700000234FF496721F491F48FDF71BF81F4B8C
:1046800001930223009300234FF496721C491D48A6
:10469000FDF710F81C4B01930223009300234FF405
:1046A00096721A491A48FDF705F81A4B019302232E
:1046B000009300234FF4967217491848FCF7FAFF4D
:1046C000FDF7D8F90CE0164A164B14461D460FCDDF
:1046D0000FC495E8030084E80300114800F0D6F801
:1046E000FEE700BF445800084C4100205041002024
:1046F0003C41002070580008294700084041002034
:104700007C58000861470008444100209058000888
:10471000B147000848410020A85800085148000847
:1047200074400020BC58000880B584B000AF7860A9
:10473000094BFB60094B186807F10C0100234FF08F
:10474000FF32FCF757FC4FF0FF330022002100201E
:10475000FDF7BEFDEEE700BF18000020504100202D
:1047600090B585B000AF78604FF0FF330022002194
:104770000020FDF7ADFD0B20FCF700FA0346FB60BF
:10478000FCF762F9FC68084800F024F9034623703E
:10479000FCF772F9054B186807F10C0100234FF084
:1047A000FF32FCF727FCDFE7104200204C410020DD
:1047B00080B592B000AF78604FF4FA737B64234BFE
:1047C0001B6807F140014FF0FF321846FCF754FD1B
:1047D0003B6C1B78062B2ED801A252F823F000BFA9
:1047E00031480008FD470008034800080948000850
:1047F00011480008194800082548000800F060F931
:104800001EE000F069F91BE0786C00F071F917E028
:10481000786C00F0A5F913E007F10C03184600F0DE
:10482000BBF90DE007F10C03184600F0D7F907E0DB
:1048300000F016FA04E007F10C03184600F0EEF958
:104840003B6C1846FCF734FAB9E700BF4C41002036
:1048500080B584B000AF78600023FB60064B1B6816
:1048600007F10C014FF0FF321846FCF705FDFB681D
:10487000184600F00BF8F1E75041002080B500AF7A
:1048800000F078F800F02AF800BF80BD80B584B051
:1048900000AF78600023FB6013E000BF80210E486A
:1048A000FBF77CFF0346012BF8D17A68FB681344C1
:1048B0001B789BB219460848FBF750FFFB68013391
:1048C000FB607868FBF744FC0246FB689A42E4D838
:1048D00000BF1037BD4680BD0038014080B586B0AE
:1048E00000AF012144F20500FBF7FAFD4FF400731D
:1048F000BB800323BB711823FB713B1D19461B486A
:10490000FBF740FC4FF48063BB800323BB7104239F
:10491000FB713B1D19461548FBF734FC012240F2A0
:1049200025511348FBF7D3FE0C212520FFF74EFE3F
:104930002520FFF733FE01210D48FBF7A9FE4FF4B8
:104940001653BB600023BB810023FB8100233B8205
:104950000C237B820023BB8207F10803194604481D
:10496000FBF7DCFD00BF1837BD4680BD00080140E5
:104970000038014080B582B000AF01210420FBF770
:10498000AFFD01211020FBF7ABFD1023FB714FF4AD
:104990000053BB800223BB713B1D19460B48FBF73C
:1049A000F1FB01224FF400510848FBF7C0FC28231B
:1049B000FB7020233B800223BB703B461946044812
:1049C000FBF7E0FB00BF0837BD4680BD001001408B
:1049D0000008014080B483B000AF78607B681B782A
:1049E000303BDBB218460C37BD4680BC7047000038
:1049F00080B584B002AF00233B6020211E48FBF746
:104A0000CDFE0346002B27D01B48FBF7B8FE03461C
:104A1000FB801A4B1B785A1CD1B2184A11701A46E7
:104A2000FB88D9B2164B9954FB880D2B14D1134B2C
:104A300000221A70134B18683B4600930023002293
:104A40000021FDF7A9FC104B18683B46009300239A
:104A500000220021FDF7A0FC3B68002B07D00B4B88
:104A60004FF080521A60BFF34F8FBFF36F8F00BFBC
:104A70000837BD4680BD00BF0038014058410020C6
:104A800010420020404100203C41002004ED00E0A5
:104A900080B582B000AF78604FF400510348FBF757
:104AA0005DFC00BF0837BD4680BD00BF001001405F
:104AB00080B400AF30BF00BFBD4680BC704700006F
:104AC00080B500AF00224FF400510248FBF72FFCE5
:104AD00000BF80BD0010014080B500AF01224FF43F
:104AE00000510248FBF723FC00BF80BD00100140CD
:104AF00090B585B002AF7860164B1B68002B18D1BB
:104B0000154B00930023012279681448FDF79CFDA2
:104B10000246104B1A600F4B1C68FDF797F80246CF
:104B20004FF0FF330093002301212046FDF7DAFD0B
:104B30000CE0084B1C68FDF789F802464FF0FF3384
:104B40000093002301212046FDF7CCFD00BF0C3768
:104B5000BD4690BD54410020914A0008D458000839
:104B600080B584B002AF78600A4B1B681846FEF728
:104B700045F80346012B09D1064B18684FF0FF3367
:104B80000093002300220321FDF7ACFD00BF08378E
:104B9000BD4680BD5441002090B583B000AF786021
:104BA0007C684FF400510A48FBF7A8FB03461A46FD
:104BB0000849204600F0DAF9074B1868391D002330
:104BC0004FF0FF32FCF716FA00BF0C37BD4690BD20
:104BD00000100140E058000850410020B0B582B0FC
:104BE00000AF78607B680B4A1D4614460FCC2860E6
:104BF0006960AA60EB6003CC28616961064B1868A4
:104C0000391D00234FF0FF32FCF7F4F900BF0837DD
:104C1000BD46B0BDF858000850410020B0B582B084
:104C200000AF78607B680C4A1C4615460FCD2060AB
:104C30006160A260E3600FCD20616161A261E36108
:104C4000064B1868391D00234FF0FF32FCF7D2F9EC
:104C500000BF0837BD46B0BD1059000850410020C4
:104C600080B500AF0D4B1B681846FCF76BFE0C4B74
:104C70001B681846FCF766FE0A4B1B681846FCF7D3
:104C800061FE094B1B681846FCF75CFE002240F2EF
:104C900025510648FBF71BFD00BF80BD3C410020AD
:104CA000404100204441002048410020003801409C
:104CB000DFF834D0002103E00C4B5B584350043143
:104CC0000B480C4B42189A42F6D30B4A02E00023E1
:104CD00042F8043B094B9A42F9D300F047F800F040
:104CE000FFF8FFF79DFC704700500020785900083E
:104CF0000000002030010020300100202842002068
:104D0000FEE7000080B485B000AF7860134A144B12
:104D10001344FB60134B1B68002B02D1114B0F4A4D
:104D20001A60104B1B68BB600E4B1A687B681A44F4
:104D3000FB689A4205D90C4B0C221A604FF0FF33E6
:104D400006E0084B1A687B681344064A1360BB6888
:104D500018461437BD4680BC704700BF284200206B
:104D6000000000005C4100202442002080B500AF1C
:104D7000154A154B1B6843F0010313601249124B8F
:104D80005A68124B13404B600F4A0F4B1B6823F0BD
:104D9000847323F4803313600B4A0B4B1B6823F49A
:104DA00080231360084A084B5B6823F4FE035360BA
:104DB000054B4FF41F029A6000F00CF8044B4FF0C3
:104DC00000629A6000BF80BD001002400000FFF842
:104DD00000ED00E080B500AF00F002F800BF80BD3C
:104DE00080B483B000AF00237B6000233B603A4A6D
:104DF000394B1B6843F480331360374B1B6803F453
:104E000000333B607B6801337B603B68002B03D140
:104E10007B68B3F5A06FF0D12F4B1B6803F4003310
:104E2000002B02D001233B6001E000233B603B6884
:104E3000012B4BD1294A294B1B6843F01003136007
:104E4000264A264B1B6823F003031360234A234B97
:104E50001B6843F0020313601F4A1F4B5B685360DB
:104E60001D4A1D4B5B6853601B4A1B4B5B6843F438
:104E700080635360184A184B5B6823F47C135360BB
:104E8000154A154B5B6843F4E8135360124A124B02
:104E90001B6843F08073136000BF0F4B1B6803F067
:104EA0000073002BF9D00C4A0B4B5B6823F0030313
:104EB0005360094A084B5B6843F00203536000BF2C
:104EC000054B5B6803F00C03082BF9D100BF0C37CE
:104ED000BD4680BC704700BF001002400020024069
:104EE00070B500250C4E0D4CA41BA410A54209D191
:104EF00000F05CFC00250A4E0A4CA41BA410A5423D
:104F000005D170BD56F8253098470135EEE756F8C3
:104F1000253098470135F2E77059000870590008AC
:104F2000705900087459000810B5013902449042C4
:104F300001D1002010BD10F8013B11F8014FA34230
:104F4000F5D0181B10BD10B5431E0A44914200D184
:104F500010BD11F8014B03F8014FF7E70346024477
:104F6000934200D1704703F8011BF9E70EB44FF4E8
:104F7000027100B59CB0ADF814106FF000410491BF
:104F800007914FF6FF711DAB02900690084853F849
:104F9000042BADF81610006802A9019300F010F977
:104FA0000022029B1A701CB05DF804EB03B070473E
:104FB000CC00002038B50546002943D051F8043C08
:104FC0000C1F002BB8BFE41800F0BEFB1E4A13688C
:104FD000104633B9636014602846BDE8384000F0DD
:104FE000B4BBA3420BD921686218934201BF1A686F
:104FF0005B685218226063600460EDE713465A68EC
:105000000AB1A242FAD919685818A0420BD12068F7
:105010000144581882421960DED110685268014478
:1050200019605A60D8E702D90C232B60D4E72068B6
:1050300021188A4201BF1168526809182160626014
:105040005C60C9E738BD00BF6041002070B5CD1C71
:1050500025F0030508350C2D38BF0C25002D06461C
:1050600001DBA94203D90C233360002070BD00F09E
:105070006BFB234A1468214691B9224C23681BB963
:10508000304600F029FB20602946304600F024FB22
:10509000431C26D10C233046336000F056FBE4E776
:1050A0000B685B1B1AD40B2B0FD90B60CC18CD509F
:1050B000304600F04AFB04F10B00231D20F00700EE
:1050C000C31A1BD05A42E25070BD8C420BBF6368BA
:1050D0004B681360636018BF0C46E9E70C464968EB
:1050E000CAE7C41C24F00304A04205D0211A3046AC
:1050F00000F0F2FA0130CDD02560D9E770BD00BFD5
:1051000060410020644100202DE9F0478E6882460E
:105110009E420C469146984635D88A8912F4906F83
:1051200031D00223256809696F1A656905EB4505C9
:1051300095FBF3F508F101033B449D4238BF1D4642
:10514000530531D52946FFF781FF064650B90C2398
:10515000CAF80030A3894FF0FF3043F04003A38129
:10516000BDE8F0873A462169FFF7EDFEA38923F4F5
:10517000906343F08003A38126613E442660464647
:105180006561ED1BA560464528BF46464946324647
:10519000206800F0BFFAA36800209B1BA36023686F
:1051A0001E442660BDE8F0872A4600F0CFFA064686
:1051B0000028E1D121695046FFF7FCFEC7E7000057
:1051C0002DE9F04F9DB003938B8980461C060D4658
:1051D00016460FD50B696BB94021FFF737FF2860E2
:1051E000286128B90C23C8F800304FF0FF30C4E024
:1051F00040236B610023099320238DF8293030234D
:105200004FF0010B8DF82A3037463C4614F8013B2D
:10521000002B3CD1B7EB060A0BD053463246294649
:105220004046FFF771FF013000F0A280099B534414
:1052300009933B78002B00F09B8000234FF0FF3256
:1052400004930793059206938DF853301A93052221
:105250002178504800F050FA671C049BD8B9D90651
:1052600044BF20228DF853201A0744BF2B228DF80B
:10527000532022782A2A16D000210A20079A27468E
:105280003B780134303B092B50D9C9B111E0252BB3
:10529000C0D02746B9E73F4A3C46801A0BFA00F0D7
:1052A00018430490D3E7039A111D12680391002A52
:1052B00001DB079204E0524243F002030792049399
:1052C0003B782E2B0DD17B78791C2A2B32D1039B76
:1052D00002371A1D1B680392002BB8BF4FF0FF3333
:1052E00005932D4C03223978204600F005FA38B199
:1052F0004023001B03FA00F0049B0137034304938F
:105300003978062225487E1C8DF8281000F0F4F923
:10531000002835D0224BFBB9039B073323F007034A
:1053200008330393099B4B4409936DE700FB02325A
:105330000121A4E700230A24184605930F463A7872
:105340000131303A092A03D9002BCAD00590C8E7A9
:1053500004FB00200123F1E703AB00932A46114B25
:1053600004A94046AFF30080B0F1FF3F8146D9D198
:10537000AB895B063FF539AF09981DB0BDE8F08FEA
:1053800003AB00932A46074B04A9404600F084F87B
:10539000EAE700BF3A59000840590008445900089C
:1053A00000000000095100082DE9F04791461F4612
:1053B0008A680B6906469342B8BF1346C9F80030A5
:1053C00091F843200C46DDF8208012B10133C9F872
:1053D00000302368990642BFD9F800300233C9F87B
:1053E0000030256815F0060507D104F1190AE368B5
:1053F000D9F800209B1A9D422ADB94F8433022689A
:10540000003318BF012392062FD404F1430239461A
:105410003046C047013022D02368E56803F0060318
:10542000042B18BF0025D9F800204FF0000908BF51
:10543000AD1AA368226908BF25EAE5759342C4BF87
:105440009B1AED181A344D451BD10020BDE8F0879A
:105450000123524639463046C047013003D14FF050
:10546000FF30BDE8F0870135C1E73020E11881F851
:1054700043005A1C94F845102244023382F843102A
:10548000C3E70123224639463046C0470130E6D003
:1054900009F10109D7E700002DE9F04317460A7E1C
:1054A00085B06E2A984606460C460C9B01F1430EC9
:1054B00000F0BC801AD8632A2ED00AD8002A00F047
:1054C000C880582A00F08A8004F1420584F84220FE
:1054D0002AE0642A01D0692AF6D121681A6811F0FD
:1054E000800F23D0111D1960136827E0732A00F084
:1054F000B48008D86F2A2AD0702AE5D10A6842F011
:1055000020020A6003E0752A21D0782ADCD17822B3
:105510006F4984F8452064E01A6801F14205111DC5
:105520001960136884F842300123A3E011F0400FA2
:1055300002F104011960D7D0B2F90030002B03DA70
:105540002D225B4284F8432062490A2217E020683A
:10555000196810F0800F03D0081D18600B6806E072
:1055600010F0400F01F104001860F7D00B886F2A8B
:1055700014BF0A2208225749002084F843006568B6
:10558000002DA560C0F29C80206820F004002060FF
:10559000002B3FD1002D40F095807546082A0BD195
:1055A0002368DA0708D5236962689A42DEBF302390
:1055B00005F8013C05F1FF35AEEB05032361CDF89D
:1055C00000803B4603AA21463046FFF7EDFE01303E
:1055D00055D14FF0FF3005B0BDE8F08381F845208C
:1055E0003C492268186812F0800F00F104051D6024
:1055F00001D0036802E05506FBD50388D00744BFFD
:1056000042F0200222601BB9226822F020022260B0
:105610001022B1E77546B3FBF2F002FB1033CB5C0E
:1056200005F8013D03460028F5D1B7E708681A6878
:1056300010F0800F496904D0101D186013681960BC
:1056400007E010F0400F02F1040018601368F6D074
:105650001980002375462361B1E71A68111D19608E
:10566000156800216268284600F046F808B1401B22
:10567000606063682361002384F843309FE72369F7
:105680002A4639463046C0470130A2D023689B07DE
:1056900007D5002504F11909E368039A9B1A9D4276
:1056A00005DBE068039B9842B8BF184693E70123E7
:1056B0004A4639463046C04701308AD00135EBE7CB
:1056C000002BA7D10B7804F1420584F8423065E73E
:1056D0005C5900084B59000838B50023054C0546B5
:1056E00008462360FFF70EFB431C02D1236803B179
:1056F0002B6038BD2442002010B5C9B2024490424C
:10570000034601D1002010BD1C7801308C42F6D137
:10571000184610BD884210B501EB020303D8421EA3
:1057200099420CD110BD9842F9D28118D21AD342B5
:1057300000D110BD13F8014D01F8014DF7E711F844
:10574000014B02F8014FEBE770477047F8B5074689
:1057500014460E4621B91146BDE8F840FFF776BC65
:1057600022B9FFF727FC25462846F8BD00F014F8BB
:1057700084420FD921463846FFF768FC05460028C9
:10578000F2D031462246FFF7DEFB31463846FFF7BE
:1057900011FCE9E73546E7E751F8040C0028A0F1D1
:1057A0000400BCBF0B58C01870470000F8B500BF1C
:1057B000F8BC08BC9E467047F8B500BFF8BC08BCF2
:0457C0009E4670474A
:1057C40049444C4500000000546D72205376630038
:1057D40049444C450000000053595354454D564923
:1057E40045573A20436F756C64206E6F7420726560
:1057F400636F7264207461736B20696E666F726D7F
:105804006174696F6E2E204D6178696D756D206EBF
:10581400756D626572206F66207461736B7320729C
:105824006561636865642E005465726D696E616CB0
:1058340000000000525454005345474745520000AD
:105844000D0A5468697320517565756520436F6D41
:105854006D616E642050726F63657373696E672047
:1058640050726F6A6563740D0A0000005441534B13
:10587400312D4D454E5500005441534B322D434D6F
:10588400442D48414E444C494E4700005441534B2B
:10589400332D434D442D50524F43455353494E47A6
:1058A400000000005441534B342D554152542D57A0
:1058B40052495445000000005175657565204372D6
:1058C400656174696F6E204661696C64200D0A001D
:1058D4004C45442D54494D45520000000D0A4C4599
:1058E4004420537461747573206973203A202564CD
:1058F4000D0A00000D0A4E6F7420496D706C656DC1
:10590400656E746564205965740D0A000D0A496E4C
:1059140076616C696420436F6D6D616E64205265BD
:105924006365697665642021210D0A00000000008A
:10593400000000000000232D302B2000686C4C0078
:10594400656667454647003031323334353637387B
:1059540039414243444546003031323334353637D9
:0C59640038396162636465660000000071
:0459700035010008F5
:045974001101000815
:1059780000000000010203040102030406070809ED
:1059880002040608AAAAAAAA0D0A4C45445F4F4E6B
:10599800090909092D2D2D3E31200D0A4C45445F7A
:1059A8004F4646090909092D2D2D3E32200D0A4C76
:1059B80045445F544F47474C450909092D2D2D3E55
:1059C80033200D0A4C45445F544F47474C4509095D
:1059D800092D2D2D3E34200D0A4C45445F5245417A
:1059E800445F5354415455532009092D2D2D3E35FC
:1059F800200D0A5254435F5052494E545F4441545B
:105A08004554494D452009092D2D2D3E36200D0AB6
:105A1800457869745F4150500909092D2D2D3E3094
:105A2800200D0A5479706520796F7572204F707453
:105A3800696F6E2048657265203A2000D00000200A
:105A4800000000000000000000000000000000004E
:105A5800000000000000000000000000000000003E
:105A6800000000000000000000000000000000002E
:105A7800000000000000000000000000000000001E
:105A8800000000000000000000000000000000000E
:105A980000000000000000000000000000000000FE
:0400000508004CB1F2
:00000001FF
