:020000040800F2
:100000000050002051250008A1250008A125000866
:10001000A1250008A1250008A12500080000000076
:10002000000000000000000000000000C1080008FF
:10003000A125000800000000B1090008F909000826
:10004000A1250008A1250008A1250008A125000878
:10005000A1250008A1250008A1250008A125000868
:10006000A1250008A1250008A1250008A125000858
:10007000A1250008A1250008A1250008A125000848
:10008000A1250008A1250008A1250008A125000838
:10009000A1250008A1250008A1250008A125000828
:1000A000A1250008A1250008A1250008A125000818
:1000B000A1250008A1250008A1250008A125000808
:1000C000A1250008A1250008A1250008A1250008F8
:1000D000A1250008A1250008A1250008A1250008E8
:1000E000A1250008A1250008A125000800000000A6
:1000F0000000000000000000000000000000000000
:0C01000000000000000000005FF808F1A3
:1001100010B5054C237833B9044B13B10448AFF341
:1001200000800123237010BD7C000020000000002F
:100130008830000808B5034B1BB103490348AFF3EF
:10014000008008BD0000000080000020883000080A
:10015000034613F8012B002AFBD1181A0138704707
:1001600080B483B000AF7860054A7B6843F0BF631A
:1001700043F40033D36000BF0C37BD4680BC7047EA
:1001800000ED00E080B489B000AF786039600023F2
:10019000FB6100233B610023BB610023FB60002364
:1001A0007B610023BB603B68DB7803F00F03FB61DE
:1001B0003B68DB7803F01003002B05D03B689B788D
:1001C0001A46FB691343FB613B681B88DBB2002BBB
:1001D00044D07B681B687B610023BB6138E001224F
:1001E000BB6902FA03F3FB603B681B881A46FB6895
:1001F00013403B613A69FB689A4226D1BB699B0078
:10020000FB600F22FB6802FA03F3BB60BB68DB43B1
:100210007A6913407B61FA69FB6802FA03F37A6931
:1002200013437B613B68DB78282B05D10122BB6936
:100230009A407B685A6108E03B68DB78482B04D120
:100240000122BB699A407B681A61BB690133BB61BB
:10025000BB69072BC3D97B687A691A603B681B8826
:10026000FF2B46D97B685B687B610023BB613AE06A
:10027000BB690833012202FA03F3FB603B681B8869
:100280001A46FB6813403B613A69FB689A4227D1E2
:10029000BB699B00FB600F22FB6802FA03F3BB60A3
:1002A000BB68DB437A6913407B61FA69FB6802FA39
:1002B00003F37A6913437B613B68DB78282B05D114
:1002C000BB69083301229A407B685A613B68DB783E
:1002D000482B05D1BB69083301229A407B681A611B
:1002E000BB690133BB61BB69072BC1D97B687A69E4
:1002F0005A6000BF2437BD4680BC704780B483B0CD
:1003000000AF78600B467B8013467B707B78002BB8
:1003100003D07A887B681A6102E07A887B685A6128
:1003200000BF0C37BD4680BC7047000080B487B06A
:1003300000AF786000237B6100233B610023FB60FA
:100340000023BB604C4B5B6803F00C037B617B6953
:10035000042B07D0082B09D0002B33D17B68474AE8
:100360001A6033E07B68454A1A602FE0424B5B68B5
:1003700003F470133B61404B5B6803F48033FB6014
:100380003B699B0C02333B61FB68002B06D13B6948
:100390003B4A02FB03F27B681A6017E0364B5B684E
:1003A00003F40033002B06D03B69354A02FB03F20D
:1003B0007B681A600AE03B69304A02FB03F27B6803
:1003C0001A6003E07B682D4A1A6000BF2A4B5B6805
:1003D00003F0F0037B617B691B097B61294A7B6920
:1003E00013441B78DBB2BB607B681A68BB68DA40D9
:1003F0007B685A60204B5B6803F4E0637B617B6938
:100400001B0A7B611F4A7B6913441B78DBB2BB600C
:100410007B685A68BB68DA407B689A60164B5B68F9
:1004200003F460537B617B69DB0A7B61154A7B695E
:1004300013441B78DBB2BB607B685A68BB68DA4048
:100440007B68DA600C4B5B6803F440437B617B693B
:100450009B0B7B610C4A7B6913441B78DBB2BB604E
:100460007B68DA68BB68B2FBF3F27B681A6100BF95
:100470001C37BD4680BC70470010024000127A0055
:1004800000093D00000000201000002080B483B06F
:1004900000AF78600B46FB70FB78002B06D0094953
:1004A000084B9A697B6813438B6106E00549054B4D
:1004B0009A697B68DB4313408B6100BF0C37BD46F4
:1004C00080BC70470010024080B58CB000AF7860EF
:1004D00039600023FB620023BB6200237B620023A0
:1004E0003B620023FB617B68FB617B681B8A9BB2DC
:1004F000FB62FA6A4CF6FF731340FB623B68DB88D1
:100500001A46FB6A1343FB62FB6A9AB27B681A8243
:100510007B689B899BB2FB62FA6A4EF6F313134029
:10052000FB623B689A883B681B8913439AB23B681D
:100530005B8913439BB21A46FB6A1343FB62FB6A57
:100540009AB27B689A817B689B8A9BB2FB62FA6A4B
:100550004FF6FF431340FB623B689B891A46FB6AD8
:100560001343FB62FB6A9AB27B689A8207F1080325
:100570001846FFF7DBFEFB692E4A934202D17B69E6
:10058000BB6201E03B69BB627B689B899BB21BB28B
:10059000002B0CDABA6A13469B0013449A001A44E3
:1005A0003B681B685B00B2FBF3F37B620BE0BA6A4B
:1005B00013469B0013449A001A443B681B689B0037
:1005C000B2FBF3F37B627B6A1B4AA2FB03235B094A
:1005D0001B01FB62FB6A1B09642202FB03F37A6ABC
:1005E000D31A3B627B689B899BB21BB2002B0CDA4F
:1005F0003B6ADB003233104AA2FB03235B0903F0A2
:100600000703FA6A1343FB620BE03B6A1B013233B8
:10061000094AA2FB03235B0903F00F03FA6A1343A1
:10062000FB62FB6A9AB27B681A8100BF3037BD4615
:1006300080BD00BF003801401F85EB5180B483B0FE
:1006400000AF78600B46FB70FB78002B08D07B680E
:100650009B899BB243F400539AB27B689A8107E06E
:100660007B689B899BB223F400539AB27B689A8182
:1006700000BF0C37BD4680BC704780B483B000AF6C
:1006800078600B467B807B88C3F308039AB27B6853
:100690009A8000BF0C37BD4680BC704780B485B0DF
:1006A00000AF78600B467B800023FB737B681B8860
:1006B0009AB27B8813409BB2002B02D00123FB73BC
:1006C00001E00023FB73FB7B18461437BD4680BC5A
:1006D000704780B483B000AF78607B6803F1080294
:1006E0007B685A607B684FF0FF329A607B6803F149
:1006F00008027B68DA607B6803F108027B681A6194
:100700007B6800221A6000BF0C37BD4680BC704772
:1007100080B483B000AF78607B6800221A6100BFAC
:100720000C37BD4680BC704780B485B000AF7860A0
:1007300039607B685B68FB603B68FA685A60FB68FD
:100740009A683B689A60FB689B683A685A60FB68E5
:100750003A689A603B687A681A617B681B685A1C21
:100760007B681A6000BF1437BD4680BC704780B4F8
:1007700085B000AF786039603B681B68BB60BB68C0
:10078000B3F1FF3F03D17B681B69FB600CE07B6822
:100790000833FB6002E0FB685B68FB60FB685B683A
:1007A0001A68BB689A42F6D9FB685A683B685A6077
:1007B0003B685B683A689A603B68FA689A60FB68D5
:1007C0003A685A603B687A681A617B681B685A1CF1
:1007D0007B681A6000BF1437BD4680BC704780B488
:1007E00085B000AF78607B681B69FB607B685B68E5
:1007F0007A6892689A607B689B687A6852685A60E7
:10080000FB685A687B689A4203D17B689A68FB68E8
:100810005A607B6800221A61FB681B685A1EFB68DD
:100820001A60FB681B6818461437BD4680BC7047C9
:1008300080B485B000AFF860B9607A60FB68043BB3
:10084000FB60FB684FF080721A60FB68043BFB6042
:10085000BB6823F00102FB681A60FB68043BFB6085
:10086000084AFB681A60FB68143BFB607A68FB6807
:100870001A60FB68203BFB60FB6818461437BD46D6
:1008800080BC70478908000880B483B000AF0023A3
:100890003B604FF0BF0383F31188BFF36F8FBFF34B
:1008A0004F8F7B6000BF3B68002BFCD000BF0C3734
:1008B000BD4680BC70470000000000000000000042
:1008C000074B19680868B0E8F00F80F30988BFF398
:1008D0006F8F4FF0000080F311884EF00D0E7047BF
:1008E000B838002000BF00BF06480068006880F3E9
:1008F000088862B661B6BFF34F8FBFF36F8F00DF1A
:1009000000BF00BF08ED00E080B500AF0C4A0C4B03
:100910001B6843F47F031360094A094B1B6843F0CB
:100920007F43136000F088F8064B00221A60FFF73F
:10093000DBFF01F0D5F8FFF7A7FF0023184680BDC5
:1009400020ED00E01400002080B483B000AF4FF031
:10095000BF0383F31188BFF36F8FBFF34F8F7B60AB
:10096000044B1B680133034A136000BF0C37BD46BC
:1009700080BC70471400002080B483B000AF094BE6
:100980001B68013B074A1360064B1B68002B04D110
:1009900000237B607B6883F3118800BF0C37BD4662
:1009A00080BC704714000020000000000000000020
:1009B000EFF30980BFF36F8F0D4B1A6820E9F00F3A
:1009C00010602DE908404FF0BF0080F3118801F05E
:1009D00087F84FF0000080F31188BDE808401968DF
:1009E0000868B0E8F00F80F30988BFF36F8F704795
:1009F000B838002000BF00BF80B582B000AF4FF014
:100A0000BF0383F31188BFF36F8FBFF34F8F7B60FA
:100A100000F0BEFF0346002B03D0064B4FF0805280
:100A20001A6000233B603B6883F3118800BF0837DE
:100A3000BD4680BD04ED00E080B400AF074B00224E
:100A40001A60074B00221A60064B074A1A60034BD4
:100A500007221A6000BFBD4680BC704710E000E06E
:100A600018E000E014E000E03F19010080B586B016
:100A700000AF78600023FB6000F0EEFE424B1B6885
:100A8000002B01D100F0CCF8404B1A687B68134072
:100A9000002B72D17B68002B0DD008227B68134499
:100AA0007B607B6803F00703002B04D07B6823F096
:100AB000070308337B607B68002B5ED0344B1B68D8
:100AC0007A689A4259D8334B3B61324B1B687B6141
:100AD00004E07B693B617B691B687B617B695A68C9
:100AE0007B689A4203D27B691B68002BF1D1264BAD
:100AF0001B687A699A4240D03B691B6808221344FC
:100B0000FB607B691A683B691A607B695A687B687D
:100B1000D21A08235B009A420FD97A697B68134482
:100B2000BB607B695A687B68D21ABB685A607B6974
:100B30007A685A60B86800F0D5F8154B1A687B6976
:100B40005B68D31A124A1360114B1A68124B1B6868
:100B50009A4203D20E4B1B680F4A13607B695A6896
:100B60000A4B1B681A437B695A607B6900221A6032
:100B70000A4B1B680133094A136000F07BFEFB68D7
:100B800018461837BD4680BDA0380020B438002074
:100B9000A438002098380020A8380020AC38002065
:100BA00080B584B000AF78607B68FB607B68002B09
:100BB0002CD008235B42FA681344FB60FB68BB60DF
:100BC000BB685A68134B1B681340002B1ED0BB68D0
:100BD0001B68002B1AD1BB685A680E4B1B68DB439D
:100BE0001A40BB685A6000F037FEBB685A680A4B6F
:100BF0001B681344084A1360B86800F073F8074B89
:100C00001B680133054A136000F034FE00BF103743
:100C1000BD4680BDB4380020A4380020B038002084
:100C200080B485B000AF4FF46053BB60274BFB60CE
:100C3000FB6803F00703002B0CD0FB680733FB6055
:100C4000FB6823F00703FB60BA68FB68D31A1F4AEE
:100C50001344BB60FB687B601D4A7B6813601C4BC0
:100C600000225A607A68BB681344FB600822FB6864
:100C70009B1AFB60FB6823F00703FB60FB68154AC7
:100C80001360144B1B6800225A60124B1B68002231
:100C90001A607B683B603B68FA68D21A3B685A600E
:100CA0000C4B1A683B681A603B685B680A4A136021
:100CB0003B685B68094A1360094B4FF000421A60B9
:100CC00000BF1437BD4680BC704700BF98000020AD
:100CD00098380020A0380020A8380020A438002030
:100CE000B438002080B485B000AF7860274BFB603B
:100CF00002E0FB681B68FB60FB681A687B689A422D
:100D0000F7D3FB68BB60FB685B68BA681A447B6812
:100D10009A4208D1FB685A687B685B681A44FB6892
:100D20005A60FB687B607B68BB607B685B68BA6805
:100D30001A44FB681B689A4218D1FB681A68144B66
:100D40001B689A420DD07B685A68FB681B685B6819
:100D50001A447B685A60FB681B681A687B681A60D3
:100D600008E00B4B1A687B681A6003E0FB681A689E
:100D70007B681A60FA687B689A4202D0FB687A68DE
:100D80001A6000BF1437BD4680BC704798380020F9
:100D9000A038002080B584B000AF786039607B68EF
:100DA000FB60FFF7D1FDFB681A68FB68DB6BF96835
:100DB000096C01FB03F31A44FB689A60FB6800228C
:100DC0009A63FB681A68FB685A60FB681A68FB68DC
:100DD000DB6B013BF968096C01FB03F31A44FB6808
:100DE000DA60FB68FF2283F84420FB68FF2283F867
:100DF00045203B68002B14D1FB681B69002B1AD0DF
:100E0000FB681033184600F0C7FE0346002B12D0D3
:100E10000C4B4FF080521A60BFF34F8FBFF36F8FB0
:100E200009E0FB6810331846FFF753FCFB682433D6
:100E30001846FFF74EFCFFF79FFD012318461037B9
:100E4000BD4680BD04ED00E080B58AB002AFF86019
:100E5000B9601346FB71FB68BA6802FB03F3FB61E0
:100E6000FB6948331846FFF701FEB861BB69002BE8
:100E70000DD0BB697B617B6948337B61FA79BB69C3
:100E8000009313467A69B968F86800F005F8BB6901
:100E900018462037BD4680BD80B584B000AFF860ED
:100EA000B9607A60FB70BB68002B03D1BB69BA697B
:100EB0001A6002E0BB697A681A60BB69FA68DA6393
:100EC000BB69BA681A640121B869FFF763FF00BF04
:100ED0001037BD4680BD000080B58AB000AFF86015
:100EE000B9607A603B6000237B62FB683B62FFF77E
:100EF0002BFD3B6A9A6B3B6ADB6B9A4202D33B68E1
:100F0000022B29D13A68B968386A00F010FAF86102
:100F10003B6A5B6A002B10D03B6A2433184600F012
:100F20003BFE0346002B13D03F4B4FF080521A601C
:100F3000BFF34F8FBFF36F8F0AE0FB69002B07D021
:100F4000394B4FF080521A60BFF34F8FBFF36F8F52
:100F5000FFF712FD012363E07B68002B03D1FFF74D
:100F60000BFD00235CE07B6A002B06D107F1140324
:100F7000184600F065FE01237B62FFF7FDFC00F0E0
:100F80006BFCFFF7E1FC3B6A93F844305BB2B3F1D2
:100F9000FF3F03D13B6A002283F844203B6A93F869
:100FA00045305BB2B3F1FF3F03D13B6A002283F8C7
:100FB0004520FFF7E1FC3A1D07F1140311461846DE
:100FC00000F054FE0346002B24D1386A00F0A7FA43
:100FD0000346002B18D03B6A10337A681146184636
:100FE00000F0C4FD386A00F032FA00F043FC03461A
:100FF000002B7FF47CAF0C4B4FF080521A60BFF394
:101000004F8FBFF36F8F72E7386A00F020FA00F05D
:1010100031FC6CE7386A00F01AFA00F02BFC002370
:1010200018462837BD4680BD04ED00E080B58AB083
:1010300000AFF860B9607A6000237B62FB683B62B6
:10104000FFF782FC3B6A9B6BFB61FB69002B1FD0A7
:10105000B968386A00F0D5F9FB695A1E3B6A9A6391
:101060003B6A1B69002B0FD03B6A1033184600F017
:1010700093FD0346002B07D03C4B4FF080521A6083
:10108000BFF34F8FBFF36F8FFFF776FC012369E04B
:101090007B68002B03D1FFF76FFC002362E07B6AC3
:1010A000002B06D107F11403184600F0C9FD0123F7
:1010B0007B62FFF761FC00F0CFFBFFF745FC3B6A6A
:1010C00093F844305BB2B3F1FF3F03D13B6A002297
:1010D00083F844203B6A93F845305BB2B3F1FF3F9D
:1010E00003D13B6A002283F84520FFF745FC3A1DF7
:1010F00007F114031146184600F0B8FD0346002B13
:1011000023D1386A00F0F5F90346002B17D03B6A6B
:1011100024337A681146184600F028FD386A00F03A
:1011200096F900F0A7FB0346002B89D10F4B4FF037
:1011300080521A60BFF34F8FBFF36F8F80E7386A1A
:1011400000F085F900F096FB7AE7386A00F07FF945
:1011500000F090FB386A00F0CCF90346002B3FF416
:101160006FAF002318462837BD4680BD04ED00E070
:1011700080B58AB000AF7860396000237B627B68FD
:10118000FB6100233B62FFF7DFFBFB699B6BBB61ED
:10119000BB69002B24D0BB695A1EFB699A63FB69AB
:1011A0001B68002B04D100F0B1FF0246FB699A6076
:1011B000FB691B69002B0FD0FB691033184600F048
:1011C000EBFC0346002B07D04C4B4FF080521A60CB
:1011D000BFF34F8FBFF36F8FFFF7CEFB012389E083
:1011E0003B68002B03D1FFF7C7FB002382E07B6A3B
:1011F000002B06D107F10C03184600F021FD012356
:101200007B62FFF7B9FB00F027FBFFF79DFBFB6953
:1012100093F844305BB2B3F1FF3F03D1FB69002286
:1012200083F84420FB6993F845305BB2B3F1FF3F8C
:1012300003D1FB69002283F84520FFF79DFB3A4666
:1012400007F10C031146184600F010FD0346002B71
:1012500032D1F86900F04DF90346002B26D0FB6926
:101260001B68002B09D1FFF76FFBFB699B681846D1
:1012700000F004FE3862FFF77FFBFB6924333A6815
:101280001146184600F072FCF86900F0E0F800F032
:10129000F1FA0346002B7FF476AF184B4FF08052E3
:1012A0001A60BFF34F8FBFF36F8F6CE7F86900F0E0
:1012B000CEF800F0DFFA66E7F86900F0C8F800F051
:1012C000D9FAF86900F015F90346002B3FF45BAF3B
:1012D0003B6A002B0DD0FFF737FBF86900F010F8E0
:1012E0007861FB699B687969184600F0A1FEFFF7F9
:1012F00043FB002318462837BD4680BD04ED00E0BF
:1013000080B485B000AF78607B685B6A002B06D044
:101310007B681B6B1B68C3F10503FB6001E00023C6
:10132000FB60FB6818461437BD4680BC704780B52B
:1013300086B000AFF860B9607A6000237B61FB681B
:101340009B6B3B61FB681B6C002B0DD1FB681B6822
:10135000002B4DD1FB689B68184600F005FE7861B4
:10136000FB6800229A6043E07B68002B19D1FB6880
:101370005868FB681B6C1A46B96801F00FFAFB68E5
:101380005A68FB681B6C1A44FB685A60FB685A6811
:10139000FB689B689A422BD3FB681A68FB685A600B
:1013A00026E0FB68D868FB681B6C1A46B96801F038
:1013B000F5F9FB68DA68FB681B6C5B421A44FB6852
:1013C000DA60FB68DA68FB681B689A4207D2FB6840
:1013D0009A68FB681B6C5B421A44FB68DA607B68A6
:1013E000022B05D13B69002B02D03B69013B3B61DD
:1013F0003B695A1CFB689A637B6918461837BD46DF
:1014000080BD80B582B000AF786039607B681B6CAE
:10141000002B18D07B68DA687B681B6C1A447B68E9
:10142000DA607B68DA687B689B689A4203D37B68E2
:101430001A687B68DA607B68D9687B681B6C1A461F
:10144000386801F0ABF900BF0837BD4680BD80B5F4
:1014500084B000AF7860FFF777FA7B6893F8453087
:10146000FB7311E07B685B6A002B12D07B6824332E
:10147000184600F091FB0346002B01D000F03CFC25
:10148000FB7B013BDBB2FB7397F90F30002BE9DCF0
:1014900000E000BF7B68FF2283F84520FFF76CFA6D
:1014A000FFF752FA7B6893F84430BB7311E07B6816
:1014B0001B69002B12D07B681033184600F06CFBC0
:1014C0000346002B01D000F017FCBB7B013BDBB2D5
:1014D000BB7397F90E30002BE9DC00E000BF7B689E
:1014E000FF2283F84420FFF747FA00BF1037BD46BC
:1014F00080BD80B584B000AF7860FFF725FA7B68C7
:101500009B6B002B02D10123FB6001E00023FB60F9
:10151000FFF732FAFB6818461037BD4680BD80B52C
:1015200084B000AF7860FFF70FFA7B689A6B7B6836
:10153000DB6B9A4202D10123FB6001E00023FB60D8
:10154000FFF71AFAFB6818461037BD4680BD80B514
:101550008CB004AFF860B9603B601346FB80FB8839
:101560009B001846FFF782FA78617B69002B0ED04A
:101570005420FFF77BFAF861FB69002B03D0FB696D
:101580007A691A6305E07869FFF70AFB01E0002336
:10159000FB61FB69002B13D0FA8800230393FB69DE
:1015A0000293FB6A0193BB6A00933B68B968F868D1
:1015B00000F00EF8F86900F08BF80123BB6102E03F
:1015C0004FF0FF33BB61BB6918462037BD4680BD75
:1015D00080B586B000AFF860B9607A603B60BB6AE6
:1015E000186B7B689B001A46A52101F0E2F8BB6AE4
:1015F0001A6B7B6803F18043013B9B0013443B6102
:101600003B6923F007033B61BB68002B1FD000231D
:101610007B6112E0BA687B6913441978BA6A7B6906
:10162000134434330A461A70BA687B6913441B7832
:10163000002B06D07B6901337B617B690F2BE9D9D5
:1016400000E000BFBB6A002283F8432003E0BB6ACE
:10165000002283F834203B6A042B01D904233B6227
:10166000BB6A3A6ADA62BB6A3A6A5A64BB6A0022A7
:101670009A64BB6A04331846FFF74AF8BB6A18330A
:101680001846FFF745F8BB6ABA6A1A613B6AC3F1AC
:101690000502BB6A9A61BB6ABA6A5A62BB6A0022D7
:1016A000DA64BB6A002283F850203A68F968386926
:1016B000FFF7BEF80246BB6A1A607B6A002B02D0B5
:1016C0007B6ABA6A1A6000BF1837BD4680BD000049
:1016D00080B582B000AF7860FFF736F92A4B1B68FF
:1016E0000133294A1360294B1B68002B09D1274A73
:1016F0007B681360244B1B68012B10D100F022FB88
:101700000DE0234B1B68002B09D1204B1B68DA6AC4
:101710007B68DB6A9A4202D81C4A7B6813601D4BC7
:101720001B6801331B4A13607B68DB6A01229A4005
:10173000194B1B681343184A13607B68DA6A134617
:101740009B0013449B00154A1A447B6804331946D6
:101750001046FEF7E9FFFFF70FF90D4B1B68002B52
:101760000ED00A4B1B68DA6A7B68DB6A9A4207D2A2
:101770000B4B4FF080521A60BFF34F8FBFF36F8F48
:1017800000BF0837BD4680BD90390020B838002022
:101790009C390020AC39002098390020BC3800204A
:1017A00004ED00E080B584B000AF78600023FB60FA
:1017B0007B68002B08D000F04FF80021786800F01B
:1017C000B9FC00F057F8F860FB68002B07D1064B16
:1017D0004FF080521A60BFF34F8FBFF36F8F00BF7F
:1017E0001037BD4680BD00BF04ED00E080B584B079
:1017F00002AF134B01930023009300238022114971
:101800001148FFF7A4FE78607B68012B14D14FF0DC
:10181000BF0383F31188BFF36F8FBFF34F8F3B601C
:101820000A4B4FF0FF321A60094B01221A60094B34
:1018300000221A60FFF768F800BF0837BD4680BD78
:10184000B4390020A0300008111D0008B039002074
:101850009C3900209439002080B400AF044B1B68F1
:101860000133034A136000BFBD4680BC704700BF10
:10187000B839002080B584B000AF0023FB6000239E
:10188000BB60FFF761F8394B1B68013B374A1360B7
:10189000364B1B68002B61D1354B1B68002B5DD08C
:1018A0002EE0344BDB68DB68FB60FB6818331846BE
:1018B000FEF795FFFB6804331846FEF790FFFB68C0
:1018C000DB6A01229A402C4B1B6813432A4A13609F
:1018D000FB68DA6A13469B0013449B00274A1A44AC
:1018E000FB68043319461046FEF71EFFFB68DA6AF0
:1018F000234B1B68DB6A9A4202D3224B01221A60F7
:101900001C4B1B68002BCCD1FB68002B01D000F0D6
:1019100095FA1D4B1B687B607B68002B10D000F094
:1019200037F80346002B02D0164B01221A607B6861
:10193000013B7B607B68002BF1D1134B00221A60C6
:10194000104B1B68002B09D00123BB600F4B4FF0DD
:1019500080521A60BFF34F8FBFF36F8FFFF70CF801
:10196000BB6818461037BD4680BD00BFB83900209F
:10197000903900205039002098390020BC380020D0
:10198000B8380020A4390020A039002004ED00E080
:1019900080B586B000AF00237B61464B1B68002BEF
:1019A0007DD1454B1B6801333B61434A3B69136062
:1019B0003B69002B10D1414B1B68FB60404B1B68FF
:1019C0003E4A13603E4AFB6813603E4B1B6801337E
:1019D0003C4A136000F032FA3B4B1B683A699A426A
:1019E00048D3364B1B681B68002B04D1364B4FF095
:1019F000FF321A603EE0314B1B68DB68DB68BB607E
:101A0000BB685B687B603A697B689A4203D22E4A66
:101A10007B6813602EE0BB6804331846FEF7DFFED8
:101A2000BB689B6A002B04D0BB6818331846FEF7CE
:101A3000D6FEBB68DB6A01229A40244B1B68134325
:101A4000224A1360BB68DA6A13469B0013449B006A
:101A50001F4A1A44BB68043319461046FEF764FE59
:101A6000BB68DA6A1B4B1B68DB6A9A42B9D3012355
:101A70007B61B6E7174B1B68DA6A154913469B0072
:101A800013449B000B441B68012B01D901237B618C
:101A9000114B1B68002B07D001237B6104E00F4B27
:101AA0001B6801330D4A13607B6918461837BD4621
:101AB00080BD00BFB839002094390020483900208B
:101AC0004C390020A8390020B03900209839002076
:101AD000BC380020B8380020A4390020A0390020EC
:101AE00080B485B000AF1C4B1B68002B03D01B4B90
:101AF00001221A602AE0194B00221A60184B1B6859
:101B00007B607B68B3FA83F3FB70FB78C3F11F0340
:101B1000FB60FA6813469B0013449B00114A134470
:101B2000BB60BB685B685A68BB685A60BB685A6830
:101B3000BB6808339A4204D1BB685B685A68BB68CB
:101B40005A60BB685B68DB68074A136000BF1437E4
:101B5000BD4680BC704700BFB8390020A4390020C2
:101B600098390020BC380020B838002080B582B0F9
:101B700000AF78603960074B1B68183319467868E6
:101B8000FEF7F5FD0121386800F0D4FA00BF0837F0
:101B9000BD4680BDB838002080B584B000AF786005
:101BA0007B68DB68DB68BB60BB6818331846FEF7F0
:101BB00016FE1D4B1B68002B1CD1BB680433184656
:101BC000FEF70DFEBB68DB6A01229A40174B1B68CB
:101BD0001343164A1360BB68DA6A13469B0013442A
:101BE0009B00134A1A44BB68043319461046FEF79B
:101BF0009BFD05E0BB68183319460E48FEF794FDBF
:101C0000BB68DA6A0C4B1B68DB6A9A4205D9012370
:101C1000FB600A4B01221A6001E00023FB60FB68B5
:101C200018461037BD4680BDB839002098390020CD
:101C3000BC38002050390020B8380020A4390020DA
:101C400080B483B000AF7860064B1A687B681A6076
:101C5000054B1A687B685A6000BF0C37BD4680BCD4
:101C6000704700BFA83900209439002080B586B0A5
:101C700000AF78603960FEF767FE1D4B1B683B6163
:101C80007B685B683A69D31AFB603B681B68B3F1F9
:101C9000FF3F02D100237B6123E07B681A68154B6C
:101CA0001B689A4207D07B685A683B699A4202D8FF
:101CB00001237B6115E03B681A68FB689A420BD9E7
:101CC0003B681A68FB68D21A3B681A607868FFF7AD
:101CD000B7FF00237B6104E03B6800221A60012308
:101CE0007B61FEF749FE7B6918461837BD4680BD0B
:101CF00094390020A839002080B400AF034B0122A2
:101D00001A6000BFBD4680BC704700BFA4390020E8
:101D100080B582B000AF786000F054F8074B1B68C4
:101D2000012B07D9064B4FF080521A60BFF34F8F3B
:101D3000BFF36F8F00F0EAFBEEE700BFBC38002076
:101D400004ED00E080B582B000AF00237B600CE0C2
:101D50007A6813469B0013449B00124A13441846AA
:101D6000FEF7B7FC7B6801337B607B68042BEFD9FF
:101D70000D48FEF7AEFC0D48FEF7ABFC0C48FEF735
:101D8000A8FC0C48FEF7A5FC0B48FEF7A2FC0B4B89
:101D9000054A1A600A4B054A1A6000BF0837BD465B
:101DA00080BD00BFBC38002020390020343900201D
:101DB00050390020643900207C3900204839002047
:101DC0004C39002080B582B000AF19E0FEF7BCFDB1
:101DD0000F4BDB68DB687B607B6804331846FEF7DB
:101DE000FEFC0C4B1B68013B0A4A13600A4B1B6844
:101DF000013B094A1360FEF7BFFD786800F00EF85A
:101E0000054B1B68002BE1D100BF0837BD4680BDE4
:101E100064390020903900207839002080B582B0E4
:101E200000AF78607B681B6B1846FEF7B9FE7868D8
:101E3000FEF7B6FE00BF0837BD4680BD80B483B054
:101E400000AF0C4B1B681B68002B04D10A4B4FF0F2
:101E5000FF321A6008E0074B1B68DB68DB687B60B9
:101E60007B685B68044A136000BF0C37BD4680BCCA
:101E7000704700BF48390020B039002080B584B0D9
:101E800000AF78607B68BB600023FB607B68002B41
:101E90005ED0BB68DA6A314B1B68DB6A9A424ED26D
:101EA000BB689B69002B06DB2C4B1B68DB6AC3F10C
:101EB0000502BB689A61BB685969BB68DA6A134658
:101EC0009B0013449B00264A134499422FD1BB68C0
:101ED00004331846FEF783FC0346002B0AD1BB6887
:101EE000DB6A012202FA03F3DA431E4B1B6813403C
:101EF0001C4A1360194B1B68DA6ABB68DA62BB685C
:101F0000DB6A01229A40174B1B681343154A136082
:101F1000BB68DA6A13469B0013449B00104A1A44BC
:101F2000BB68043319461046FEF7FEFB04E00B4B7A
:101F30001B68DA6ABB68DA620123FB6008E0BB68F1
:101F40005A6C064B1B68DB6A9A4201D20123FB6084
:101F5000FB6818461037BD4680BD00BFB83800206A
:101F6000BC3800209839002080B584B000AF78607C
:101F70007B68BB600023FB607B68002B4FD0BB6895
:101F80009B6C5A1EBB689A64BB68DA6ABB685B6C60
:101F90009A4244D0BB689B6C002B40D1BB68043391
:101FA0001846FEF71CFC0346002B15D1BB68DA6A05
:101FB0001D4913469B0013449B000B441B68002BD8
:101FC0000AD1BB68DB6A012202FA03F3DA43174B3A
:101FD0001B681340154A1360BB685A6CBB68DA6211
:101FE000BB68DB6AC3F10502BB689A61BB68DB6A48
:101FF00001229A400D4B1B6813430C4A1360BB68C7
:10200000DA6A13469B0013449B00074A1A44BB68D4
:10201000043319461046FEF787FB0123FB60FB687B
:1020200018461037BD4680BDBC38002098390020C6
:1020300080B586B000AF786039607B683B61012372
:10204000FB607B68002B58D03B695A6C3B689A4216
:1020500002D23B687B6102E03B695B6C7B613B6960
:10206000DA6A7B699A4248D03B699A6CFB689A426B
:1020700043D13B69DB6ABB603B697A69DA623B69E1
:102080009B69002B04DB7B69C3F105023B699A6104
:102090003B695969BA6813469B0013449B00194A6F
:1020A0001344994229D13B6904331846FEF797FB44
:1020B0000346002B0AD13B69DB6A012202FA03F3D3
:1020C000DA43114B1B6813400F4A13603B69DB6A0C
:1020D00001229A400C4B1B6813430B4A13603B6967
:1020E000DA6A13469B0013449B00064A1A443B6974
:1020F000043319461046FEF717FB00BF1837BD46DC
:1021000080BD00BFBC3800209839002080B400AFEB
:10211000074B1B68002B04D0054B1B689A6C0132DF
:102120009A64034B1B681846BD4680BC704700BFCD
:10213000B838002080B584B000AF78603960294B92
:102140001B68FB60284B1B6804331846FEF747FBEF
:102150000346002B0BD1244B1B68DB6A012202FAD9
:1021600003F3DA43214B1B681340204A13607B685A
:10217000B3F1FF3F0AD13B68002B07D01A4B1B6815
:10218000043319461A48FEF7CFFA26E0FA687B684E
:102190001344BB60144B1B68BA685A60BA68FB688A
:1021A0009A4209D2134B1A680F4B1B680433194625
:1021B0001046FEF7DCFA10E00F4B1A680A4B1B685A
:1021C000043319461046FEF7D2FA0C4B1B68BA6866
:1021D0009A4202D2094ABB68136000BF1037BD465D
:1021E00080BD00BF94390020B83800209839002005
:1021F0007C3900204C39002048390020B0390020BB
:10220000B0B582B002AF4FF44070FDF7A9FF00F007
:10221000DDF8264800F0E2F8032200210120FEF755
:1022200013FE0246224B1A60214B1B68002B06D07E
:102230001F4B1868002300220021FEF74DFE0022EC
:1022400004210120FEF700FE02461A4B1A60184BCB
:102250001B68002B1CD0174B1B68002B18D00023C9
:1022600001930323009300234FF4967212491348FD
:10227000FFF76DF9002301930123009300234FF42E
:1022800096720F490F48FFF762F9FFF7AFFA0CE0BB
:102290000D4A0E4B14461D460FCD0FC495E80F0096
:1022A00007C42380084800F099F8FEE7A83000082A
:1022B000943A0020903A0020D0300008D122000843
:1022C000D830000865230008BC390020E43000083D
:1022D000B0B584B000AF78601D4B186800230022B1
:1022E0000021FEF7F9FD00F06DFA0346C3F3080381
:1022F000BB60184B186807F1080100234FF0FF324C
:10230000FEF7EAFDF860FB68012B10D0124A134B70
:1023100014461D460FCD0FC495E80F0007C4238057
:1023200002341B0C23700C4800F058F8DBE7084B14
:102330001868002300220021FEF7CEFD084B4FF065
:1023400080521A60BFF34F8FBFF36F8FCBE700BF90
:10235000943A0020903A0020BC3900200431000853
:1023600004ED00E0B0B584B000AF7860134B1B689B
:1023700000211846FEF7FCFE114B1B6807F10B010C
:1023800000221846FEF752FEF860FB68012B04D1CC
:10239000FB7A184600F0C2F8E8E70A4A0A4B1446EE
:1023A0001D460FCD0FC40FCD0FC40FCD0FC42B682A
:1023B0002380044800F012F8D8E700BF943A0020C8
:1023C000903A0020BC3900202431000880B500AFCD
:1023D00000F06CF800F02AF800BF80BD80B584B032
:1023E00000AF78600023FB6013E000BF80210E483F
:1023F000FEF754F90346012BF8D17A68FB681344C1
:102400001B789BB219460848FEF737F9FB68013381
:10241000FB607868FDF79CFE0246FB689A42E4D8B0
:1024200000BF1037BD4680BD0038014080B586B082
:1024300000AF012144F20500FEF728F84FF40073C5
:10244000BB800323BB711823FB713B1D1946154844
:10245000FDF798FE4FF48063BB800323BB71042318
:10246000FB713B1D19460F48FDF78CFE01210E48FC
:10247000FEF7E4F84FF41653BB600023BB81002342
:10248000FB8100233B820C237B820023BB8207F16C
:10249000080319460448FEF717F800BF1837BD4671
:1024A00080BD00BF000801400038014080B582B007
:1024B00000AF01210420FDF7E9FF01211020FDF705
:1024C000E5FF1023FB714FF40053BB800223BB7167
:1024D0003B1D19460B48FDF755FE01224FF40051F4
:1024E0000848FDF70BFF2823FB7020233B800223C5
:1024F000BB703B4619460448FDF744FE00BF083751
:10250000BD4680BD001001400008014080B400AF0E
:1025100030BF00BFBD4680BC7047000080B582B0B0
:1025200000AF0346FB71FB791A460749074800F0E4
:1025300083F90648FFF752FF4FF4FA70FFF732F9BC
:1025400000BF0837BD4680BD58310008BC390020A7
:10255000DFF834D0002103E00C4B5B5843500431CA
:102560000B480C4B42189A42F6D30B4A02E0002368
:1025700042F8043B094B9A42F9D300F031F800F0DD
:10258000E9F8FFF73DFE704700500020C031000819
:10259000000000207C0000207C0000209C3A0020ED
:1025A000FEE7000080B485B000AF78600A4B1B687E
:1025B000002B02D1084B094A1A60074B1B68FB60CD
:1025C000054B1A687B681344034A1360FB6818467E
:1025D0001437BD4680BC7047843A00209C3A0020E6
:1025E00080B500AF154A154B1B6843F0010313601B
:1025F0001249124B5A68124B13404B600F4A0F4B53
:102600001B6823F0847323F4803313600B4A0B4B55
:102610001B6823F480231360084A084B5B6823F48B
:10262000FE035360054B4FF41F029A6000F00CF854
:10263000044B4FF000629A6000BF80BD0010024062
:102640000000FFF800ED00E080B500AF00F002F8F8
:1026500000BF80BD80B483B000AF00237B60002347
:102660003B603A4A394B1B6843F480331360374B65
:102670001B6803F400333B607B6801337B603B687D
:10268000002B03D17B68B3F5A06FF0D12F4B1B68F3
:1026900003F40033002B02D001233B6001E0002350
:1026A0003B603B68012B4BD1294A294B1B6843F007
:1026B00010031360264A264B1B6823F003031360A4
:1026C000234A234B1B6843F0020313601F4A1F4B2E
:1026D0005B6853601D4A1D4B5B6853601B4A1B4B74
:1026E0005B6843F480635360184A184B5B6823F4BB
:1026F0007C135360154A154B5B6843F4E813536031
:10270000124A124B1B6843F08073136000BF0F4BDB
:102710001B6803F00073002BF9D00C4A0B4B5B686D
:1027200023F003035360094A084B5B6843F002033C
:10273000536000BF054B5B6803F00C03082BF9D115
:1027400000BF0C37BD4680BC704700BF0010024080
:102750000020024070B500250C4E0D4CA41BA410A7
:10276000A54209D100F090FC00250A4E0A4CA41B9A
:10277000A410A54205D170BD56F825309847013503
:10278000EEE756F8253098470135F2E7B8310008F2
:10279000B8310008B8310008BC31000810B5431E3C
:1027A0000A44914200D110BD11F8014B03F8014FCA
:1027B000F7E703460244934200D1704703F8011B38
:1027C000F9E70000194B10B51C68A36BD3B91820AA
:1027D00000F056F843F20E33A06303804AF6CD337F
:1027E000438041F2342383804EF26D63C3804DF603
:1027F000EC630381052343810B23012283810023A2
:10280000C0E90423A16B0A480A694B695043094C8B
:1028100004FB0300A2FB04230132034443F1000341
:10282000C1E9042323F0004010BD00BF18000020C0
:102830002DF451582D7F954C0EB44FF4027100B514
:102840009CB0ADF814106FF00041049107914FF661
:10285000FF711DAB02900690084853F8042BADF8A9
:102860001610006802A9019300F018F90022029BDB
:102870001A701CB05DF804EB03B07047180000201C
:10288000024B0146186800F04FB800BF1800002046
:1028900038B50546002943D051F8043C0C1F002BE5
:1028A000B8BFE41800F0BEFB1E4A1368104633B9E7
:1028B000636014602846BDE8384000F0B4BBA34212
:1028C0000BD921686218934201BF1A685B685218DD
:1028D000226063600460EDE713465A680AB1A242C1
:1028E000FAD919685818A0420BD120680144581829
:1028F00082421960DED110685268014419605A6042
:10290000D8E702D90C232B60D4E7206821188A422B
:1029100001BF116852680918216062605C60C9E7F4
:1029200038BD00BF883A002070B5CD1C25F00305E6
:1029300008350C2D38BF0C25002D064601DBA942B9
:1029400003D90C233360002070BD00F06BFB234AD9
:102950001468214691B9224C23681BB9304600F017
:1029600029FB20602946304600F024FB431C26D179
:102970000C233046336000F056FBE4E70B685B1B2A
:102980001AD40B2B0FD90B60CC18CD50304600F069
:102990004AFB04F10B00231D20F00700C31A1BD0D3
:1029A0005A42E25070BD8C420BBF63684B681360A3
:1029B000636018BF0C46E9E70C464968CAE7C41CC7
:1029C00024F00304A04205D0211A304600F0F2FAA8
:1029D0000130CDD02560D9E770BD00BF883A002016
:1029E0008C3A00202DE9F0478E6882469E420C46C4
:1029F0009146984635D88A8912F4906F31D00223D7
:102A0000256809696F1A656905EB450595FBF3F5BE
:102A100008F101033B449D4238BF1D46530531D5A3
:102A20002946FFF781FF064650B90C23CAF800304B
:102A3000A3894FF0FF3043F04003A381BDE8F08746
:102A40003A462169FFF7AAFEA38923F4906343F075
:102A50008003A38126613E44266046466561ED1BE6
:102A6000A560464528BF464649463246206800F0E4
:102A7000BFFAA36800209B1BA36023681E44266046
:102A8000BDE8F0872A4600F0CFFA06460028E1D1DB
:102A900021695046FFF7FCFEC7E700002DE9F04F23
:102AA0009DB003938B8980461C060D4616460FD5B4
:102AB0000B696BB94021FFF737FF2860286128B9FF
:102AC0000C23C8F800304FF0FF30C4E040236B61A6
:102AD0000023099320238DF8293030234FF0010B78
:102AE0008DF82A3037463C4614F8013B002B3CD188
:102AF000B7EB060A0BD05346324629464046FFF74D
:102B000071FF013000F0A280099B534409933B7888
:102B1000002B00F09B8000234FF0FF3204930793BB
:102B2000059206938DF853301A9305222178504868
:102B300000F050FA671C049BD8B9D90644BF202284
:102B40008DF853201A0744BF2B228DF8532022788A
:102B50002A2A16D000210A20079A27463B780134FA
:102B6000303B092B50D9C9B111E0252BC0D02746E5
:102B7000B9E73F4A3C46801A0BFA00F0184304902C
:102B8000D3E7039A111D12680391002A01DB079213
:102B900004E0524243F00203079204933B782E2B49
:102BA0000DD17B78791C2A2B32D1039B02371A1D59
:102BB0001B680392002BB8BF4FF0FF3305932D4CD9
:102BC00003223978204600F005FA38B14023001B73
:102BD00003FA00F0049B013703430493397806227B
:102BE00025487E1C8DF8281000F0F4F9002835D017
:102BF000224BFBB9039B073323F0070308330393EE
:102C0000099B4B4409936DE700FB02320121A4E7C5
:102C100000230A24184605930F463A780131303ACA
:102C2000092A03D9002BCAD00590C8E704FB00206D
:102C30000123F1E703AB00932A46114B04A9404658
:102C4000AFF30080B0F1FF3F8146D9D1AB895B067D
:102C50003FF539AF09981DB0BDE8F08F03AB009385
:102C60002A46074B04A9404600F084F8EAE700BF73
:102C7000843100088A3100088E310008000000000D
:102C8000E52900082DE9F04791461F468A680B693F
:102C900006469342B8BF1346C9F8003091F8432066
:102CA0000C46DDF8208012B10133C9F800302368EA
:102CB000990642BFD9F800300233C9F800302568C0
:102CC00015F0060507D104F1190AE368D9F80020C8
:102CD0009B1A9D422ADB94F843302268003318BFC8
:102CE000012392062FD404F1430239463046C047EF
:102CF000013022D02368E56803F00603042B18BFD7
:102D00000025D9F800204FF0000908BFAD1AA368CC
:102D1000226908BF25EAE5759342C4BF9B1AED18E6
:102D20001A344D451BD10020BDE8F08701235246DF
:102D300039463046C047013003D14FF0FF30BDE87F
:102D4000F0870135C1E73020E11881F843005A1CB3
:102D500094F845102244023382F84310C3E701235C
:102D6000224639463046C0470130E6D009F1010914
:102D7000D7E700002DE9F04317460A7E85B06E2A9A
:102D8000984606460C460C9B01F1430E00F0BC80B1
:102D90001AD8632A2ED00AD8002A00F0C880582AF0
:102DA00000F08A8004F1420584F842202AE0642A77
:102DB00001D0692AF6D121681A6811F0800F23D05A
:102DC000111D1960136827E0732A00F0B48008D839
:102DD0006F2A2AD0702AE5D10A6842F020020A60E0
:102DE00003E0752A21D0782ADCD178226F4984F853
:102DF000452064E01A6801F14205111D196013684D
:102E000084F842300123A3E011F0400F02F10401E5
:102E10001960D7D0B2F90030002B03DA2D225B42C3
:102E200084F8432062490A2217E02068196810F0EC
:102E3000800F03D0081D18600B6806E010F0400FEB
:102E400001F104001860F7D00B886F2A14BF0A2222
:102E500008225749002084F843006568002DA560CA
:102E6000C0F29C80206820F004002060002B3FD13D
:102E7000002D40F095807546082A0BD12368DA07AB
:102E800008D5236962689A42DEBF302305F8013C09
:102E900005F1FF35AEEB05032361CDF800803B461D
:102EA00003AA21463046FFF7EDFE013055D14FF021
:102EB000FF3005B0BDE8F08381F845203C49226829
:102EC000186812F0800F00F104051D6001D003683E
:102ED00002E05506FBD50388D00744BF42F020022C
:102EE00022601BB9226822F0200222601022B1E782
:102EF0007546B3FBF2F002FB1033CB5C05F8013DE5
:102F000003460028F5D1B7E708681A6810F0800F6B
:102F1000496904D0101D18601368196007E010F0AB
:102F2000400F02F1040018601368F6D019800023E6
:102F300075462361B1E71A68111D196015680021F3
:102F40006268284600F046F808B1401B606063687C
:102F50002361002384F843309FE723692A463946DA
:102F60003046C0470130A2D023689B0707D5002513
:102F700004F11909E368039A9B1A9D4205DBE06896
:102F8000039B9842B8BF184693E701234A46394647
:102F90003046C04701308AD00135EBE7002BA7D17E
:102FA0000B7804F1420584F8423065E7A631000849
:102FB0009531000838B50023054C054608462360C6
:102FC000FFF7F0FA431C02D1236803B12B6038BD30
:102FD000983A002010B5C9B202449042034601D18C
:102FE000002010BD1C7801308C42F6D1184610BD6F
:102FF000884210B501EB020303D8421E99420CD15E
:1030000010BD9842F9D28118D21AD34200D110BD16
:1030100013F8014D01F8014DF7E711F8014B02F8E3
:10302000014FEBE770477047F8B5074614460E4668
:1030300021B91146BDE8F840FFF776BC22B9FFF789
:1030400027FC25462846F8BD00F014F884420FD925
:1030500021463846FFF768FC05460028F2D0314685
:103060002246FFF79BFB31463846FFF711FCE9E7A4
:103070003546E7E751F8040C0028A0F10400BCBF76
:103080000B58C01870470000F8B500BFF8BC08BC6A
:103090009E467047F8B500BFF8BC08BC9E46704716
:1030A00049444C45000000000D0A546869732069CA
:1030B000732042696E6172792053656D6170686F2B
:1030C00072652050726F6A6563740D0A000000001B
:1030D0004D616E6167657200456D706C6F796565F5
:1030E0000000000051756575652F53656D612063A3
:1030F0007265617465206661696C65642E2E200DB1
:103100000A000000436F756C64206E6F7420736555
:103110006E6420746F207468652071756575652E06
:103120000D0A0000456D706C6F79656520746173E0
:103130006B203A20517565756520697320656D7047
:103140007479202C206E6F7468696E6720746F200C
:10315000646F2E0D0A000000456D706C6F79656517
:10316000207461736B203A20576F726B696E672011
:103170006F6E205469636B6564206964203A202572
:10318000640D0A00232D302B2000686C4C0065660E
:1031900067454647003031323334353637383941A8
:1031A00042434445460030313233343536373839BE
:0831B0006162636465660000C2
:0431B80035010008D5
:0431BC0011010008F5
:1031C00000000000010203040102030406070809CD
:1031D00002040608AAAAAAAA1C00002000000000F7
:1031E00000000000000000000000000000000000DF
:1031F00000000000000000000000000000000000CF
:1032000000000000000000000000000000000000BE
:1032100000000000000000000000000000000000AE
:10322000000000000000000000000000000000009E
:0C32300000000000000000000000000092
:040000050800255179
:00000001FF
